{"abi":[{"inputs":[{"internalType":"uint256","name":"minimum","type":"uint256"},{"internalType":"address","name":"creator","type":"address"},{"internalType":"string","name":"name","type":"string"}],"stateMutability":"nonpayable","type":"constructor"},{"inputs":[{"internalType":"uint256","name":"index","type":"uint256"}],"name":"approveRequest","outputs":[],"stateMutability":"nonpayable","type":"function"},{"inputs":[{"internalType":"address","name":"","type":"address"}],"name":"approvers","outputs":[{"internalType":"bool","name":"","type":"bool"}],"stateMutability":"view","type":"function"},{"inputs":[],"name":"approversCount","outputs":[{"internalType":"uint256","name":"","type":"uint256"}],"stateMutability":"view","type":"function"},{"inputs":[],"name":"contribute","outputs":[],"stateMutability":"payable","type":"function"},{"inputs":[{"internalType":"string","name":"description","type":"string"},{"internalType":"uint256","name":"value","type":"uint256"},{"internalType":"address","name":"recipient","type":"address"}],"name":"createRequest","outputs":[],"stateMutability":"nonpayable","type":"function"},{"inputs":[{"internalType":"uint256","name":"index","type":"uint256"}],"name":"finalizeRequest","outputs":[],"stateMutability":"nonpayable","type":"function"},{"inputs":[],"name":"getRequestsCount","outputs":[{"internalType":"uint256","name":"","type":"uint256"}],"stateMutability":"view","type":"function"},{"inputs":[],"name":"getSummary","outputs":[{"internalType":"string","name":"","type":"string"},{"internalType":"uint256","name":"","type":"uint256"},{"internalType":"uint256","name":"","type":"uint256"},{"internalType":"uint256","name":"","type":"uint256"},{"internalType":"uint256","name":"","type":"uint256"},{"internalType":"address","name":"","type":"address"}],"stateMutability":"view","type":"function"},{"inputs":[],"name":"manager","outputs":[{"internalType":"address","name":"","type":"address"}],"stateMutability":"view","type":"function"},{"inputs":[],"name":"managerName","outputs":[{"internalType":"string","name":"","type":"string"}],"stateMutability":"view","type":"function"},{"inputs":[],"name":"minimumContribution","outputs":[{"internalType":"uint256","name":"","type":"uint256"}],"stateMutability":"view","type":"function"},{"inputs":[{"internalType":"uint256","name":"","type":"uint256"}],"name":"requests","outputs":[{"internalType":"string","name":"description","type":"string"},{"internalType":"uint256","name":"value","type":"uint256"},{"internalType":"address","name":"recipient","type":"address"},{"internalType":"bool","name":"complete","type":"bool"},{"internalType":"uint256","name":"approvalCount","type":"uint256"}],"stateMutability":"view","type":"function"}],"devdoc":{"kind":"dev","methods":{},"version":1},"evm":{"assembly":"    /* \"Campaign.sol\":843:3054  contract Campaign {... */\n  mstore(0x40, 0x80)\n    /* \"Campaign.sol\":1358:1523  constructor (uint minimum, address creator, string memory name) {... */\n  callvalue\n  dup1\n  iszero\n  tag_1\n  jumpi\n  0x00\n  dup1\n  revert\ntag_1:\n  pop\n  mload(0x40)\n  sub(codesize, bytecodeSize)\n  dup1\n  bytecodeSize\n  dup4\n  codecopy\n  dup2\n  dup2\n  add\n  0x40\n  mstore\n  dup2\n  add\n  swap1\n  tag_2\n  swap2\n  swap1\n  tag_3\n  jump\t// in\ntag_2:\n    /* \"Campaign.sol\":1442:1449  creator */\n  dup2\n    /* \"Campaign.sol\":1432:1439  manager */\n  0x01\n  0x00\n    /* \"Campaign.sol\":1432:1449  manager = creator */\n  0x0100\n  exp\n  dup2\n  sload\n  dup2\n  0xffffffffffffffffffffffffffffffffffffffff\n  mul\n  not\n  and\n  swap1\n  dup4\n  0xffffffffffffffffffffffffffffffffffffffff\n  and\n  mul\n  or\n  swap1\n  sstore\n  pop\n    /* \"Campaign.sol\":1481:1488  minimum */\n  dup3\n    /* \"Campaign.sol\":1459:1478  minimumContribution */\n  0x03\n    /* \"Campaign.sol\":1459:1488  minimumContribution = minimum */\n  dup2\n  swap1\n  sstore\n  pop\n    /* \"Campaign.sol\":1512:1516  name */\n  dup1\n    /* \"Campaign.sol\":1498:1509  managerName */\n  0x02\n    /* \"Campaign.sol\":1498:1516  managerName = name */\n  swap1\n  dup2\n  tag_6\n  swap2\n  swap1\n  tag_7\n  jump\t// in\ntag_6:\n  pop\n    /* \"Campaign.sol\":1358:1523  constructor (uint minimum, address creator, string memory name) {... */\n  pop\n  pop\n  pop\n    /* \"Campaign.sol\":843:3054  contract Campaign {... */\n  jump(tag_8)\n    /* \"#utility.yul\":7:82   */\ntag_9:\n    /* \"#utility.yul\":40:46   */\n  0x00\n    /* \"#utility.yul\":73:75   */\n  0x40\n    /* \"#utility.yul\":67:76   */\n  mload\n    /* \"#utility.yul\":57:76   */\n  swap1\n  pop\n    /* \"#utility.yul\":7:82   */\n  swap1\n  jump\t// out\n    /* \"#utility.yul\":88:205   */\ntag_10:\n    /* \"#utility.yul\":197:198   */\n  0x00\n    /* \"#utility.yul\":194:195   */\n  dup1\n    /* \"#utility.yul\":187:199   */\n  revert\n    /* \"#utility.yul\":211:328   */\ntag_11:\n    /* \"#utility.yul\":320:321   */\n  0x00\n    /* \"#utility.yul\":317:318   */\n  dup1\n    /* \"#utility.yul\":310:322   */\n  revert\n    /* \"#utility.yul\":334:411   */\ntag_12:\n    /* \"#utility.yul\":371:378   */\n  0x00\n    /* \"#utility.yul\":400:405   */\n  dup2\n    /* \"#utility.yul\":389:405   */\n  swap1\n  pop\n    /* \"#utility.yul\":334:411   */\n  swap2\n  swap1\n  pop\n  jump\t// out\n    /* \"#utility.yul\":417:539   */\ntag_13:\n    /* \"#utility.yul\":490:514   */\n  tag_53\n    /* \"#utility.yul\":508:513   */\n  dup2\n    /* \"#utility.yul\":490:514   */\n  tag_12\n  jump\t// in\ntag_53:\n    /* \"#utility.yul\":483:488   */\n  dup2\n    /* \"#utility.yul\":480:515   */\n  eq\n    /* \"#utility.yul\":470:533   */\n  tag_54\n  jumpi\n    /* \"#utility.yul\":529:530   */\n  0x00\n    /* \"#utility.yul\":526:527   */\n  dup1\n    /* \"#utility.yul\":519:531   */\n  revert\n    /* \"#utility.yul\":470:533   */\ntag_54:\n    /* \"#utility.yul\":417:539   */\n  pop\n  jump\t// out\n    /* \"#utility.yul\":545:688   */\ntag_14:\n    /* \"#utility.yul\":602:607   */\n  0x00\n    /* \"#utility.yul\":633:639   */\n  dup2\n    /* \"#utility.yul\":627:640   */\n  mload\n    /* \"#utility.yul\":618:640   */\n  swap1\n  pop\n    /* \"#utility.yul\":649:682   */\n  tag_56\n    /* \"#utility.yul\":676:681   */\n  dup2\n    /* \"#utility.yul\":649:682   */\n  tag_13\n  jump\t// in\ntag_56:\n    /* \"#utility.yul\":545:688   */\n  swap3\n  swap2\n  pop\n  pop\n  jump\t// out\n    /* \"#utility.yul\":694:820   */\ntag_15:\n    /* \"#utility.yul\":731:738   */\n  0x00\n    /* \"#utility.yul\":771:813   */\n  0xffffffffffffffffffffffffffffffffffffffff\n    /* \"#utility.yul\":764:769   */\n  dup3\n    /* \"#utility.yul\":760:814   */\n  and\n    /* \"#utility.yul\":749:814   */\n  swap1\n  pop\n    /* \"#utility.yul\":694:820   */\n  swap2\n  swap1\n  pop\n  jump\t// out\n    /* \"#utility.yul\":826:922   */\ntag_16:\n    /* \"#utility.yul\":863:870   */\n  0x00\n    /* \"#utility.yul\":892:916   */\n  tag_59\n    /* \"#utility.yul\":910:915   */\n  dup3\n    /* \"#utility.yul\":892:916   */\n  tag_15\n  jump\t// in\ntag_59:\n    /* \"#utility.yul\":881:916   */\n  swap1\n  pop\n    /* \"#utility.yul\":826:922   */\n  swap2\n  swap1\n  pop\n  jump\t// out\n    /* \"#utility.yul\":928:1050   */\ntag_17:\n    /* \"#utility.yul\":1001:1025   */\n  tag_61\n    /* \"#utility.yul\":1019:1024   */\n  dup2\n    /* \"#utility.yul\":1001:1025   */\n  tag_16\n  jump\t// in\ntag_61:\n    /* \"#utility.yul\":994:999   */\n  dup2\n    /* \"#utility.yul\":991:1026   */\n  eq\n    /* \"#utility.yul\":981:1044   */\n  tag_62\n  jumpi\n    /* \"#utility.yul\":1040:1041   */\n  0x00\n    /* \"#utility.yul\":1037:1038   */\n  dup1\n    /* \"#utility.yul\":1030:1042   */\n  revert\n    /* \"#utility.yul\":981:1044   */\ntag_62:\n    /* \"#utility.yul\":928:1050   */\n  pop\n  jump\t// out\n    /* \"#utility.yul\":1056:1199   */\ntag_18:\n    /* \"#utility.yul\":1113:1118   */\n  0x00\n    /* \"#utility.yul\":1144:1150   */\n  dup2\n    /* \"#utility.yul\":1138:1151   */\n  mload\n    /* \"#utility.yul\":1129:1151   */\n  swap1\n  pop\n    /* \"#utility.yul\":1160:1193   */\n  tag_64\n    /* \"#utility.yul\":1187:1192   */\n  dup2\n    /* \"#utility.yul\":1160:1193   */\n  tag_17\n  jump\t// in\ntag_64:\n    /* \"#utility.yul\":1056:1199   */\n  swap3\n  swap2\n  pop\n  pop\n  jump\t// out\n    /* \"#utility.yul\":1205:1322   */\ntag_19:\n    /* \"#utility.yul\":1314:1315   */\n  0x00\n    /* \"#utility.yul\":1311:1312   */\n  dup1\n    /* \"#utility.yul\":1304:1316   */\n  revert\n    /* \"#utility.yul\":1328:1445   */\ntag_20:\n    /* \"#utility.yul\":1437:1438   */\n  0x00\n    /* \"#utility.yul\":1434:1435   */\n  dup1\n    /* \"#utility.yul\":1427:1439   */\n  revert\n    /* \"#utility.yul\":1451:1553   */\ntag_21:\n    /* \"#utility.yul\":1492:1498   */\n  0x00\n    /* \"#utility.yul\":1543:1545   */\n  0x1f\n    /* \"#utility.yul\":1539:1546   */\n  not\n    /* \"#utility.yul\":1534:1536   */\n  0x1f\n    /* \"#utility.yul\":1527:1532   */\n  dup4\n    /* \"#utility.yul\":1523:1537   */\n  add\n    /* \"#utility.yul\":1519:1547   */\n  and\n    /* \"#utility.yul\":1509:1547   */\n  swap1\n  pop\n    /* \"#utility.yul\":1451:1553   */\n  swap2\n  swap1\n  pop\n  jump\t// out\n    /* \"#utility.yul\":1559:1739   */\ntag_22:\n    /* \"#utility.yul\":1607:1684   */\n  0x4e487b7100000000000000000000000000000000000000000000000000000000\n    /* \"#utility.yul\":1604:1605   */\n  0x00\n    /* \"#utility.yul\":1597:1685   */\n  mstore\n    /* \"#utility.yul\":1704:1708   */\n  0x41\n    /* \"#utility.yul\":1701:1702   */\n  0x04\n    /* \"#utility.yul\":1694:1709   */\n  mstore\n    /* \"#utility.yul\":1728:1732   */\n  0x24\n    /* \"#utility.yul\":1725:1726   */\n  0x00\n    /* \"#utility.yul\":1718:1733   */\n  revert\n    /* \"#utility.yul\":1745:2026   */\ntag_23:\n    /* \"#utility.yul\":1828:1855   */\n  tag_70\n    /* \"#utility.yul\":1850:1854   */\n  dup3\n    /* \"#utility.yul\":1828:1855   */\n  tag_21\n  jump\t// in\ntag_70:\n    /* \"#utility.yul\":1820:1826   */\n  dup2\n    /* \"#utility.yul\":1816:1856   */\n  add\n    /* \"#utility.yul\":1958:1964   */\n  dup2\n    /* \"#utility.yul\":1946:1956   */\n  dup2\n    /* \"#utility.yul\":1943:1965   */\n  lt\n    /* \"#utility.yul\":1922:1940   */\n  0xffffffffffffffff\n    /* \"#utility.yul\":1910:1920   */\n  dup3\n    /* \"#utility.yul\":1907:1941   */\n  gt\n    /* \"#utility.yul\":1904:1966   */\n  or\n    /* \"#utility.yul\":1901:1989   */\n  iszero\n  tag_71\n  jumpi\n    /* \"#utility.yul\":1969:1987   */\n  tag_72\n  tag_22\n  jump\t// in\ntag_72:\n    /* \"#utility.yul\":1901:1989   */\ntag_71:\n    /* \"#utility.yul\":2009:2019   */\n  dup1\n    /* \"#utility.yul\":2005:2007   */\n  0x40\n    /* \"#utility.yul\":1998:2020   */\n  mstore\n    /* \"#utility.yul\":1788:2026   */\n  pop\n    /* \"#utility.yul\":1745:2026   */\n  pop\n  pop\n  jump\t// out\n    /* \"#utility.yul\":2032:2161   */\ntag_24:\n    /* \"#utility.yul\":2066:2072   */\n  0x00\n    /* \"#utility.yul\":2093:2113   */\n  tag_74\n  tag_9\n  jump\t// in\ntag_74:\n    /* \"#utility.yul\":2083:2113   */\n  swap1\n  pop\n    /* \"#utility.yul\":2122:2155   */\n  tag_75\n    /* \"#utility.yul\":2150:2154   */\n  dup3\n    /* \"#utility.yul\":2142:2148   */\n  dup3\n    /* \"#utility.yul\":2122:2155   */\n  tag_23\n  jump\t// in\ntag_75:\n    /* \"#utility.yul\":2032:2161   */\n  swap2\n  swap1\n  pop\n  jump\t// out\n    /* \"#utility.yul\":2167:2475   */\ntag_25:\n    /* \"#utility.yul\":2229:2233   */\n  0x00\n    /* \"#utility.yul\":2319:2337   */\n  0xffffffffffffffff\n    /* \"#utility.yul\":2311:2317   */\n  dup3\n    /* \"#utility.yul\":2308:2338   */\n  gt\n    /* \"#utility.yul\":2305:2361   */\n  iszero\n  tag_77\n  jumpi\n    /* \"#utility.yul\":2341:2359   */\n  tag_78\n  tag_22\n  jump\t// in\ntag_78:\n    /* \"#utility.yul\":2305:2361   */\ntag_77:\n    /* \"#utility.yul\":2379:2408   */\n  tag_79\n    /* \"#utility.yul\":2401:2407   */\n  dup3\n    /* \"#utility.yul\":2379:2408   */\n  tag_21\n  jump\t// in\ntag_79:\n    /* \"#utility.yul\":2371:2408   */\n  swap1\n  pop\n    /* \"#utility.yul\":2463:2467   */\n  0x20\n    /* \"#utility.yul\":2457:2461   */\n  dup2\n    /* \"#utility.yul\":2453:2468   */\n  add\n    /* \"#utility.yul\":2445:2468   */\n  swap1\n  pop\n    /* \"#utility.yul\":2167:2475   */\n  swap2\n  swap1\n  pop\n  jump\t// out\n    /* \"#utility.yul\":2481:2727   */\ntag_26:\n    /* \"#utility.yul\":2562:2563   */\n  0x00\n    /* \"#utility.yul\":2572:2685   */\ntag_81:\n    /* \"#utility.yul\":2586:2592   */\n  dup4\n    /* \"#utility.yul\":2583:2584   */\n  dup2\n    /* \"#utility.yul\":2580:2593   */\n  lt\n    /* \"#utility.yul\":2572:2685   */\n  iszero\n  tag_83\n  jumpi\n    /* \"#utility.yul\":2671:2672   */\n  dup1\n    /* \"#utility.yul\":2666:2669   */\n  dup3\n    /* \"#utility.yul\":2662:2673   */\n  add\n    /* \"#utility.yul\":2656:2674   */\n  mload\n    /* \"#utility.yul\":2652:2653   */\n  dup2\n    /* \"#utility.yul\":2647:2650   */\n  dup5\n    /* \"#utility.yul\":2643:2654   */\n  add\n    /* \"#utility.yul\":2636:2675   */\n  mstore\n    /* \"#utility.yul\":2608:2610   */\n  0x20\n    /* \"#utility.yul\":2605:2606   */\n  dup2\n    /* \"#utility.yul\":2601:2611   */\n  add\n    /* \"#utility.yul\":2596:2611   */\n  swap1\n  pop\n    /* \"#utility.yul\":2572:2685   */\n  jump(tag_81)\ntag_83:\n    /* \"#utility.yul\":2719:2720   */\n  0x00\n    /* \"#utility.yul\":2710:2716   */\n  dup5\n    /* \"#utility.yul\":2705:2708   */\n  dup5\n    /* \"#utility.yul\":2701:2717   */\n  add\n    /* \"#utility.yul\":2694:2721   */\n  mstore\n    /* \"#utility.yul\":2543:2727   */\n  pop\n    /* \"#utility.yul\":2481:2727   */\n  pop\n  pop\n  pop\n  jump\t// out\n    /* \"#utility.yul\":2733:3167   */\ntag_27:\n    /* \"#utility.yul\":2822:2827   */\n  0x00\n    /* \"#utility.yul\":2847:2913   */\n  tag_85\n    /* \"#utility.yul\":2863:2912   */\n  tag_86\n    /* \"#utility.yul\":2905:2911   */\n  dup5\n    /* \"#utility.yul\":2863:2912   */\n  tag_25\n  jump\t// in\ntag_86:\n    /* \"#utility.yul\":2847:2913   */\n  tag_24\n  jump\t// in\ntag_85:\n    /* \"#utility.yul\":2838:2913   */\n  swap1\n  pop\n    /* \"#utility.yul\":2936:2942   */\n  dup3\n    /* \"#utility.yul\":2929:2934   */\n  dup2\n    /* \"#utility.yul\":2922:2943   */\n  mstore\n    /* \"#utility.yul\":2974:2978   */\n  0x20\n    /* \"#utility.yul\":2967:2972   */\n  dup2\n    /* \"#utility.yul\":2963:2979   */\n  add\n    /* \"#utility.yul\":3012:3015   */\n  dup5\n    /* \"#utility.yul\":3003:3009   */\n  dup5\n    /* \"#utility.yul\":2998:3001   */\n  dup5\n    /* \"#utility.yul\":2994:3010   */\n  add\n    /* \"#utility.yul\":2991:3016   */\n  gt\n    /* \"#utility.yul\":2988:3100   */\n  iszero\n  tag_87\n  jumpi\n    /* \"#utility.yul\":3019:3098   */\n  tag_88\n  tag_20\n  jump\t// in\ntag_88:\n    /* \"#utility.yul\":2988:3100   */\ntag_87:\n    /* \"#utility.yul\":3109:3161   */\n  tag_89\n    /* \"#utility.yul\":3154:3160   */\n  dup5\n    /* \"#utility.yul\":3149:3152   */\n  dup3\n    /* \"#utility.yul\":3144:3147   */\n  dup6\n    /* \"#utility.yul\":3109:3161   */\n  tag_26\n  jump\t// in\ntag_89:\n    /* \"#utility.yul\":2828:3167   */\n  pop\n    /* \"#utility.yul\":2733:3167   */\n  swap4\n  swap3\n  pop\n  pop\n  pop\n  jump\t// out\n    /* \"#utility.yul\":3187:3542   */\ntag_28:\n    /* \"#utility.yul\":3254:3259   */\n  0x00\n    /* \"#utility.yul\":3303:3306   */\n  dup3\n    /* \"#utility.yul\":3296:3300   */\n  0x1f\n    /* \"#utility.yul\":3288:3294   */\n  dup4\n    /* \"#utility.yul\":3284:3301   */\n  add\n    /* \"#utility.yul\":3280:3307   */\n  slt\n    /* \"#utility.yul\":3270:3392   */\n  tag_91\n  jumpi\n    /* \"#utility.yul\":3311:3390   */\n  tag_92\n  tag_19\n  jump\t// in\ntag_92:\n    /* \"#utility.yul\":3270:3392   */\ntag_91:\n    /* \"#utility.yul\":3421:3427   */\n  dup2\n    /* \"#utility.yul\":3415:3428   */\n  mload\n    /* \"#utility.yul\":3446:3536   */\n  tag_93\n    /* \"#utility.yul\":3532:3535   */\n  dup5\n    /* \"#utility.yul\":3524:3530   */\n  dup3\n    /* \"#utility.yul\":3517:3521   */\n  0x20\n    /* \"#utility.yul\":3509:3515   */\n  dup7\n    /* \"#utility.yul\":3505:3522   */\n  add\n    /* \"#utility.yul\":3446:3536   */\n  tag_27\n  jump\t// in\ntag_93:\n    /* \"#utility.yul\":3437:3536   */\n  swap2\n  pop\n    /* \"#utility.yul\":3260:3542   */\n  pop\n    /* \"#utility.yul\":3187:3542   */\n  swap3\n  swap2\n  pop\n  pop\n  jump\t// out\n    /* \"#utility.yul\":3548:4384   */\ntag_3:\n    /* \"#utility.yul\":3646:3652   */\n  0x00\n    /* \"#utility.yul\":3654:3660   */\n  dup1\n    /* \"#utility.yul\":3662:3668   */\n  0x00\n    /* \"#utility.yul\":3711:3713   */\n  0x60\n    /* \"#utility.yul\":3699:3708   */\n  dup5\n    /* \"#utility.yul\":3690:3697   */\n  dup7\n    /* \"#utility.yul\":3686:3709   */\n  sub\n    /* \"#utility.yul\":3682:3714   */\n  slt\n    /* \"#utility.yul\":3679:3798   */\n  iszero\n  tag_95\n  jumpi\n    /* \"#utility.yul\":3717:3796   */\n  tag_96\n  tag_10\n  jump\t// in\ntag_96:\n    /* \"#utility.yul\":3679:3798   */\ntag_95:\n    /* \"#utility.yul\":3837:3838   */\n  0x00\n    /* \"#utility.yul\":3862:3926   */\n  tag_97\n    /* \"#utility.yul\":3918:3925   */\n  dup7\n    /* \"#utility.yul\":3909:3915   */\n  dup3\n    /* \"#utility.yul\":3898:3907   */\n  dup8\n    /* \"#utility.yul\":3894:3916   */\n  add\n    /* \"#utility.yul\":3862:3926   */\n  tag_14\n  jump\t// in\ntag_97:\n    /* \"#utility.yul\":3852:3926   */\n  swap4\n  pop\n    /* \"#utility.yul\":3808:3936   */\n  pop\n    /* \"#utility.yul\":3975:3977   */\n  0x20\n    /* \"#utility.yul\":4001:4065   */\n  tag_98\n    /* \"#utility.yul\":4057:4064   */\n  dup7\n    /* \"#utility.yul\":4048:4054   */\n  dup3\n    /* \"#utility.yul\":4037:4046   */\n  dup8\n    /* \"#utility.yul\":4033:4055   */\n  add\n    /* \"#utility.yul\":4001:4065   */\n  tag_18\n  jump\t// in\ntag_98:\n    /* \"#utility.yul\":3991:4065   */\n  swap3\n  pop\n    /* \"#utility.yul\":3946:4075   */\n  pop\n    /* \"#utility.yul\":4135:4137   */\n  0x40\n    /* \"#utility.yul\":4124:4133   */\n  dup5\n    /* \"#utility.yul\":4120:4138   */\n  add\n    /* \"#utility.yul\":4114:4139   */\n  mload\n    /* \"#utility.yul\":4166:4184   */\n  0xffffffffffffffff\n    /* \"#utility.yul\":4158:4164   */\n  dup2\n    /* \"#utility.yul\":4155:4185   */\n  gt\n    /* \"#utility.yul\":4152:4269   */\n  iszero\n  tag_99\n  jumpi\n    /* \"#utility.yul\":4188:4267   */\n  tag_100\n  tag_11\n  jump\t// in\ntag_100:\n    /* \"#utility.yul\":4152:4269   */\ntag_99:\n    /* \"#utility.yul\":4293:4367   */\n  tag_101\n    /* \"#utility.yul\":4359:4366   */\n  dup7\n    /* \"#utility.yul\":4350:4356   */\n  dup3\n    /* \"#utility.yul\":4339:4348   */\n  dup8\n    /* \"#utility.yul\":4335:4357   */\n  add\n    /* \"#utility.yul\":4293:4367   */\n  tag_28\n  jump\t// in\ntag_101:\n    /* \"#utility.yul\":4283:4367   */\n  swap2\n  pop\n    /* \"#utility.yul\":4085:4377   */\n  pop\n    /* \"#utility.yul\":3548:4384   */\n  swap3\n  pop\n  swap3\n  pop\n  swap3\n  jump\t// out\n    /* \"#utility.yul\":4390:4489   */\ntag_29:\n    /* \"#utility.yul\":4442:4448   */\n  0x00\n    /* \"#utility.yul\":4476:4481   */\n  dup2\n    /* \"#utility.yul\":4470:4482   */\n  mload\n    /* \"#utility.yul\":4460:4482   */\n  swap1\n  pop\n    /* \"#utility.yul\":4390:4489   */\n  swap2\n  swap1\n  pop\n  jump\t// out\n    /* \"#utility.yul\":4495:4675   */\ntag_30:\n    /* \"#utility.yul\":4543:4620   */\n  0x4e487b7100000000000000000000000000000000000000000000000000000000\n    /* \"#utility.yul\":4540:4541   */\n  0x00\n    /* \"#utility.yul\":4533:4621   */\n  mstore\n    /* \"#utility.yul\":4640:4644   */\n  0x22\n    /* \"#utility.yul\":4637:4638   */\n  0x04\n    /* \"#utility.yul\":4630:4645   */\n  mstore\n    /* \"#utility.yul\":4664:4668   */\n  0x24\n    /* \"#utility.yul\":4661:4662   */\n  0x00\n    /* \"#utility.yul\":4654:4669   */\n  revert\n    /* \"#utility.yul\":4681:5001   */\ntag_31:\n    /* \"#utility.yul\":4725:4731   */\n  0x00\n    /* \"#utility.yul\":4762:4763   */\n  0x02\n    /* \"#utility.yul\":4756:4760   */\n  dup3\n    /* \"#utility.yul\":4752:4764   */\n  div\n    /* \"#utility.yul\":4742:4764   */\n  swap1\n  pop\n    /* \"#utility.yul\":4809:4810   */\n  0x01\n    /* \"#utility.yul\":4803:4807   */\n  dup3\n    /* \"#utility.yul\":4799:4811   */\n  and\n    /* \"#utility.yul\":4830:4848   */\n  dup1\n    /* \"#utility.yul\":4820:4901   */\n  tag_105\n  jumpi\n    /* \"#utility.yul\":4886:4890   */\n  0x7f\n    /* \"#utility.yul\":4878:4884   */\n  dup3\n    /* \"#utility.yul\":4874:4891   */\n  and\n    /* \"#utility.yul\":4864:4891   */\n  swap2\n  pop\n    /* \"#utility.yul\":4820:4901   */\ntag_105:\n    /* \"#utility.yul\":4948:4950   */\n  0x20\n    /* \"#utility.yul\":4940:4946   */\n  dup3\n    /* \"#utility.yul\":4937:4951   */\n  lt\n    /* \"#utility.yul\":4917:4935   */\n  dup2\n    /* \"#utility.yul\":4914:4952   */\n  sub\n    /* \"#utility.yul\":4911:4995   */\n  tag_106\n  jumpi\n    /* \"#utility.yul\":4967:4985   */\n  tag_107\n  tag_30\n  jump\t// in\ntag_107:\n    /* \"#utility.yul\":4911:4995   */\ntag_106:\n    /* \"#utility.yul\":4732:5001   */\n  pop\n    /* \"#utility.yul\":4681:5001   */\n  swap2\n  swap1\n  pop\n  jump\t// out\n    /* \"#utility.yul\":5007:5148   */\ntag_32:\n    /* \"#utility.yul\":5056:5060   */\n  0x00\n    /* \"#utility.yul\":5079:5082   */\n  dup2\n    /* \"#utility.yul\":5071:5082   */\n  swap1\n  pop\n    /* \"#utility.yul\":5102:5105   */\n  dup2\n    /* \"#utility.yul\":5099:5100   */\n  0x00\n    /* \"#utility.yul\":5092:5106   */\n  mstore\n    /* \"#utility.yul\":5136:5140   */\n  0x20\n    /* \"#utility.yul\":5133:5134   */\n  0x00\n    /* \"#utility.yul\":5123:5141   */\n  keccak256\n    /* \"#utility.yul\":5115:5141   */\n  swap1\n  pop\n    /* \"#utility.yul\":5007:5148   */\n  swap2\n  swap1\n  pop\n  jump\t// out\n    /* \"#utility.yul\":5154:5247   */\ntag_33:\n    /* \"#utility.yul\":5191:5197   */\n  0x00\n    /* \"#utility.yul\":5238:5240   */\n  0x20\n    /* \"#utility.yul\":5233:5235   */\n  0x1f\n    /* \"#utility.yul\":5226:5231   */\n  dup4\n    /* \"#utility.yul\":5222:5236   */\n  add\n    /* \"#utility.yul\":5218:5241   */\n  div\n    /* \"#utility.yul\":5208:5241   */\n  swap1\n  pop\n    /* \"#utility.yul\":5154:5247   */\n  swap2\n  swap1\n  pop\n  jump\t// out\n    /* \"#utility.yul\":5253:5360   */\ntag_34:\n    /* \"#utility.yul\":5297:5305   */\n  0x00\n    /* \"#utility.yul\":5347:5352   */\n  dup3\n    /* \"#utility.yul\":5341:5345   */\n  dup3\n    /* \"#utility.yul\":5337:5353   */\n  shl\n    /* \"#utility.yul\":5316:5353   */\n  swap1\n  pop\n    /* \"#utility.yul\":5253:5360   */\n  swap3\n  swap2\n  pop\n  pop\n  jump\t// out\n    /* \"#utility.yul\":5366:5759   */\ntag_35:\n    /* \"#utility.yul\":5435:5441   */\n  0x00\n    /* \"#utility.yul\":5485:5486   */\n  0x08\n    /* \"#utility.yul\":5473:5483   */\n  dup4\n    /* \"#utility.yul\":5469:5487   */\n  mul\n    /* \"#utility.yul\":5508:5605   */\n  tag_112\n    /* \"#utility.yul\":5538:5604   */\n  0xffffffffffffffffffffffffffffffffffffffffffffffffffffffffffffffff\n    /* \"#utility.yul\":5527:5536   */\n  dup3\n    /* \"#utility.yul\":5508:5605   */\n  tag_34\n  jump\t// in\ntag_112:\n    /* \"#utility.yul\":5626:5665   */\n  tag_113\n    /* \"#utility.yul\":5656:5664   */\n  dup7\n    /* \"#utility.yul\":5645:5654   */\n  dup4\n    /* \"#utility.yul\":5626:5665   */\n  tag_34\n  jump\t// in\ntag_113:\n    /* \"#utility.yul\":5614:5665   */\n  swap6\n  pop\n    /* \"#utility.yul\":5698:5702   */\n  dup1\n    /* \"#utility.yul\":5694:5703   */\n  not\n    /* \"#utility.yul\":5687:5692   */\n  dup5\n    /* \"#utility.yul\":5683:5704   */\n  and\n    /* \"#utility.yul\":5674:5704   */\n  swap4\n  pop\n    /* \"#utility.yul\":5747:5751   */\n  dup1\n    /* \"#utility.yul\":5737:5745   */\n  dup7\n    /* \"#utility.yul\":5733:5752   */\n  and\n    /* \"#utility.yul\":5726:5731   */\n  dup5\n    /* \"#utility.yul\":5723:5753   */\n  or\n    /* \"#utility.yul\":5713:5753   */\n  swap3\n  pop\n    /* \"#utility.yul\":5442:5759   */\n  pop\n  pop\n    /* \"#utility.yul\":5366:5759   */\n  swap4\n  swap3\n  pop\n  pop\n  pop\n  jump\t// out\n    /* \"#utility.yul\":5765:5825   */\ntag_36:\n    /* \"#utility.yul\":5793:5796   */\n  0x00\n    /* \"#utility.yul\":5814:5819   */\n  dup2\n    /* \"#utility.yul\":5807:5819   */\n  swap1\n  pop\n    /* \"#utility.yul\":5765:5825   */\n  swap2\n  swap1\n  pop\n  jump\t// out\n    /* \"#utility.yul\":5831:5973   */\ntag_37:\n    /* \"#utility.yul\":5881:5890   */\n  0x00\n    /* \"#utility.yul\":5914:5967   */\n  tag_116\n    /* \"#utility.yul\":5932:5966   */\n  tag_117\n    /* \"#utility.yul\":5941:5965   */\n  tag_118\n    /* \"#utility.yul\":5959:5964   */\n  dup5\n    /* \"#utility.yul\":5941:5965   */\n  tag_12\n  jump\t// in\ntag_118:\n    /* \"#utility.yul\":5932:5966   */\n  tag_36\n  jump\t// in\ntag_117:\n    /* \"#utility.yul\":5914:5967   */\n  tag_12\n  jump\t// in\ntag_116:\n    /* \"#utility.yul\":5901:5967   */\n  swap1\n  pop\n    /* \"#utility.yul\":5831:5973   */\n  swap2\n  swap1\n  pop\n  jump\t// out\n    /* \"#utility.yul\":5979:6054   */\ntag_38:\n    /* \"#utility.yul\":6022:6025   */\n  0x00\n    /* \"#utility.yul\":6043:6048   */\n  dup2\n    /* \"#utility.yul\":6036:6048   */\n  swap1\n  pop\n    /* \"#utility.yul\":5979:6054   */\n  swap2\n  swap1\n  pop\n  jump\t// out\n    /* \"#utility.yul\":6060:6329   */\ntag_39:\n    /* \"#utility.yul\":6170:6209   */\n  tag_121\n    /* \"#utility.yul\":6201:6208   */\n  dup4\n    /* \"#utility.yul\":6170:6209   */\n  tag_37\n  jump\t// in\ntag_121:\n    /* \"#utility.yul\":6231:6322   */\n  tag_122\n    /* \"#utility.yul\":6280:6321   */\n  tag_123\n    /* \"#utility.yul\":6304:6320   */\n  dup3\n    /* \"#utility.yul\":6280:6321   */\n  tag_38\n  jump\t// in\ntag_123:\n    /* \"#utility.yul\":6272:6278   */\n  dup5\n    /* \"#utility.yul\":6265:6269   */\n  dup5\n    /* \"#utility.yul\":6259:6270   */\n  sload\n    /* \"#utility.yul\":6231:6322   */\n  tag_35\n  jump\t// in\ntag_122:\n    /* \"#utility.yul\":6225:6229   */\n  dup3\n    /* \"#utility.yul\":6218:6323   */\n  sstore\n    /* \"#utility.yul\":6136:6329   */\n  pop\n    /* \"#utility.yul\":6060:6329   */\n  pop\n  pop\n  pop\n  jump\t// out\n    /* \"#utility.yul\":6335:6408   */\ntag_40:\n    /* \"#utility.yul\":6380:6383   */\n  0x00\n    /* \"#utility.yul\":6335:6408   */\n  swap1\n  jump\t// out\n    /* \"#utility.yul\":6414:6603   */\ntag_41:\n    /* \"#utility.yul\":6491:6523   */\n  tag_126\n  tag_40\n  jump\t// in\ntag_126:\n    /* \"#utility.yul\":6532:6597   */\n  tag_127\n    /* \"#utility.yul\":6590:6596   */\n  dup2\n    /* \"#utility.yul\":6582:6588   */\n  dup5\n    /* \"#utility.yul\":6576:6580   */\n  dup5\n    /* \"#utility.yul\":6532:6597   */\n  tag_39\n  jump\t// in\ntag_127:\n    /* \"#utility.yul\":6467:6603   */\n  pop\n    /* \"#utility.yul\":6414:6603   */\n  pop\n  pop\n  jump\t// out\n    /* \"#utility.yul\":6609:6795   */\ntag_42:\n    /* \"#utility.yul\":6669:6789   */\ntag_129:\n    /* \"#utility.yul\":6686:6689   */\n  dup2\n    /* \"#utility.yul\":6679:6684   */\n  dup2\n    /* \"#utility.yul\":6676:6690   */\n  lt\n    /* \"#utility.yul\":6669:6789   */\n  iszero\n  tag_131\n  jumpi\n    /* \"#utility.yul\":6740:6779   */\n  tag_132\n    /* \"#utility.yul\":6777:6778   */\n  0x00\n    /* \"#utility.yul\":6770:6775   */\n  dup3\n    /* \"#utility.yul\":6740:6779   */\n  tag_41\n  jump\t// in\ntag_132:\n    /* \"#utility.yul\":6713:6714   */\n  0x01\n    /* \"#utility.yul\":6706:6711   */\n  dup2\n    /* \"#utility.yul\":6702:6715   */\n  add\n    /* \"#utility.yul\":6693:6715   */\n  swap1\n  pop\n    /* \"#utility.yul\":6669:6789   */\n  jump(tag_129)\ntag_131:\n    /* \"#utility.yul\":6609:6795   */\n  pop\n  pop\n  jump\t// out\n    /* \"#utility.yul\":6801:7344   */\ntag_43:\n    /* \"#utility.yul\":6902:6904   */\n  0x1f\n    /* \"#utility.yul\":6897:6900   */\n  dup3\n    /* \"#utility.yul\":6894:6905   */\n  gt\n    /* \"#utility.yul\":6891:7337   */\n  iszero\n  tag_134\n  jumpi\n    /* \"#utility.yul\":6936:6974   */\n  tag_135\n    /* \"#utility.yul\":6968:6973   */\n  dup2\n    /* \"#utility.yul\":6936:6974   */\n  tag_32\n  jump\t// in\ntag_135:\n    /* \"#utility.yul\":7020:7049   */\n  tag_136\n    /* \"#utility.yul\":7038:7048   */\n  dup5\n    /* \"#utility.yul\":7020:7049   */\n  tag_33\n  jump\t// in\ntag_136:\n    /* \"#utility.yul\":7010:7018   */\n  dup2\n    /* \"#utility.yul\":7006:7050   */\n  add\n    /* \"#utility.yul\":7203:7205   */\n  0x20\n    /* \"#utility.yul\":7191:7201   */\n  dup6\n    /* \"#utility.yul\":7188:7206   */\n  lt\n    /* \"#utility.yul\":7185:7234   */\n  iszero\n  tag_137\n  jumpi\n    /* \"#utility.yul\":7224:7232   */\n  dup2\n    /* \"#utility.yul\":7209:7232   */\n  swap1\n  pop\n    /* \"#utility.yul\":7185:7234   */\ntag_137:\n    /* \"#utility.yul\":7247:7327   */\n  tag_138\n    /* \"#utility.yul\":7303:7325   */\n  tag_139\n    /* \"#utility.yul\":7321:7324   */\n  dup6\n    /* \"#utility.yul\":7303:7325   */\n  tag_33\n  jump\t// in\ntag_139:\n    /* \"#utility.yul\":7293:7301   */\n  dup4\n    /* \"#utility.yul\":7289:7326   */\n  add\n    /* \"#utility.yul\":7276:7287   */\n  dup3\n    /* \"#utility.yul\":7247:7327   */\n  tag_42\n  jump\t// in\ntag_138:\n    /* \"#utility.yul\":6906:7337   */\n  pop\n  pop\n    /* \"#utility.yul\":6891:7337   */\ntag_134:\n    /* \"#utility.yul\":6801:7344   */\n  pop\n  pop\n  pop\n  jump\t// out\n    /* \"#utility.yul\":7350:7467   */\ntag_44:\n    /* \"#utility.yul\":7404:7412   */\n  0x00\n    /* \"#utility.yul\":7454:7459   */\n  dup3\n    /* \"#utility.yul\":7448:7452   */\n  dup3\n    /* \"#utility.yul\":7444:7460   */\n  shr\n    /* \"#utility.yul\":7423:7460   */\n  swap1\n  pop\n    /* \"#utility.yul\":7350:7467   */\n  swap3\n  swap2\n  pop\n  pop\n  jump\t// out\n    /* \"#utility.yul\":7473:7642   */\ntag_45:\n    /* \"#utility.yul\":7517:7523   */\n  0x00\n    /* \"#utility.yul\":7550:7601   */\n  tag_142\n    /* \"#utility.yul\":7598:7599   */\n  0x00\n    /* \"#utility.yul\":7594:7600   */\n  not\n    /* \"#utility.yul\":7586:7591   */\n  dup5\n    /* \"#utility.yul\":7583:7584   */\n  0x08\n    /* \"#utility.yul\":7579:7592   */\n  mul\n    /* \"#utility.yul\":7550:7601   */\n  tag_44\n  jump\t// in\ntag_142:\n    /* \"#utility.yul\":7546:7602   */\n  not\n    /* \"#utility.yul\":7631:7635   */\n  dup1\n    /* \"#utility.yul\":7625:7629   */\n  dup4\n    /* \"#utility.yul\":7621:7636   */\n  and\n    /* \"#utility.yul\":7611:7636   */\n  swap2\n  pop\n    /* \"#utility.yul\":7524:7642   */\n  pop\n    /* \"#utility.yul\":7473:7642   */\n  swap3\n  swap2\n  pop\n  pop\n  jump\t// out\n    /* \"#utility.yul\":7647:7942   */\ntag_46:\n    /* \"#utility.yul\":7723:7727   */\n  0x00\n    /* \"#utility.yul\":7869:7898   */\n  tag_144\n    /* \"#utility.yul\":7894:7897   */\n  dup4\n    /* \"#utility.yul\":7888:7892   */\n  dup4\n    /* \"#utility.yul\":7869:7898   */\n  tag_45\n  jump\t// in\ntag_144:\n    /* \"#utility.yul\":7861:7898   */\n  swap2\n  pop\n    /* \"#utility.yul\":7931:7934   */\n  dup3\n    /* \"#utility.yul\":7928:7929   */\n  0x02\n    /* \"#utility.yul\":7924:7935   */\n  mul\n    /* \"#utility.yul\":7918:7922   */\n  dup3\n    /* \"#utility.yul\":7915:7936   */\n  or\n    /* \"#utility.yul\":7907:7936   */\n  swap1\n  pop\n    /* \"#utility.yul\":7647:7942   */\n  swap3\n  swap2\n  pop\n  pop\n  jump\t// out\n    /* \"#utility.yul\":7947:9342   */\ntag_7:\n    /* \"#utility.yul\":8064:8101   */\n  tag_146\n    /* \"#utility.yul\":8097:8100   */\n  dup3\n    /* \"#utility.yul\":8064:8101   */\n  tag_29\n  jump\t// in\ntag_146:\n    /* \"#utility.yul\":8166:8184   */\n  0xffffffffffffffff\n    /* \"#utility.yul\":8158:8164   */\n  dup2\n    /* \"#utility.yul\":8155:8185   */\n  gt\n    /* \"#utility.yul\":8152:8208   */\n  iszero\n  tag_147\n  jumpi\n    /* \"#utility.yul\":8188:8206   */\n  tag_148\n  tag_22\n  jump\t// in\ntag_148:\n    /* \"#utility.yul\":8152:8208   */\ntag_147:\n    /* \"#utility.yul\":8232:8270   */\n  tag_149\n    /* \"#utility.yul\":8264:8268   */\n  dup3\n    /* \"#utility.yul\":8258:8269   */\n  sload\n    /* \"#utility.yul\":8232:8270   */\n  tag_31\n  jump\t// in\ntag_149:\n    /* \"#utility.yul\":8317:8384   */\n  tag_150\n    /* \"#utility.yul\":8377:8383   */\n  dup3\n    /* \"#utility.yul\":8369:8375   */\n  dup3\n    /* \"#utility.yul\":8363:8367   */\n  dup6\n    /* \"#utility.yul\":8317:8384   */\n  tag_43\n  jump\t// in\ntag_150:\n    /* \"#utility.yul\":8411:8412   */\n  0x00\n    /* \"#utility.yul\":8435:8439   */\n  0x20\n    /* \"#utility.yul\":8422:8439   */\n  swap1\n  pop\n    /* \"#utility.yul\":8467:8469   */\n  0x1f\n    /* \"#utility.yul\":8459:8465   */\n  dup4\n    /* \"#utility.yul\":8456:8470   */\n  gt\n    /* \"#utility.yul\":8484:8485   */\n  0x01\n    /* \"#utility.yul\":8479:9097   */\n  dup2\n  eq\n  tag_152\n  jumpi\n    /* \"#utility.yul\":9141:9142   */\n  0x00\n    /* \"#utility.yul\":9158:9164   */\n  dup5\n    /* \"#utility.yul\":9155:9232   */\n  iszero\n  tag_153\n  jumpi\n    /* \"#utility.yul\":9207:9216   */\n  dup3\n    /* \"#utility.yul\":9202:9205   */\n  dup8\n    /* \"#utility.yul\":9198:9217   */\n  add\n    /* \"#utility.yul\":9192:9218   */\n  mload\n    /* \"#utility.yul\":9183:9218   */\n  swap1\n  pop\n    /* \"#utility.yul\":9155:9232   */\ntag_153:\n    /* \"#utility.yul\":9258:9325   */\n  tag_154\n    /* \"#utility.yul\":9318:9324   */\n  dup6\n    /* \"#utility.yul\":9311:9316   */\n  dup3\n    /* \"#utility.yul\":9258:9325   */\n  tag_46\n  jump\t// in\ntag_154:\n    /* \"#utility.yul\":9252:9256   */\n  dup7\n    /* \"#utility.yul\":9245:9326   */\n  sstore\n    /* \"#utility.yul\":9114:9336   */\n  pop\n    /* \"#utility.yul\":8449:9336   */\n  jump(tag_151)\n    /* \"#utility.yul\":8479:9097   */\ntag_152:\n    /* \"#utility.yul\":8531:8535   */\n  0x1f\n    /* \"#utility.yul\":8527:8536   */\n  not\n    /* \"#utility.yul\":8519:8525   */\n  dup5\n    /* \"#utility.yul\":8515:8537   */\n  and\n    /* \"#utility.yul\":8565:8602   */\n  tag_155\n    /* \"#utility.yul\":8597:8601   */\n  dup7\n    /* \"#utility.yul\":8565:8602   */\n  tag_32\n  jump\t// in\ntag_155:\n    /* \"#utility.yul\":8624:8625   */\n  0x00\n    /* \"#utility.yul\":8638:8846   */\ntag_156:\n    /* \"#utility.yul\":8652:8659   */\n  dup3\n    /* \"#utility.yul\":8649:8650   */\n  dup2\n    /* \"#utility.yul\":8646:8660   */\n  lt\n    /* \"#utility.yul\":8638:8846   */\n  iszero\n  tag_158\n  jumpi\n    /* \"#utility.yul\":8731:8740   */\n  dup5\n    /* \"#utility.yul\":8726:8729   */\n  dup10\n    /* \"#utility.yul\":8722:8741   */\n  add\n    /* \"#utility.yul\":8716:8742   */\n  mload\n    /* \"#utility.yul\":8708:8714   */\n  dup3\n    /* \"#utility.yul\":8701:8743   */\n  sstore\n    /* \"#utility.yul\":8782:8783   */\n  0x01\n    /* \"#utility.yul\":8774:8780   */\n  dup3\n    /* \"#utility.yul\":8770:8784   */\n  add\n    /* \"#utility.yul\":8760:8784   */\n  swap2\n  pop\n    /* \"#utility.yul\":8829:8831   */\n  0x20\n    /* \"#utility.yul\":8818:8827   */\n  dup6\n    /* \"#utility.yul\":8814:8832   */\n  add\n    /* \"#utility.yul\":8801:8832   */\n  swap5\n  pop\n    /* \"#utility.yul\":8675:8679   */\n  0x20\n    /* \"#utility.yul\":8672:8673   */\n  dup2\n    /* \"#utility.yul\":8668:8680   */\n  add\n    /* \"#utility.yul\":8663:8680   */\n  swap1\n  pop\n    /* \"#utility.yul\":8638:8846   */\n  jump(tag_156)\ntag_158:\n    /* \"#utility.yul\":8874:8880   */\n  dup7\n    /* \"#utility.yul\":8865:8872   */\n  dup4\n    /* \"#utility.yul\":8862:8881   */\n  lt\n    /* \"#utility.yul\":8859:9038   */\n  iszero\n  tag_159\n  jumpi\n    /* \"#utility.yul\":8932:8941   */\n  dup5\n    /* \"#utility.yul\":8927:8930   */\n  dup10\n    /* \"#utility.yul\":8923:8942   */\n  add\n    /* \"#utility.yul\":8917:8943   */\n  mload\n    /* \"#utility.yul\":8975:9023   */\n  tag_160\n    /* \"#utility.yul\":9017:9021   */\n  0x1f\n    /* \"#utility.yul\":9009:9015   */\n  dup10\n    /* \"#utility.yul\":9005:9022   */\n  and\n    /* \"#utility.yul\":8994:9003   */\n  dup3\n    /* \"#utility.yul\":8975:9023   */\n  tag_45\n  jump\t// in\ntag_160:\n    /* \"#utility.yul\":8967:8973   */\n  dup4\n    /* \"#utility.yul\":8960:9024   */\n  sstore\n    /* \"#utility.yul\":8882:9038   */\n  pop\n    /* \"#utility.yul\":8859:9038   */\ntag_159:\n    /* \"#utility.yul\":9084:9085   */\n  0x01\n    /* \"#utility.yul\":9080:9081   */\n  0x02\n    /* \"#utility.yul\":9072:9078   */\n  dup9\n    /* \"#utility.yul\":9068:9082   */\n  mul\n    /* \"#utility.yul\":9064:9086   */\n  add\n    /* \"#utility.yul\":9058:9062   */\n  dup9\n    /* \"#utility.yul\":9051:9087   */\n  sstore\n    /* \"#utility.yul\":8486:9097   */\n  pop\n  pop\n  pop\n    /* \"#utility.yul\":8449:9336   */\ntag_151:\n  pop\n    /* \"#utility.yul\":8039:9342   */\n  pop\n  pop\n  pop\n    /* \"#utility.yul\":7947:9342   */\n  pop\n  pop\n  jump\t// out\n    /* \"Campaign.sol\":843:3054  contract Campaign {... */\ntag_8:\n  dataSize(sub_0)\n  dup1\n  dataOffset(sub_0)\n  0x00\n  codecopy\n  0x00\n  return\nstop\n\nsub_0: assembly {\n        /* \"Campaign.sol\":843:3054  contract Campaign {... */\n      mstore(0x40, 0x80)\n      jumpi(tag_1, lt(calldatasize, 0x04))\n      shr(0xe0, calldataload(0x00))\n      dup1\n      0x82fde093\n      gt\n      tag_14\n      jumpi\n      dup1\n      0x82fde093\n      eq\n      tag_8\n      jumpi\n      dup1\n      0x8a9cfd55\n      eq\n      tag_9\n      jumpi\n      dup1\n      0x937e09b1\n      eq\n      tag_10\n      jumpi\n      dup1\n      0xd7bb99ba\n      eq\n      tag_11\n      jumpi\n      dup1\n      0xd7d1bbdb\n      eq\n      tag_12\n      jumpi\n      dup1\n      0xfed4416a\n      eq\n      tag_13\n      jumpi\n      jump(tag_1)\n    tag_14:\n      dup1\n      0x03441006\n      eq\n      tag_2\n      jumpi\n      dup1\n      0x0a144391\n      eq\n      tag_3\n      jumpi\n      dup1\n      0x3410452a\n      eq\n      tag_4\n      jumpi\n      dup1\n      0x4051ddac\n      eq\n      tag_5\n      jumpi\n      dup1\n      0x481c6a75\n      eq\n      tag_6\n      jumpi\n      dup1\n      0x81d12c58\n      eq\n      tag_7\n      jumpi\n    tag_1:\n      0x00\n      dup1\n      revert\n        /* \"Campaign.sol\":2331:2638  function finalizeRequest(uint index) public restricted {... */\n    tag_2:\n      callvalue\n      dup1\n      iszero\n      tag_15\n      jumpi\n      0x00\n      dup1\n      revert\n    tag_15:\n      pop\n      tag_16\n      0x04\n      dup1\n      calldatasize\n      sub\n      dup2\n      add\n      swap1\n      tag_17\n      swap2\n      swap1\n      tag_18\n      jump\t// in\n    tag_17:\n      tag_19\n      jump\t// in\n    tag_16:\n      stop\n        /* \"Campaign.sol\":1192:1233  mapping(address => bool) public approvers */\n    tag_3:\n      callvalue\n      dup1\n      iszero\n      tag_20\n      jumpi\n      0x00\n      dup1\n      revert\n    tag_20:\n      pop\n      tag_21\n      0x04\n      dup1\n      calldatasize\n      sub\n      dup2\n      add\n      swap1\n      tag_22\n      swap2\n      swap1\n      tag_23\n      jump\t// in\n    tag_22:\n      tag_24\n      jump\t// in\n    tag_21:\n      mload(0x40)\n      tag_25\n      swap2\n      swap1\n      tag_26\n      jump\t// in\n    tag_25:\n      mload(0x40)\n      dup1\n      swap2\n      sub\n      swap1\n      return\n        /* \"Campaign.sol\":2958:3052  function getRequestsCount() public view returns (uint) {... */\n    tag_4:\n      callvalue\n      dup1\n      iszero\n      tag_27\n      jumpi\n      0x00\n      dup1\n      revert\n    tag_27:\n      pop\n      tag_28\n      tag_29\n      jump\t// in\n    tag_28:\n      mload(0x40)\n      tag_30\n      swap2\n      swap1\n      tag_31\n      jump\t// in\n    tag_30:\n      mload(0x40)\n      dup1\n      swap2\n      sub\n      swap1\n      return\n        /* \"Campaign.sol\":2648:2948  function getSummary() public view returns (... */\n    tag_5:\n      callvalue\n      dup1\n      iszero\n      tag_32\n      jumpi\n      0x00\n      dup1\n      revert\n    tag_32:\n      pop\n      tag_33\n      tag_34\n      jump\t// in\n    tag_33:\n      mload(0x40)\n      tag_35\n      swap7\n      swap6\n      swap5\n      swap4\n      swap3\n      swap2\n      swap1\n      tag_36\n      jump\t// in\n    tag_35:\n      mload(0x40)\n      dup1\n      swap2\n      sub\n      swap1\n      return\n        /* \"Campaign.sol\":1096:1118  address public manager */\n    tag_6:\n      callvalue\n      dup1\n      iszero\n      tag_37\n      jumpi\n      0x00\n      dup1\n      revert\n    tag_37:\n      pop\n      tag_38\n      tag_39\n      jump\t// in\n    tag_38:\n      mload(0x40)\n      tag_40\n      swap2\n      swap1\n      tag_41\n      jump\t// in\n    tag_40:\n      mload(0x40)\n      dup1\n      swap2\n      sub\n      swap1\n      return\n        /* \"Campaign.sol\":1065:1090  Request[] public requests */\n    tag_7:\n      callvalue\n      dup1\n      iszero\n      tag_42\n      jumpi\n      0x00\n      dup1\n      revert\n    tag_42:\n      pop\n      tag_43\n      0x04\n      dup1\n      calldatasize\n      sub\n      dup2\n      add\n      swap1\n      tag_44\n      swap2\n      swap1\n      tag_18\n      jump\t// in\n    tag_44:\n      tag_45\n      jump\t// in\n    tag_43:\n      mload(0x40)\n      tag_46\n      swap6\n      swap5\n      swap4\n      swap3\n      swap2\n      swap1\n      tag_47\n      jump\t// in\n    tag_46:\n      mload(0x40)\n      dup1\n      swap2\n      sub\n      swap1\n      return\n        /* \"Campaign.sol\":1239:1265  uint public approversCount */\n    tag_8:\n      callvalue\n      dup1\n      iszero\n      tag_48\n      jumpi\n      0x00\n      dup1\n      revert\n    tag_48:\n      pop\n      tag_49\n      tag_50\n      jump\t// in\n    tag_49:\n      mload(0x40)\n      tag_51\n      swap2\n      swap1\n      tag_31\n      jump\t// in\n    tag_51:\n      mload(0x40)\n      dup1\n      swap2\n      sub\n      swap1\n      return\n        /* \"Campaign.sol\":1694:2048  function createRequest(string memory description, uint value, address recipient) public restricted {... */\n    tag_9:\n      callvalue\n      dup1\n      iszero\n      tag_52\n      jumpi\n      0x00\n      dup1\n      revert\n    tag_52:\n      pop\n      tag_53\n      0x04\n      dup1\n      calldatasize\n      sub\n      dup2\n      add\n      swap1\n      tag_54\n      swap2\n      swap1\n      tag_55\n      jump\t// in\n    tag_54:\n      tag_56\n      jump\t// in\n    tag_53:\n      stop\n        /* \"Campaign.sol\":1155:1186  uint public minimumContribution */\n    tag_10:\n      callvalue\n      dup1\n      iszero\n      tag_57\n      jumpi\n      0x00\n      dup1\n      revert\n    tag_57:\n      pop\n      tag_58\n      tag_59\n      jump\t// in\n    tag_58:\n      mload(0x40)\n      tag_60\n      swap2\n      swap1\n      tag_31\n      jump\t// in\n    tag_60:\n      mload(0x40)\n      dup1\n      swap2\n      sub\n      swap1\n      return\n        /* \"Campaign.sol\":1529:1688  function contribute() public payable {... */\n    tag_11:\n      tag_61\n      tag_62\n      jump\t// in\n    tag_61:\n      stop\n        /* \"Campaign.sol\":2054:2325  function approveRequest(uint index) public {... */\n    tag_12:\n      callvalue\n      dup1\n      iszero\n      tag_63\n      jumpi\n      0x00\n      dup1\n      revert\n    tag_63:\n      pop\n      tag_64\n      0x04\n      dup1\n      calldatasize\n      sub\n      dup2\n      add\n      swap1\n      tag_65\n      swap2\n      swap1\n      tag_18\n      jump\t// in\n    tag_65:\n      tag_66\n      jump\t// in\n    tag_64:\n      stop\n        /* \"Campaign.sol\":1124:1149  string public managerName */\n    tag_13:\n      callvalue\n      dup1\n      iszero\n      tag_67\n      jumpi\n      0x00\n      dup1\n      revert\n    tag_67:\n      pop\n      tag_68\n      tag_69\n      jump\t// in\n    tag_68:\n      mload(0x40)\n      tag_70\n      swap2\n      swap1\n      tag_71\n      jump\t// in\n    tag_70:\n      mload(0x40)\n      dup1\n      swap2\n      sub\n      swap1\n      return\n        /* \"Campaign.sol\":2331:2638  function finalizeRequest(uint index) public restricted {... */\n    tag_19:\n        /* \"Campaign.sol\":1326:1333  manager */\n      0x01\n      0x00\n      swap1\n      sload\n      swap1\n      0x0100\n      exp\n      swap1\n      div\n      0xffffffffffffffffffffffffffffffffffffffff\n      and\n        /* \"Campaign.sol\":1312:1333  msg.sender == manager */\n      0xffffffffffffffffffffffffffffffffffffffff\n      and\n        /* \"Campaign.sol\":1312:1322  msg.sender */\n      caller\n        /* \"Campaign.sol\":1312:1333  msg.sender == manager */\n      0xffffffffffffffffffffffffffffffffffffffff\n      and\n      eq\n        /* \"Campaign.sol\":1304:1334  require(msg.sender == manager) */\n      tag_73\n      jumpi\n      0x00\n      dup1\n      revert\n    tag_73:\n        /* \"Campaign.sol\":2396:2419  Request storage request */\n      0x00\n        /* \"Campaign.sol\":2422:2430  requests */\n      dup1\n        /* \"Campaign.sol\":2431:2436  index */\n      dup3\n        /* \"Campaign.sol\":2422:2437  requests[index] */\n      dup2\n      sload\n      dup2\n      lt\n      tag_75\n      jumpi\n      tag_76\n      tag_77\n      jump\t// in\n    tag_76:\n    tag_75:\n      swap1\n      0x00\n      mstore\n      keccak256(0x00, 0x20)\n      swap1\n      0x05\n      mul\n      add\n        /* \"Campaign.sol\":2396:2437  Request storage request = requests[index] */\n      swap1\n      pop\n        /* \"Campaign.sol\":2498:2499  2 */\n      0x02\n        /* \"Campaign.sol\":2481:2495  approversCount */\n      sload(0x05)\n        /* \"Campaign.sol\":2481:2499  approversCount / 2 */\n      tag_79\n      swap2\n      swap1\n      tag_80\n      jump\t// in\n    tag_79:\n        /* \"Campaign.sol\":2456:2463  request */\n      dup2\n        /* \"Campaign.sol\":2456:2477  request.approvalCount */\n      0x03\n      add\n      sload\n        /* \"Campaign.sol\":2456:2500  request.approvalCount > (approversCount / 2) */\n      gt\n        /* \"Campaign.sol\":2448:2501  require(request.approvalCount > (approversCount / 2)) */\n      tag_81\n      jumpi\n      0x00\n      dup1\n      revert\n    tag_81:\n        /* \"Campaign.sol\":2520:2527  request */\n      dup1\n        /* \"Campaign.sol\":2520:2536  request.complete */\n      0x02\n      add\n      0x14\n      swap1\n      sload\n      swap1\n      0x0100\n      exp\n      swap1\n      div\n      0xff\n      and\n        /* \"Campaign.sol\":2519:2536  !request.complete */\n      iszero\n        /* \"Campaign.sol\":2511:2537  require(!request.complete) */\n      tag_82\n      jumpi\n      0x00\n      dup1\n      revert\n    tag_82:\n        /* \"Campaign.sol\":2556:2563  request */\n      dup1\n        /* \"Campaign.sol\":2556:2573  request.recipient */\n      0x02\n      add\n      0x00\n      swap1\n      sload\n      swap1\n      0x0100\n      exp\n      swap1\n      div\n      0xffffffffffffffffffffffffffffffffffffffff\n      and\n        /* \"Campaign.sol\":2548:2583  payable(request.recipient).transfer */\n      0xffffffffffffffffffffffffffffffffffffffff\n      and\n        /* \"Campaign.sol\":2548:2598  payable(request.recipient).transfer(request.value) */\n      0x08fc\n        /* \"Campaign.sol\":2584:2591  request */\n      dup3\n        /* \"Campaign.sol\":2584:2597  request.value */\n      0x01\n      add\n      sload\n        /* \"Campaign.sol\":2548:2598  payable(request.recipient).transfer(request.value) */\n      swap1\n      dup2\n      iszero\n      mul\n      swap1\n      mload(0x40)\n      0x00\n      mload(0x40)\n      dup1\n      dup4\n      sub\n      dup2\n      dup6\n      dup9\n      dup9\n      call\n      swap4\n      pop\n      pop\n      pop\n      pop\n      iszero\n      dup1\n      iszero\n      tag_84\n      jumpi\n      returndatasize\n      0x00\n      dup1\n      returndatacopy\n      revert(0x00, returndatasize)\n    tag_84:\n      pop\n        /* \"Campaign.sol\":2627:2631  true */\n      0x01\n        /* \"Campaign.sol\":2608:2615  request */\n      dup2\n        /* \"Campaign.sol\":2608:2624  request.complete */\n      0x02\n      add\n      0x14\n        /* \"Campaign.sol\":2608:2631  request.complete = true */\n      0x0100\n      exp\n      dup2\n      sload\n      dup2\n      0xff\n      mul\n      not\n      and\n      swap1\n      dup4\n      iszero\n      iszero\n      mul\n      or\n      swap1\n      sstore\n      pop\n        /* \"Campaign.sol\":2386:2638  {... */\n      pop\n        /* \"Campaign.sol\":2331:2638  function finalizeRequest(uint index) public restricted {... */\n      pop\n      jump\t// out\n        /* \"Campaign.sol\":1192:1233  mapping(address => bool) public approvers */\n    tag_24:\n      mstore(0x20, 0x04)\n      dup1\n      0x00\n      mstore\n      keccak256(0x00, 0x40)\n      0x00\n      swap2\n      pop\n      sload\n      swap1\n      0x0100\n      exp\n      swap1\n      div\n      0xff\n      and\n      dup2\n      jump\t// out\n        /* \"Campaign.sol\":2958:3052  function getRequestsCount() public view returns (uint) {... */\n    tag_29:\n        /* \"Campaign.sol\":3007:3011  uint */\n      0x00\n        /* \"Campaign.sol\":3030:3038  requests */\n      dup1\n        /* \"Campaign.sol\":3030:3045  requests.length */\n      dup1\n      sload\n      swap1\n      pop\n        /* \"Campaign.sol\":3023:3045  return requests.length */\n      swap1\n      pop\n        /* \"Campaign.sol\":2958:3052  function getRequestsCount() public view returns (uint) {... */\n      swap1\n      jump\t// out\n        /* \"Campaign.sol\":2648:2948  function getSummary() public view returns (... */\n    tag_34:\n        /* \"Campaign.sol\":2698:2711  string memory */\n      0x60\n        /* \"Campaign.sol\":2713:2717  uint */\n      0x00\n        /* \"Campaign.sol\":2719:2723  uint */\n      dup1\n        /* \"Campaign.sol\":2725:2729  uint */\n      0x00\n        /* \"Campaign.sol\":2731:2735  uint */\n      dup1\n        /* \"Campaign.sol\":2737:2744  address */\n      0x00\n        /* \"Campaign.sol\":2782:2793  managerName */\n      0x02\n        /* \"Campaign.sol\":2807:2826  minimumContribution */\n      sload(0x03)\n        /* \"Campaign.sol\":2838:2859  address(this).balance */\n      selfbalance\n        /* \"Campaign.sol\":2871:2879  requests */\n      0x00\n        /* \"Campaign.sol\":2871:2886  requests.length */\n      dup1\n      sload\n      swap1\n      pop\n        /* \"Campaign.sol\":2898:2912  approversCount */\n      sload(0x05)\n        /* \"Campaign.sol\":2924:2931  manager */\n      0x01\n      0x00\n      swap1\n      sload\n      swap1\n      0x0100\n      exp\n      swap1\n      div\n      0xffffffffffffffffffffffffffffffffffffffff\n      and\n        /* \"Campaign.sol\":2763:2941  return (... */\n      dup6\n      dup1\n      sload\n      tag_87\n      swap1\n      tag_88\n      jump\t// in\n    tag_87:\n      dup1\n      0x1f\n      add\n      0x20\n      dup1\n      swap2\n      div\n      mul\n      0x20\n      add\n      mload(0x40)\n      swap1\n      dup2\n      add\n      0x40\n      mstore\n      dup1\n      swap3\n      swap2\n      swap1\n      dup2\n      dup2\n      mstore\n      0x20\n      add\n      dup3\n      dup1\n      sload\n      tag_89\n      swap1\n      tag_88\n      jump\t// in\n    tag_89:\n      dup1\n      iszero\n      tag_90\n      jumpi\n      dup1\n      0x1f\n      lt\n      tag_91\n      jumpi\n      0x0100\n      dup1\n      dup4\n      sload\n      div\n      mul\n      dup4\n      mstore\n      swap2\n      0x20\n      add\n      swap2\n      jump(tag_90)\n    tag_91:\n      dup3\n      add\n      swap2\n      swap1\n      0x00\n      mstore\n      keccak256(0x00, 0x20)\n      swap1\n    tag_92:\n      dup2\n      sload\n      dup2\n      mstore\n      swap1\n      0x01\n      add\n      swap1\n      0x20\n      add\n      dup1\n      dup4\n      gt\n      tag_92\n      jumpi\n      dup3\n      swap1\n      sub\n      0x1f\n      and\n      dup3\n      add\n      swap2\n    tag_90:\n      pop\n      pop\n      pop\n      pop\n      pop\n      swap6\n      pop\n      swap6\n      pop\n      swap6\n      pop\n      swap6\n      pop\n      swap6\n      pop\n      swap6\n      pop\n      swap6\n      pop\n        /* \"Campaign.sol\":2648:2948  function getSummary() public view returns (... */\n      swap1\n      swap2\n      swap3\n      swap4\n      swap5\n      swap6\n      jump\t// out\n        /* \"Campaign.sol\":1096:1118  address public manager */\n    tag_39:\n      0x01\n      0x00\n      swap1\n      sload\n      swap1\n      0x0100\n      exp\n      swap1\n      div\n      0xffffffffffffffffffffffffffffffffffffffff\n      and\n      dup2\n      jump\t// out\n        /* \"Campaign.sol\":1065:1090  Request[] public requests */\n    tag_45:\n      0x00\n      dup2\n      dup2\n      sload\n      dup2\n      lt\n      tag_93\n      jumpi\n      0x00\n      dup1\n      revert\n    tag_93:\n      swap1\n      0x00\n      mstore\n      keccak256(0x00, 0x20)\n      swap1\n      0x05\n      mul\n      add\n      0x00\n      swap2\n      pop\n      swap1\n      pop\n      dup1\n      0x00\n      add\n      dup1\n      sload\n      tag_95\n      swap1\n      tag_88\n      jump\t// in\n    tag_95:\n      dup1\n      0x1f\n      add\n      0x20\n      dup1\n      swap2\n      div\n      mul\n      0x20\n      add\n      mload(0x40)\n      swap1\n      dup2\n      add\n      0x40\n      mstore\n      dup1\n      swap3\n      swap2\n      swap1\n      dup2\n      dup2\n      mstore\n      0x20\n      add\n      dup3\n      dup1\n      sload\n      tag_96\n      swap1\n      tag_88\n      jump\t// in\n    tag_96:\n      dup1\n      iszero\n      tag_97\n      jumpi\n      dup1\n      0x1f\n      lt\n      tag_98\n      jumpi\n      0x0100\n      dup1\n      dup4\n      sload\n      div\n      mul\n      dup4\n      mstore\n      swap2\n      0x20\n      add\n      swap2\n      jump(tag_97)\n    tag_98:\n      dup3\n      add\n      swap2\n      swap1\n      0x00\n      mstore\n      keccak256(0x00, 0x20)\n      swap1\n    tag_99:\n      dup2\n      sload\n      dup2\n      mstore\n      swap1\n      0x01\n      add\n      swap1\n      0x20\n      add\n      dup1\n      dup4\n      gt\n      tag_99\n      jumpi\n      dup3\n      swap1\n      sub\n      0x1f\n      and\n      dup3\n      add\n      swap2\n    tag_97:\n      pop\n      pop\n      pop\n      pop\n      pop\n      swap1\n      dup1\n      0x01\n      add\n      sload\n      swap1\n      dup1\n      0x02\n      add\n      0x00\n      swap1\n      sload\n      swap1\n      0x0100\n      exp\n      swap1\n      div\n      0xffffffffffffffffffffffffffffffffffffffff\n      and\n      swap1\n      dup1\n      0x02\n      add\n      0x14\n      swap1\n      sload\n      swap1\n      0x0100\n      exp\n      swap1\n      div\n      0xff\n      and\n      swap1\n      dup1\n      0x03\n      add\n      sload\n      swap1\n      pop\n      dup6\n      jump\t// out\n        /* \"Campaign.sol\":1239:1265  uint public approversCount */\n    tag_50:\n      sload(0x05)\n      dup2\n      jump\t// out\n        /* \"Campaign.sol\":1694:2048  function createRequest(string memory description, uint value, address recipient) public restricted {... */\n    tag_56:\n        /* \"Campaign.sol\":1326:1333  manager */\n      0x01\n      0x00\n      swap1\n      sload\n      swap1\n      0x0100\n      exp\n      swap1\n      div\n      0xffffffffffffffffffffffffffffffffffffffff\n      and\n        /* \"Campaign.sol\":1312:1333  msg.sender == manager */\n      0xffffffffffffffffffffffffffffffffffffffff\n      and\n        /* \"Campaign.sol\":1312:1322  msg.sender */\n      caller\n        /* \"Campaign.sol\":1312:1333  msg.sender == manager */\n      0xffffffffffffffffffffffffffffffffffffffff\n      and\n      eq\n        /* \"Campaign.sol\":1304:1334  require(msg.sender == manager) */\n      tag_101\n      jumpi\n      0x00\n      dup1\n      revert\n    tag_101:\n        /* \"Campaign.sol\":1803:1829  Request storage newRequest */\n      0x00\n        /* \"Campaign.sol\":1832:1840  requests */\n      dup1\n        /* \"Campaign.sol\":1832:1847  requests.push() */\n      0x01\n      dup2\n      0x01\n      dup2\n      sload\n      add\n      dup1\n      dup3\n      sstore\n      dup1\n      swap2\n      pop\n      pop\n      sub\n      swap1\n      0x00\n      mstore\n      keccak256(0x00, 0x20)\n      swap1\n      0x05\n      mul\n      add\n        /* \"Campaign.sol\":1803:1847  Request storage newRequest = requests.push() */\n      swap1\n      pop\n        /* \"Campaign.sol\":1883:1894  description */\n      dup4\n        /* \"Campaign.sol\":1858:1868  newRequest */\n      dup2\n        /* \"Campaign.sol\":1858:1880  newRequest.description */\n      0x00\n      add\n        /* \"Campaign.sol\":1858:1894  newRequest.description = description */\n      swap1\n      dup2\n      tag_104\n      swap2\n      swap1\n      tag_105\n      jump\t// in\n    tag_104:\n      pop\n        /* \"Campaign.sol\":1922:1927  value */\n      dup3\n        /* \"Campaign.sol\":1904:1914  newRequest */\n      dup2\n        /* \"Campaign.sol\":1904:1920  newRequest.value */\n      0x01\n      add\n        /* \"Campaign.sol\":1904:1927  newRequest.value= value */\n      dup2\n      swap1\n      sstore\n      pop\n        /* \"Campaign.sol\":1959:1968  recipient */\n      dup2\n        /* \"Campaign.sol\":1937:1947  newRequest */\n      dup2\n        /* \"Campaign.sol\":1937:1957  newRequest.recipient */\n      0x02\n      add\n      0x00\n        /* \"Campaign.sol\":1937:1968  newRequest.recipient= recipient */\n      0x0100\n      exp\n      dup2\n      sload\n      dup2\n      0xffffffffffffffffffffffffffffffffffffffff\n      mul\n      not\n      and\n      swap1\n      dup4\n      0xffffffffffffffffffffffffffffffffffffffff\n      and\n      mul\n      or\n      swap1\n      sstore\n      pop\n        /* \"Campaign.sol\":1999:2004  false */\n      0x00\n        /* \"Campaign.sol\":1978:1988  newRequest */\n      dup2\n        /* \"Campaign.sol\":1978:1997  newRequest.complete */\n      0x02\n      add\n      0x14\n        /* \"Campaign.sol\":1978:2004  newRequest.complete= false */\n      0x0100\n      exp\n      dup2\n      sload\n      dup2\n      0xff\n      mul\n      not\n      and\n      swap1\n      dup4\n      iszero\n      iszero\n      mul\n      or\n      swap1\n      sstore\n      pop\n        /* \"Campaign.sol\":2040:2041  0 */\n      0x00\n        /* \"Campaign.sol\":2014:2024  newRequest */\n      dup2\n        /* \"Campaign.sol\":2014:2038  newRequest.approvalCount */\n      0x03\n      add\n        /* \"Campaign.sol\":2014:2041  newRequest.approvalCount= 0 */\n      dup2\n      swap1\n      sstore\n      pop\n        /* \"Campaign.sol\":1793:2048  {... */\n      pop\n        /* \"Campaign.sol\":1694:2048  function createRequest(string memory description, uint value, address recipient) public restricted {... */\n      pop\n      pop\n      pop\n      jump\t// out\n        /* \"Campaign.sol\":1155:1186  uint public minimumContribution */\n    tag_59:\n      sload(0x03)\n      dup2\n      jump\t// out\n        /* \"Campaign.sol\":1529:1688  function contribute() public payable {... */\n    tag_62:\n        /* \"Campaign.sol\":1596:1615  minimumContribution */\n      sload(0x03)\n        /* \"Campaign.sol\":1584:1593  msg.value */\n      callvalue\n        /* \"Campaign.sol\":1584:1615  msg.value > minimumContribution */\n      gt\n        /* \"Campaign.sol\":1576:1616  require(msg.value > minimumContribution) */\n      tag_107\n      jumpi\n      0x00\n      dup1\n      revert\n    tag_107:\n        /* \"Campaign.sol\":1651:1655  true */\n      0x01\n        /* \"Campaign.sol\":1627:1636  approvers */\n      0x04\n        /* \"Campaign.sol\":1627:1648  approvers[msg.sender] */\n      0x00\n        /* \"Campaign.sol\":1637:1647  msg.sender */\n      caller\n        /* \"Campaign.sol\":1627:1648  approvers[msg.sender] */\n      0xffffffffffffffffffffffffffffffffffffffff\n      and\n      0xffffffffffffffffffffffffffffffffffffffff\n      and\n      dup2\n      mstore\n      0x20\n      add\n      swap1\n      dup2\n      mstore\n      0x20\n      add\n      0x00\n      keccak256\n      0x00\n        /* \"Campaign.sol\":1627:1655  approvers[msg.sender] = true */\n      0x0100\n      exp\n      dup2\n      sload\n      dup2\n      0xff\n      mul\n      not\n      and\n      swap1\n      dup4\n      iszero\n      iszero\n      mul\n      or\n      swap1\n      sstore\n      pop\n        /* \"Campaign.sol\":1665:1679  approversCount */\n      0x05\n      0x00\n        /* \"Campaign.sol\":1665:1681  approversCount++ */\n      dup2\n      sload\n      dup1\n      swap3\n      swap2\n      swap1\n      tag_108\n      swap1\n      tag_109\n      jump\t// in\n    tag_108:\n      swap2\n      swap1\n      pop\n      sstore\n      pop\n        /* \"Campaign.sol\":1529:1688  function contribute() public payable {... */\n      jump\t// out\n        /* \"Campaign.sol\":2054:2325  function approveRequest(uint index) public {... */\n    tag_66:\n        /* \"Campaign.sol\":2107:2130  Request storage request */\n      0x00\n        /* \"Campaign.sol\":2133:2141  requests */\n      dup1\n        /* \"Campaign.sol\":2142:2147  index */\n      dup3\n        /* \"Campaign.sol\":2133:2148  requests[index] */\n      dup2\n      sload\n      dup2\n      lt\n      tag_111\n      jumpi\n      tag_112\n      tag_77\n      jump\t// in\n    tag_112:\n    tag_111:\n      swap1\n      0x00\n      mstore\n      keccak256(0x00, 0x20)\n      swap1\n      0x05\n      mul\n      add\n        /* \"Campaign.sol\":2107:2148  Request storage request = requests[index] */\n      swap1\n      pop\n        /* \"Campaign.sol\":2167:2176  approvers */\n      0x04\n        /* \"Campaign.sol\":2167:2188  approvers[msg.sender] */\n      0x00\n        /* \"Campaign.sol\":2177:2187  msg.sender */\n      caller\n        /* \"Campaign.sol\":2167:2188  approvers[msg.sender] */\n      0xffffffffffffffffffffffffffffffffffffffff\n      and\n      0xffffffffffffffffffffffffffffffffffffffff\n      and\n      dup2\n      mstore\n      0x20\n      add\n      swap1\n      dup2\n      mstore\n      0x20\n      add\n      0x00\n      keccak256\n      0x00\n      swap1\n      sload\n      swap1\n      0x0100\n      exp\n      swap1\n      div\n      0xff\n      and\n        /* \"Campaign.sol\":2159:2189  require(approvers[msg.sender]) */\n      tag_114\n      jumpi\n      0x00\n      dup1\n      revert\n    tag_114:\n        /* \"Campaign.sol\":2208:2215  request */\n      dup1\n        /* \"Campaign.sol\":2208:2225  request.approvals */\n      0x04\n      add\n        /* \"Campaign.sol\":2208:2237  request.approvals[msg.sender] */\n      0x00\n        /* \"Campaign.sol\":2226:2236  msg.sender */\n      caller\n        /* \"Campaign.sol\":2208:2237  request.approvals[msg.sender] */\n      0xffffffffffffffffffffffffffffffffffffffff\n      and\n      0xffffffffffffffffffffffffffffffffffffffff\n      and\n      dup2\n      mstore\n      0x20\n      add\n      swap1\n      dup2\n      mstore\n      0x20\n      add\n      0x00\n      keccak256\n      0x00\n      swap1\n      sload\n      swap1\n      0x0100\n      exp\n      swap1\n      div\n      0xff\n      and\n        /* \"Campaign.sol\":2207:2237  !request.approvals[msg.sender] */\n      iszero\n        /* \"Campaign.sol\":2199:2238  require(!request.approvals[msg.sender]) */\n      tag_115\n      jumpi\n      0x00\n      dup1\n      revert\n    tag_115:\n        /* \"Campaign.sol\":2281:2285  true */\n      0x01\n        /* \"Campaign.sol\":2249:2256  request */\n      dup2\n        /* \"Campaign.sol\":2249:2266  request.approvals */\n      0x04\n      add\n        /* \"Campaign.sol\":2249:2278  request.approvals[msg.sender] */\n      0x00\n        /* \"Campaign.sol\":2267:2277  msg.sender */\n      caller\n        /* \"Campaign.sol\":2249:2278  request.approvals[msg.sender] */\n      0xffffffffffffffffffffffffffffffffffffffff\n      and\n      0xffffffffffffffffffffffffffffffffffffffff\n      and\n      dup2\n      mstore\n      0x20\n      add\n      swap1\n      dup2\n      mstore\n      0x20\n      add\n      0x00\n      keccak256\n      0x00\n        /* \"Campaign.sol\":2249:2285  request.approvals[msg.sender] = true */\n      0x0100\n      exp\n      dup2\n      sload\n      dup2\n      0xff\n      mul\n      not\n      and\n      swap1\n      dup4\n      iszero\n      iszero\n      mul\n      or\n      swap1\n      sstore\n      pop\n        /* \"Campaign.sol\":2295:2302  request */\n      dup1\n        /* \"Campaign.sol\":2295:2316  request.approvalCount */\n      0x03\n      add\n      0x00\n        /* \"Campaign.sol\":2295:2318  request.approvalCount++ */\n      dup2\n      sload\n      dup1\n      swap3\n      swap2\n      swap1\n      tag_116\n      swap1\n      tag_109\n      jump\t// in\n    tag_116:\n      swap2\n      swap1\n      pop\n      sstore\n      pop\n        /* \"Campaign.sol\":2097:2325  {... */\n      pop\n        /* \"Campaign.sol\":2054:2325  function approveRequest(uint index) public {... */\n      pop\n      jump\t// out\n        /* \"Campaign.sol\":1124:1149  string public managerName */\n    tag_69:\n      0x02\n      dup1\n      sload\n      tag_117\n      swap1\n      tag_88\n      jump\t// in\n    tag_117:\n      dup1\n      0x1f\n      add\n      0x20\n      dup1\n      swap2\n      div\n      mul\n      0x20\n      add\n      mload(0x40)\n      swap1\n      dup2\n      add\n      0x40\n      mstore\n      dup1\n      swap3\n      swap2\n      swap1\n      dup2\n      dup2\n      mstore\n      0x20\n      add\n      dup3\n      dup1\n      sload\n      tag_118\n      swap1\n      tag_88\n      jump\t// in\n    tag_118:\n      dup1\n      iszero\n      tag_119\n      jumpi\n      dup1\n      0x1f\n      lt\n      tag_120\n      jumpi\n      0x0100\n      dup1\n      dup4\n      sload\n      div\n      mul\n      dup4\n      mstore\n      swap2\n      0x20\n      add\n      swap2\n      jump(tag_119)\n    tag_120:\n      dup3\n      add\n      swap2\n      swap1\n      0x00\n      mstore\n      keccak256(0x00, 0x20)\n      swap1\n    tag_121:\n      dup2\n      sload\n      dup2\n      mstore\n      swap1\n      0x01\n      add\n      swap1\n      0x20\n      add\n      dup1\n      dup4\n      gt\n      tag_121\n      jumpi\n      dup3\n      swap1\n      sub\n      0x1f\n      and\n      dup3\n      add\n      swap2\n    tag_119:\n      pop\n      pop\n      pop\n      pop\n      pop\n      dup2\n      jump\t// out\n        /* \"#utility.yul\":7:82   */\n    tag_122:\n        /* \"#utility.yul\":40:46   */\n      0x00\n        /* \"#utility.yul\":73:75   */\n      0x40\n        /* \"#utility.yul\":67:76   */\n      mload\n        /* \"#utility.yul\":57:76   */\n      swap1\n      pop\n        /* \"#utility.yul\":7:82   */\n      swap1\n      jump\t// out\n        /* \"#utility.yul\":88:205   */\n    tag_123:\n        /* \"#utility.yul\":197:198   */\n      0x00\n        /* \"#utility.yul\":194:195   */\n      dup1\n        /* \"#utility.yul\":187:199   */\n      revert\n        /* \"#utility.yul\":211:328   */\n    tag_124:\n        /* \"#utility.yul\":320:321   */\n      0x00\n        /* \"#utility.yul\":317:318   */\n      dup1\n        /* \"#utility.yul\":310:322   */\n      revert\n        /* \"#utility.yul\":334:411   */\n    tag_125:\n        /* \"#utility.yul\":371:378   */\n      0x00\n        /* \"#utility.yul\":400:405   */\n      dup2\n        /* \"#utility.yul\":389:405   */\n      swap1\n      pop\n        /* \"#utility.yul\":334:411   */\n      swap2\n      swap1\n      pop\n      jump\t// out\n        /* \"#utility.yul\":417:539   */\n    tag_126:\n        /* \"#utility.yul\":490:514   */\n      tag_174\n        /* \"#utility.yul\":508:513   */\n      dup2\n        /* \"#utility.yul\":490:514   */\n      tag_125\n      jump\t// in\n    tag_174:\n        /* \"#utility.yul\":483:488   */\n      dup2\n        /* \"#utility.yul\":480:515   */\n      eq\n        /* \"#utility.yul\":470:533   */\n      tag_175\n      jumpi\n        /* \"#utility.yul\":529:530   */\n      0x00\n        /* \"#utility.yul\":526:527   */\n      dup1\n        /* \"#utility.yul\":519:531   */\n      revert\n        /* \"#utility.yul\":470:533   */\n    tag_175:\n        /* \"#utility.yul\":417:539   */\n      pop\n      jump\t// out\n        /* \"#utility.yul\":545:684   */\n    tag_127:\n        /* \"#utility.yul\":591:596   */\n      0x00\n        /* \"#utility.yul\":629:635   */\n      dup2\n        /* \"#utility.yul\":616:636   */\n      calldataload\n        /* \"#utility.yul\":607:636   */\n      swap1\n      pop\n        /* \"#utility.yul\":645:678   */\n      tag_177\n        /* \"#utility.yul\":672:677   */\n      dup2\n        /* \"#utility.yul\":645:678   */\n      tag_126\n      jump\t// in\n    tag_177:\n        /* \"#utility.yul\":545:684   */\n      swap3\n      swap2\n      pop\n      pop\n      jump\t// out\n        /* \"#utility.yul\":690:1019   */\n    tag_18:\n        /* \"#utility.yul\":749:755   */\n      0x00\n        /* \"#utility.yul\":798:800   */\n      0x20\n        /* \"#utility.yul\":786:795   */\n      dup3\n        /* \"#utility.yul\":777:784   */\n      dup5\n        /* \"#utility.yul\":773:796   */\n      sub\n        /* \"#utility.yul\":769:801   */\n      slt\n        /* \"#utility.yul\":766:885   */\n      iszero\n      tag_179\n      jumpi\n        /* \"#utility.yul\":804:883   */\n      tag_180\n      tag_123\n      jump\t// in\n    tag_180:\n        /* \"#utility.yul\":766:885   */\n    tag_179:\n        /* \"#utility.yul\":924:925   */\n      0x00\n        /* \"#utility.yul\":949:1002   */\n      tag_181\n        /* \"#utility.yul\":994:1001   */\n      dup5\n        /* \"#utility.yul\":985:991   */\n      dup3\n        /* \"#utility.yul\":974:983   */\n      dup6\n        /* \"#utility.yul\":970:992   */\n      add\n        /* \"#utility.yul\":949:1002   */\n      tag_127\n      jump\t// in\n    tag_181:\n        /* \"#utility.yul\":939:1002   */\n      swap2\n      pop\n        /* \"#utility.yul\":895:1012   */\n      pop\n        /* \"#utility.yul\":690:1019   */\n      swap3\n      swap2\n      pop\n      pop\n      jump\t// out\n        /* \"#utility.yul\":1025:1151   */\n    tag_128:\n        /* \"#utility.yul\":1062:1069   */\n      0x00\n        /* \"#utility.yul\":1102:1144   */\n      0xffffffffffffffffffffffffffffffffffffffff\n        /* \"#utility.yul\":1095:1100   */\n      dup3\n        /* \"#utility.yul\":1091:1145   */\n      and\n        /* \"#utility.yul\":1080:1145   */\n      swap1\n      pop\n        /* \"#utility.yul\":1025:1151   */\n      swap2\n      swap1\n      pop\n      jump\t// out\n        /* \"#utility.yul\":1157:1253   */\n    tag_129:\n        /* \"#utility.yul\":1194:1201   */\n      0x00\n        /* \"#utility.yul\":1223:1247   */\n      tag_184\n        /* \"#utility.yul\":1241:1246   */\n      dup3\n        /* \"#utility.yul\":1223:1247   */\n      tag_128\n      jump\t// in\n    tag_184:\n        /* \"#utility.yul\":1212:1247   */\n      swap1\n      pop\n        /* \"#utility.yul\":1157:1253   */\n      swap2\n      swap1\n      pop\n      jump\t// out\n        /* \"#utility.yul\":1259:1381   */\n    tag_130:\n        /* \"#utility.yul\":1332:1356   */\n      tag_186\n        /* \"#utility.yul\":1350:1355   */\n      dup2\n        /* \"#utility.yul\":1332:1356   */\n      tag_129\n      jump\t// in\n    tag_186:\n        /* \"#utility.yul\":1325:1330   */\n      dup2\n        /* \"#utility.yul\":1322:1357   */\n      eq\n        /* \"#utility.yul\":1312:1375   */\n      tag_187\n      jumpi\n        /* \"#utility.yul\":1371:1372   */\n      0x00\n        /* \"#utility.yul\":1368:1369   */\n      dup1\n        /* \"#utility.yul\":1361:1373   */\n      revert\n        /* \"#utility.yul\":1312:1375   */\n    tag_187:\n        /* \"#utility.yul\":1259:1381   */\n      pop\n      jump\t// out\n        /* \"#utility.yul\":1387:1526   */\n    tag_131:\n        /* \"#utility.yul\":1433:1438   */\n      0x00\n        /* \"#utility.yul\":1471:1477   */\n      dup2\n        /* \"#utility.yul\":1458:1478   */\n      calldataload\n        /* \"#utility.yul\":1449:1478   */\n      swap1\n      pop\n        /* \"#utility.yul\":1487:1520   */\n      tag_189\n        /* \"#utility.yul\":1514:1519   */\n      dup2\n        /* \"#utility.yul\":1487:1520   */\n      tag_130\n      jump\t// in\n    tag_189:\n        /* \"#utility.yul\":1387:1526   */\n      swap3\n      swap2\n      pop\n      pop\n      jump\t// out\n        /* \"#utility.yul\":1532:1861   */\n    tag_23:\n        /* \"#utility.yul\":1591:1597   */\n      0x00\n        /* \"#utility.yul\":1640:1642   */\n      0x20\n        /* \"#utility.yul\":1628:1637   */\n      dup3\n        /* \"#utility.yul\":1619:1626   */\n      dup5\n        /* \"#utility.yul\":1615:1638   */\n      sub\n        /* \"#utility.yul\":1611:1643   */\n      slt\n        /* \"#utility.yul\":1608:1727   */\n      iszero\n      tag_191\n      jumpi\n        /* \"#utility.yul\":1646:1725   */\n      tag_192\n      tag_123\n      jump\t// in\n    tag_192:\n        /* \"#utility.yul\":1608:1727   */\n    tag_191:\n        /* \"#utility.yul\":1766:1767   */\n      0x00\n        /* \"#utility.yul\":1791:1844   */\n      tag_193\n        /* \"#utility.yul\":1836:1843   */\n      dup5\n        /* \"#utility.yul\":1827:1833   */\n      dup3\n        /* \"#utility.yul\":1816:1825   */\n      dup6\n        /* \"#utility.yul\":1812:1834   */\n      add\n        /* \"#utility.yul\":1791:1844   */\n      tag_131\n      jump\t// in\n    tag_193:\n        /* \"#utility.yul\":1781:1844   */\n      swap2\n      pop\n        /* \"#utility.yul\":1737:1854   */\n      pop\n        /* \"#utility.yul\":1532:1861   */\n      swap3\n      swap2\n      pop\n      pop\n      jump\t// out\n        /* \"#utility.yul\":1867:1957   */\n    tag_132:\n        /* \"#utility.yul\":1901:1908   */\n      0x00\n        /* \"#utility.yul\":1944:1949   */\n      dup2\n        /* \"#utility.yul\":1937:1950   */\n      iszero\n        /* \"#utility.yul\":1930:1951   */\n      iszero\n        /* \"#utility.yul\":1919:1951   */\n      swap1\n      pop\n        /* \"#utility.yul\":1867:1957   */\n      swap2\n      swap1\n      pop\n      jump\t// out\n        /* \"#utility.yul\":1963:2072   */\n    tag_133:\n        /* \"#utility.yul\":2044:2065   */\n      tag_196\n        /* \"#utility.yul\":2059:2064   */\n      dup2\n        /* \"#utility.yul\":2044:2065   */\n      tag_132\n      jump\t// in\n    tag_196:\n        /* \"#utility.yul\":2039:2042   */\n      dup3\n        /* \"#utility.yul\":2032:2066   */\n      mstore\n        /* \"#utility.yul\":1963:2072   */\n      pop\n      pop\n      jump\t// out\n        /* \"#utility.yul\":2078:2288   */\n    tag_26:\n        /* \"#utility.yul\":2165:2169   */\n      0x00\n        /* \"#utility.yul\":2203:2205   */\n      0x20\n        /* \"#utility.yul\":2192:2201   */\n      dup3\n        /* \"#utility.yul\":2188:2206   */\n      add\n        /* \"#utility.yul\":2180:2206   */\n      swap1\n      pop\n        /* \"#utility.yul\":2216:2281   */\n      tag_198\n        /* \"#utility.yul\":2278:2279   */\n      0x00\n        /* \"#utility.yul\":2267:2276   */\n      dup4\n        /* \"#utility.yul\":2263:2280   */\n      add\n        /* \"#utility.yul\":2254:2260   */\n      dup5\n        /* \"#utility.yul\":2216:2281   */\n      tag_133\n      jump\t// in\n    tag_198:\n        /* \"#utility.yul\":2078:2288   */\n      swap3\n      swap2\n      pop\n      pop\n      jump\t// out\n        /* \"#utility.yul\":2294:2412   */\n    tag_134:\n        /* \"#utility.yul\":2381:2405   */\n      tag_200\n        /* \"#utility.yul\":2399:2404   */\n      dup2\n        /* \"#utility.yul\":2381:2405   */\n      tag_125\n      jump\t// in\n    tag_200:\n        /* \"#utility.yul\":2376:2379   */\n      dup3\n        /* \"#utility.yul\":2369:2406   */\n      mstore\n        /* \"#utility.yul\":2294:2412   */\n      pop\n      pop\n      jump\t// out\n        /* \"#utility.yul\":2418:2640   */\n    tag_31:\n        /* \"#utility.yul\":2511:2515   */\n      0x00\n        /* \"#utility.yul\":2549:2551   */\n      0x20\n        /* \"#utility.yul\":2538:2547   */\n      dup3\n        /* \"#utility.yul\":2534:2552   */\n      add\n        /* \"#utility.yul\":2526:2552   */\n      swap1\n      pop\n        /* \"#utility.yul\":2562:2633   */\n      tag_202\n        /* \"#utility.yul\":2630:2631   */\n      0x00\n        /* \"#utility.yul\":2619:2628   */\n      dup4\n        /* \"#utility.yul\":2615:2632   */\n      add\n        /* \"#utility.yul\":2606:2612   */\n      dup5\n        /* \"#utility.yul\":2562:2633   */\n      tag_134\n      jump\t// in\n    tag_202:\n        /* \"#utility.yul\":2418:2640   */\n      swap3\n      swap2\n      pop\n      pop\n      jump\t// out\n        /* \"#utility.yul\":2646:2745   */\n    tag_135:\n        /* \"#utility.yul\":2698:2704   */\n      0x00\n        /* \"#utility.yul\":2732:2737   */\n      dup2\n        /* \"#utility.yul\":2726:2738   */\n      mload\n        /* \"#utility.yul\":2716:2738   */\n      swap1\n      pop\n        /* \"#utility.yul\":2646:2745   */\n      swap2\n      swap1\n      pop\n      jump\t// out\n        /* \"#utility.yul\":2751:2920   */\n    tag_136:\n        /* \"#utility.yul\":2835:2846   */\n      0x00\n        /* \"#utility.yul\":2869:2875   */\n      dup3\n        /* \"#utility.yul\":2864:2867   */\n      dup3\n        /* \"#utility.yul\":2857:2876   */\n      mstore\n        /* \"#utility.yul\":2909:2913   */\n      0x20\n        /* \"#utility.yul\":2904:2907   */\n      dup3\n        /* \"#utility.yul\":2900:2914   */\n      add\n        /* \"#utility.yul\":2885:2914   */\n      swap1\n      pop\n        /* \"#utility.yul\":2751:2920   */\n      swap3\n      swap2\n      pop\n      pop\n      jump\t// out\n        /* \"#utility.yul\":2926:3172   */\n    tag_137:\n        /* \"#utility.yul\":3007:3008   */\n      0x00\n        /* \"#utility.yul\":3017:3130   */\n    tag_206:\n        /* \"#utility.yul\":3031:3037   */\n      dup4\n        /* \"#utility.yul\":3028:3029   */\n      dup2\n        /* \"#utility.yul\":3025:3038   */\n      lt\n        /* \"#utility.yul\":3017:3130   */\n      iszero\n      tag_208\n      jumpi\n        /* \"#utility.yul\":3116:3117   */\n      dup1\n        /* \"#utility.yul\":3111:3114   */\n      dup3\n        /* \"#utility.yul\":3107:3118   */\n      add\n        /* \"#utility.yul\":3101:3119   */\n      mload\n        /* \"#utility.yul\":3097:3098   */\n      dup2\n        /* \"#utility.yul\":3092:3095   */\n      dup5\n        /* \"#utility.yul\":3088:3099   */\n      add\n        /* \"#utility.yul\":3081:3120   */\n      mstore\n        /* \"#utility.yul\":3053:3055   */\n      0x20\n        /* \"#utility.yul\":3050:3051   */\n      dup2\n        /* \"#utility.yul\":3046:3056   */\n      add\n        /* \"#utility.yul\":3041:3056   */\n      swap1\n      pop\n        /* \"#utility.yul\":3017:3130   */\n      jump(tag_206)\n    tag_208:\n        /* \"#utility.yul\":3164:3165   */\n      0x00\n        /* \"#utility.yul\":3155:3161   */\n      dup5\n        /* \"#utility.yul\":3150:3153   */\n      dup5\n        /* \"#utility.yul\":3146:3162   */\n      add\n        /* \"#utility.yul\":3139:3166   */\n      mstore\n        /* \"#utility.yul\":2988:3172   */\n      pop\n        /* \"#utility.yul\":2926:3172   */\n      pop\n      pop\n      pop\n      jump\t// out\n        /* \"#utility.yul\":3178:3280   */\n    tag_138:\n        /* \"#utility.yul\":3219:3225   */\n      0x00\n        /* \"#utility.yul\":3270:3272   */\n      0x1f\n        /* \"#utility.yul\":3266:3273   */\n      not\n        /* \"#utility.yul\":3261:3263   */\n      0x1f\n        /* \"#utility.yul\":3254:3259   */\n      dup4\n        /* \"#utility.yul\":3250:3264   */\n      add\n        /* \"#utility.yul\":3246:3274   */\n      and\n        /* \"#utility.yul\":3236:3274   */\n      swap1\n      pop\n        /* \"#utility.yul\":3178:3280   */\n      swap2\n      swap1\n      pop\n      jump\t// out\n        /* \"#utility.yul\":3286:3663   */\n    tag_139:\n        /* \"#utility.yul\":3374:3377   */\n      0x00\n        /* \"#utility.yul\":3402:3441   */\n      tag_211\n        /* \"#utility.yul\":3435:3440   */\n      dup3\n        /* \"#utility.yul\":3402:3441   */\n      tag_135\n      jump\t// in\n    tag_211:\n        /* \"#utility.yul\":3457:3528   */\n      tag_212\n        /* \"#utility.yul\":3521:3527   */\n      dup2\n        /* \"#utility.yul\":3516:3519   */\n      dup6\n        /* \"#utility.yul\":3457:3528   */\n      tag_136\n      jump\t// in\n    tag_212:\n        /* \"#utility.yul\":3450:3528   */\n      swap4\n      pop\n        /* \"#utility.yul\":3537:3602   */\n      tag_213\n        /* \"#utility.yul\":3595:3601   */\n      dup2\n        /* \"#utility.yul\":3590:3593   */\n      dup6\n        /* \"#utility.yul\":3583:3587   */\n      0x20\n        /* \"#utility.yul\":3576:3581   */\n      dup7\n        /* \"#utility.yul\":3572:3588   */\n      add\n        /* \"#utility.yul\":3537:3602   */\n      tag_137\n      jump\t// in\n    tag_213:\n        /* \"#utility.yul\":3627:3656   */\n      tag_214\n        /* \"#utility.yul\":3649:3655   */\n      dup2\n        /* \"#utility.yul\":3627:3656   */\n      tag_138\n      jump\t// in\n    tag_214:\n        /* \"#utility.yul\":3622:3625   */\n      dup5\n        /* \"#utility.yul\":3618:3657   */\n      add\n        /* \"#utility.yul\":3611:3657   */\n      swap2\n      pop\n        /* \"#utility.yul\":3378:3663   */\n      pop\n        /* \"#utility.yul\":3286:3663   */\n      swap3\n      swap2\n      pop\n      pop\n      jump\t// out\n        /* \"#utility.yul\":3669:3787   */\n    tag_140:\n        /* \"#utility.yul\":3756:3780   */\n      tag_216\n        /* \"#utility.yul\":3774:3779   */\n      dup2\n        /* \"#utility.yul\":3756:3780   */\n      tag_129\n      jump\t// in\n    tag_216:\n        /* \"#utility.yul\":3751:3754   */\n      dup3\n        /* \"#utility.yul\":3744:3781   */\n      mstore\n        /* \"#utility.yul\":3669:3787   */\n      pop\n      pop\n      jump\t// out\n        /* \"#utility.yul\":3793:4659   */\n    tag_36:\n        /* \"#utility.yul\":4046:4050   */\n      0x00\n        /* \"#utility.yul\":4084:4087   */\n      0xc0\n        /* \"#utility.yul\":4073:4082   */\n      dup3\n        /* \"#utility.yul\":4069:4088   */\n      add\n        /* \"#utility.yul\":4061:4088   */\n      swap1\n      pop\n        /* \"#utility.yul\":4134:4143   */\n      dup2\n        /* \"#utility.yul\":4128:4132   */\n      dup2\n        /* \"#utility.yul\":4124:4144   */\n      sub\n        /* \"#utility.yul\":4120:4121   */\n      0x00\n        /* \"#utility.yul\":4109:4118   */\n      dup4\n        /* \"#utility.yul\":4105:4122   */\n      add\n        /* \"#utility.yul\":4098:4145   */\n      mstore\n        /* \"#utility.yul\":4162:4240   */\n      tag_218\n        /* \"#utility.yul\":4235:4239   */\n      dup2\n        /* \"#utility.yul\":4226:4232   */\n      dup10\n        /* \"#utility.yul\":4162:4240   */\n      tag_139\n      jump\t// in\n    tag_218:\n        /* \"#utility.yul\":4154:4240   */\n      swap1\n      pop\n        /* \"#utility.yul\":4250:4322   */\n      tag_219\n        /* \"#utility.yul\":4318:4320   */\n      0x20\n        /* \"#utility.yul\":4307:4316   */\n      dup4\n        /* \"#utility.yul\":4303:4321   */\n      add\n        /* \"#utility.yul\":4294:4300   */\n      dup9\n        /* \"#utility.yul\":4250:4322   */\n      tag_134\n      jump\t// in\n    tag_219:\n        /* \"#utility.yul\":4332:4404   */\n      tag_220\n        /* \"#utility.yul\":4400:4402   */\n      0x40\n        /* \"#utility.yul\":4389:4398   */\n      dup4\n        /* \"#utility.yul\":4385:4403   */\n      add\n        /* \"#utility.yul\":4376:4382   */\n      dup8\n        /* \"#utility.yul\":4332:4404   */\n      tag_134\n      jump\t// in\n    tag_220:\n        /* \"#utility.yul\":4414:4486   */\n      tag_221\n        /* \"#utility.yul\":4482:4484   */\n      0x60\n        /* \"#utility.yul\":4471:4480   */\n      dup4\n        /* \"#utility.yul\":4467:4485   */\n      add\n        /* \"#utility.yul\":4458:4464   */\n      dup7\n        /* \"#utility.yul\":4414:4486   */\n      tag_134\n      jump\t// in\n    tag_221:\n        /* \"#utility.yul\":4496:4569   */\n      tag_222\n        /* \"#utility.yul\":4564:4567   */\n      0x80\n        /* \"#utility.yul\":4553:4562   */\n      dup4\n        /* \"#utility.yul\":4549:4568   */\n      add\n        /* \"#utility.yul\":4540:4546   */\n      dup6\n        /* \"#utility.yul\":4496:4569   */\n      tag_134\n      jump\t// in\n    tag_222:\n        /* \"#utility.yul\":4579:4652   */\n      tag_223\n        /* \"#utility.yul\":4647:4650   */\n      0xa0\n        /* \"#utility.yul\":4636:4645   */\n      dup4\n        /* \"#utility.yul\":4632:4651   */\n      add\n        /* \"#utility.yul\":4623:4629   */\n      dup5\n        /* \"#utility.yul\":4579:4652   */\n      tag_140\n      jump\t// in\n    tag_223:\n        /* \"#utility.yul\":3793:4659   */\n      swap8\n      swap7\n      pop\n      pop\n      pop\n      pop\n      pop\n      pop\n      pop\n      jump\t// out\n        /* \"#utility.yul\":4665:4887   */\n    tag_41:\n        /* \"#utility.yul\":4758:4762   */\n      0x00\n        /* \"#utility.yul\":4796:4798   */\n      0x20\n        /* \"#utility.yul\":4785:4794   */\n      dup3\n        /* \"#utility.yul\":4781:4799   */\n      add\n        /* \"#utility.yul\":4773:4799   */\n      swap1\n      pop\n        /* \"#utility.yul\":4809:4880   */\n      tag_225\n        /* \"#utility.yul\":4877:4878   */\n      0x00\n        /* \"#utility.yul\":4866:4875   */\n      dup4\n        /* \"#utility.yul\":4862:4879   */\n      add\n        /* \"#utility.yul\":4853:4859   */\n      dup5\n        /* \"#utility.yul\":4809:4880   */\n      tag_140\n      jump\t// in\n    tag_225:\n        /* \"#utility.yul\":4665:4887   */\n      swap3\n      swap2\n      pop\n      pop\n      jump\t// out\n        /* \"#utility.yul\":4893:5636   */\n    tag_47:\n        /* \"#utility.yul\":5112:5116   */\n      0x00\n        /* \"#utility.yul\":5150:5153   */\n      0xa0\n        /* \"#utility.yul\":5139:5148   */\n      dup3\n        /* \"#utility.yul\":5135:5154   */\n      add\n        /* \"#utility.yul\":5127:5154   */\n      swap1\n      pop\n        /* \"#utility.yul\":5200:5209   */\n      dup2\n        /* \"#utility.yul\":5194:5198   */\n      dup2\n        /* \"#utility.yul\":5190:5210   */\n      sub\n        /* \"#utility.yul\":5186:5187   */\n      0x00\n        /* \"#utility.yul\":5175:5184   */\n      dup4\n        /* \"#utility.yul\":5171:5188   */\n      add\n        /* \"#utility.yul\":5164:5211   */\n      mstore\n        /* \"#utility.yul\":5228:5306   */\n      tag_227\n        /* \"#utility.yul\":5301:5305   */\n      dup2\n        /* \"#utility.yul\":5292:5298   */\n      dup9\n        /* \"#utility.yul\":5228:5306   */\n      tag_139\n      jump\t// in\n    tag_227:\n        /* \"#utility.yul\":5220:5306   */\n      swap1\n      pop\n        /* \"#utility.yul\":5316:5388   */\n      tag_228\n        /* \"#utility.yul\":5384:5386   */\n      0x20\n        /* \"#utility.yul\":5373:5382   */\n      dup4\n        /* \"#utility.yul\":5369:5387   */\n      add\n        /* \"#utility.yul\":5360:5366   */\n      dup8\n        /* \"#utility.yul\":5316:5388   */\n      tag_134\n      jump\t// in\n    tag_228:\n        /* \"#utility.yul\":5398:5470   */\n      tag_229\n        /* \"#utility.yul\":5466:5468   */\n      0x40\n        /* \"#utility.yul\":5455:5464   */\n      dup4\n        /* \"#utility.yul\":5451:5469   */\n      add\n        /* \"#utility.yul\":5442:5448   */\n      dup7\n        /* \"#utility.yul\":5398:5470   */\n      tag_140\n      jump\t// in\n    tag_229:\n        /* \"#utility.yul\":5480:5546   */\n      tag_230\n        /* \"#utility.yul\":5542:5544   */\n      0x60\n        /* \"#utility.yul\":5531:5540   */\n      dup4\n        /* \"#utility.yul\":5527:5545   */\n      add\n        /* \"#utility.yul\":5518:5524   */\n      dup6\n        /* \"#utility.yul\":5480:5546   */\n      tag_133\n      jump\t// in\n    tag_230:\n        /* \"#utility.yul\":5556:5629   */\n      tag_231\n        /* \"#utility.yul\":5624:5627   */\n      0x80\n        /* \"#utility.yul\":5613:5622   */\n      dup4\n        /* \"#utility.yul\":5609:5628   */\n      add\n        /* \"#utility.yul\":5600:5606   */\n      dup5\n        /* \"#utility.yul\":5556:5629   */\n      tag_134\n      jump\t// in\n    tag_231:\n        /* \"#utility.yul\":4893:5636   */\n      swap7\n      swap6\n      pop\n      pop\n      pop\n      pop\n      pop\n      pop\n      jump\t// out\n        /* \"#utility.yul\":5642:5759   */\n    tag_141:\n        /* \"#utility.yul\":5751:5752   */\n      0x00\n        /* \"#utility.yul\":5748:5749   */\n      dup1\n        /* \"#utility.yul\":5741:5753   */\n      revert\n        /* \"#utility.yul\":5765:5882   */\n    tag_142:\n        /* \"#utility.yul\":5874:5875   */\n      0x00\n        /* \"#utility.yul\":5871:5872   */\n      dup1\n        /* \"#utility.yul\":5864:5876   */\n      revert\n        /* \"#utility.yul\":5888:6068   */\n    tag_143:\n        /* \"#utility.yul\":5936:6013   */\n      0x4e487b7100000000000000000000000000000000000000000000000000000000\n        /* \"#utility.yul\":5933:5934   */\n      0x00\n        /* \"#utility.yul\":5926:6014   */\n      mstore\n        /* \"#utility.yul\":6033:6037   */\n      0x41\n        /* \"#utility.yul\":6030:6031   */\n      0x04\n        /* \"#utility.yul\":6023:6038   */\n      mstore\n        /* \"#utility.yul\":6057:6061   */\n      0x24\n        /* \"#utility.yul\":6054:6055   */\n      0x00\n        /* \"#utility.yul\":6047:6062   */\n      revert\n        /* \"#utility.yul\":6074:6355   */\n    tag_144:\n        /* \"#utility.yul\":6157:6184   */\n      tag_236\n        /* \"#utility.yul\":6179:6183   */\n      dup3\n        /* \"#utility.yul\":6157:6184   */\n      tag_138\n      jump\t// in\n    tag_236:\n        /* \"#utility.yul\":6149:6155   */\n      dup2\n        /* \"#utility.yul\":6145:6185   */\n      add\n        /* \"#utility.yul\":6287:6293   */\n      dup2\n        /* \"#utility.yul\":6275:6285   */\n      dup2\n        /* \"#utility.yul\":6272:6294   */\n      lt\n        /* \"#utility.yul\":6251:6269   */\n      0xffffffffffffffff\n        /* \"#utility.yul\":6239:6249   */\n      dup3\n        /* \"#utility.yul\":6236:6270   */\n      gt\n        /* \"#utility.yul\":6233:6295   */\n      or\n        /* \"#utility.yul\":6230:6318   */\n      iszero\n      tag_237\n      jumpi\n        /* \"#utility.yul\":6298:6316   */\n      tag_238\n      tag_143\n      jump\t// in\n    tag_238:\n        /* \"#utility.yul\":6230:6318   */\n    tag_237:\n        /* \"#utility.yul\":6338:6348   */\n      dup1\n        /* \"#utility.yul\":6334:6336   */\n      0x40\n        /* \"#utility.yul\":6327:6349   */\n      mstore\n        /* \"#utility.yul\":6117:6355   */\n      pop\n        /* \"#utility.yul\":6074:6355   */\n      pop\n      pop\n      jump\t// out\n        /* \"#utility.yul\":6361:6490   */\n    tag_145:\n        /* \"#utility.yul\":6395:6401   */\n      0x00\n        /* \"#utility.yul\":6422:6442   */\n      tag_240\n      tag_122\n      jump\t// in\n    tag_240:\n        /* \"#utility.yul\":6412:6442   */\n      swap1\n      pop\n        /* \"#utility.yul\":6451:6484   */\n      tag_241\n        /* \"#utility.yul\":6479:6483   */\n      dup3\n        /* \"#utility.yul\":6471:6477   */\n      dup3\n        /* \"#utility.yul\":6451:6484   */\n      tag_144\n      jump\t// in\n    tag_241:\n        /* \"#utility.yul\":6361:6490   */\n      swap2\n      swap1\n      pop\n      jump\t// out\n        /* \"#utility.yul\":6496:6804   */\n    tag_146:\n        /* \"#utility.yul\":6558:6562   */\n      0x00\n        /* \"#utility.yul\":6648:6666   */\n      0xffffffffffffffff\n        /* \"#utility.yul\":6640:6646   */\n      dup3\n        /* \"#utility.yul\":6637:6667   */\n      gt\n        /* \"#utility.yul\":6634:6690   */\n      iszero\n      tag_243\n      jumpi\n        /* \"#utility.yul\":6670:6688   */\n      tag_244\n      tag_143\n      jump\t// in\n    tag_244:\n        /* \"#utility.yul\":6634:6690   */\n    tag_243:\n        /* \"#utility.yul\":6708:6737   */\n      tag_245\n        /* \"#utility.yul\":6730:6736   */\n      dup3\n        /* \"#utility.yul\":6708:6737   */\n      tag_138\n      jump\t// in\n    tag_245:\n        /* \"#utility.yul\":6700:6737   */\n      swap1\n      pop\n        /* \"#utility.yul\":6792:6796   */\n      0x20\n        /* \"#utility.yul\":6786:6790   */\n      dup2\n        /* \"#utility.yul\":6782:6797   */\n      add\n        /* \"#utility.yul\":6774:6797   */\n      swap1\n      pop\n        /* \"#utility.yul\":6496:6804   */\n      swap2\n      swap1\n      pop\n      jump\t// out\n        /* \"#utility.yul\":6810:6956   */\n    tag_147:\n        /* \"#utility.yul\":6907:6913   */\n      dup3\n        /* \"#utility.yul\":6902:6905   */\n      dup2\n        /* \"#utility.yul\":6897:6900   */\n      dup4\n        /* \"#utility.yul\":6884:6914   */\n      calldatacopy\n        /* \"#utility.yul\":6948:6949   */\n      0x00\n        /* \"#utility.yul\":6939:6945   */\n      dup4\n        /* \"#utility.yul\":6934:6937   */\n      dup4\n        /* \"#utility.yul\":6930:6946   */\n      add\n        /* \"#utility.yul\":6923:6950   */\n      mstore\n        /* \"#utility.yul\":6810:6956   */\n      pop\n      pop\n      pop\n      jump\t// out\n        /* \"#utility.yul\":6962:7387   */\n    tag_148:\n        /* \"#utility.yul\":7040:7045   */\n      0x00\n        /* \"#utility.yul\":7065:7131   */\n      tag_248\n        /* \"#utility.yul\":7081:7130   */\n      tag_249\n        /* \"#utility.yul\":7123:7129   */\n      dup5\n        /* \"#utility.yul\":7081:7130   */\n      tag_146\n      jump\t// in\n    tag_249:\n        /* \"#utility.yul\":7065:7131   */\n      tag_145\n      jump\t// in\n    tag_248:\n        /* \"#utility.yul\":7056:7131   */\n      swap1\n      pop\n        /* \"#utility.yul\":7154:7160   */\n      dup3\n        /* \"#utility.yul\":7147:7152   */\n      dup2\n        /* \"#utility.yul\":7140:7161   */\n      mstore\n        /* \"#utility.yul\":7192:7196   */\n      0x20\n        /* \"#utility.yul\":7185:7190   */\n      dup2\n        /* \"#utility.yul\":7181:7197   */\n      add\n        /* \"#utility.yul\":7230:7233   */\n      dup5\n        /* \"#utility.yul\":7221:7227   */\n      dup5\n        /* \"#utility.yul\":7216:7219   */\n      dup5\n        /* \"#utility.yul\":7212:7228   */\n      add\n        /* \"#utility.yul\":7209:7234   */\n      gt\n        /* \"#utility.yul\":7206:7318   */\n      iszero\n      tag_250\n      jumpi\n        /* \"#utility.yul\":7237:7316   */\n      tag_251\n      tag_142\n      jump\t// in\n    tag_251:\n        /* \"#utility.yul\":7206:7318   */\n    tag_250:\n        /* \"#utility.yul\":7327:7381   */\n      tag_252\n        /* \"#utility.yul\":7374:7380   */\n      dup5\n        /* \"#utility.yul\":7369:7372   */\n      dup3\n        /* \"#utility.yul\":7364:7367   */\n      dup6\n        /* \"#utility.yul\":7327:7381   */\n      tag_147\n      jump\t// in\n    tag_252:\n        /* \"#utility.yul\":7046:7387   */\n      pop\n        /* \"#utility.yul\":6962:7387   */\n      swap4\n      swap3\n      pop\n      pop\n      pop\n      jump\t// out\n        /* \"#utility.yul\":7407:7747   */\n    tag_149:\n        /* \"#utility.yul\":7463:7468   */\n      0x00\n        /* \"#utility.yul\":7512:7515   */\n      dup3\n        /* \"#utility.yul\":7505:7509   */\n      0x1f\n        /* \"#utility.yul\":7497:7503   */\n      dup4\n        /* \"#utility.yul\":7493:7510   */\n      add\n        /* \"#utility.yul\":7489:7516   */\n      slt\n        /* \"#utility.yul\":7479:7601   */\n      tag_254\n      jumpi\n        /* \"#utility.yul\":7520:7599   */\n      tag_255\n      tag_141\n      jump\t// in\n    tag_255:\n        /* \"#utility.yul\":7479:7601   */\n    tag_254:\n        /* \"#utility.yul\":7637:7643   */\n      dup2\n        /* \"#utility.yul\":7624:7644   */\n      calldataload\n        /* \"#utility.yul\":7662:7741   */\n      tag_256\n        /* \"#utility.yul\":7737:7740   */\n      dup5\n        /* \"#utility.yul\":7729:7735   */\n      dup3\n        /* \"#utility.yul\":7722:7726   */\n      0x20\n        /* \"#utility.yul\":7714:7720   */\n      dup7\n        /* \"#utility.yul\":7710:7727   */\n      add\n        /* \"#utility.yul\":7662:7741   */\n      tag_148\n      jump\t// in\n    tag_256:\n        /* \"#utility.yul\":7653:7741   */\n      swap2\n      pop\n        /* \"#utility.yul\":7469:7747   */\n      pop\n        /* \"#utility.yul\":7407:7747   */\n      swap3\n      swap2\n      pop\n      pop\n      jump\t// out\n        /* \"#utility.yul\":7753:8552   */\n    tag_55:\n        /* \"#utility.yul\":7840:7846   */\n      0x00\n        /* \"#utility.yul\":7848:7854   */\n      dup1\n        /* \"#utility.yul\":7856:7862   */\n      0x00\n        /* \"#utility.yul\":7905:7907   */\n      0x60\n        /* \"#utility.yul\":7893:7902   */\n      dup5\n        /* \"#utility.yul\":7884:7891   */\n      dup7\n        /* \"#utility.yul\":7880:7903   */\n      sub\n        /* \"#utility.yul\":7876:7908   */\n      slt\n        /* \"#utility.yul\":7873:7992   */\n      iszero\n      tag_258\n      jumpi\n        /* \"#utility.yul\":7911:7990   */\n      tag_259\n      tag_123\n      jump\t// in\n    tag_259:\n        /* \"#utility.yul\":7873:7992   */\n    tag_258:\n        /* \"#utility.yul\":8059:8060   */\n      0x00\n        /* \"#utility.yul\":8048:8057   */\n      dup5\n        /* \"#utility.yul\":8044:8061   */\n      add\n        /* \"#utility.yul\":8031:8062   */\n      calldataload\n        /* \"#utility.yul\":8089:8107   */\n      0xffffffffffffffff\n        /* \"#utility.yul\":8081:8087   */\n      dup2\n        /* \"#utility.yul\":8078:8108   */\n      gt\n        /* \"#utility.yul\":8075:8192   */\n      iszero\n      tag_260\n      jumpi\n        /* \"#utility.yul\":8111:8190   */\n      tag_261\n      tag_124\n      jump\t// in\n    tag_261:\n        /* \"#utility.yul\":8075:8192   */\n    tag_260:\n        /* \"#utility.yul\":8216:8279   */\n      tag_262\n        /* \"#utility.yul\":8271:8278   */\n      dup7\n        /* \"#utility.yul\":8262:8268   */\n      dup3\n        /* \"#utility.yul\":8251:8260   */\n      dup8\n        /* \"#utility.yul\":8247:8269   */\n      add\n        /* \"#utility.yul\":8216:8279   */\n      tag_149\n      jump\t// in\n    tag_262:\n        /* \"#utility.yul\":8206:8279   */\n      swap4\n      pop\n        /* \"#utility.yul\":8002:8289   */\n      pop\n        /* \"#utility.yul\":8328:8330   */\n      0x20\n        /* \"#utility.yul\":8354:8407   */\n      tag_263\n        /* \"#utility.yul\":8399:8406   */\n      dup7\n        /* \"#utility.yul\":8390:8396   */\n      dup3\n        /* \"#utility.yul\":8379:8388   */\n      dup8\n        /* \"#utility.yul\":8375:8397   */\n      add\n        /* \"#utility.yul\":8354:8407   */\n      tag_127\n      jump\t// in\n    tag_263:\n        /* \"#utility.yul\":8344:8407   */\n      swap3\n      pop\n        /* \"#utility.yul\":8299:8417   */\n      pop\n        /* \"#utility.yul\":8456:8458   */\n      0x40\n        /* \"#utility.yul\":8482:8535   */\n      tag_264\n        /* \"#utility.yul\":8527:8534   */\n      dup7\n        /* \"#utility.yul\":8518:8524   */\n      dup3\n        /* \"#utility.yul\":8507:8516   */\n      dup8\n        /* \"#utility.yul\":8503:8525   */\n      add\n        /* \"#utility.yul\":8482:8535   */\n      tag_131\n      jump\t// in\n    tag_264:\n        /* \"#utility.yul\":8472:8535   */\n      swap2\n      pop\n        /* \"#utility.yul\":8427:8545   */\n      pop\n        /* \"#utility.yul\":7753:8552   */\n      swap3\n      pop\n      swap3\n      pop\n      swap3\n      jump\t// out\n        /* \"#utility.yul\":8558:8871   */\n    tag_71:\n        /* \"#utility.yul\":8671:8675   */\n      0x00\n        /* \"#utility.yul\":8709:8711   */\n      0x20\n        /* \"#utility.yul\":8698:8707   */\n      dup3\n        /* \"#utility.yul\":8694:8712   */\n      add\n        /* \"#utility.yul\":8686:8712   */\n      swap1\n      pop\n        /* \"#utility.yul\":8758:8767   */\n      dup2\n        /* \"#utility.yul\":8752:8756   */\n      dup2\n        /* \"#utility.yul\":8748:8768   */\n      sub\n        /* \"#utility.yul\":8744:8745   */\n      0x00\n        /* \"#utility.yul\":8733:8742   */\n      dup4\n        /* \"#utility.yul\":8729:8746   */\n      add\n        /* \"#utility.yul\":8722:8769   */\n      mstore\n        /* \"#utility.yul\":8786:8864   */\n      tag_266\n        /* \"#utility.yul\":8859:8863   */\n      dup2\n        /* \"#utility.yul\":8850:8856   */\n      dup5\n        /* \"#utility.yul\":8786:8864   */\n      tag_139\n      jump\t// in\n    tag_266:\n        /* \"#utility.yul\":8778:8864   */\n      swap1\n      pop\n        /* \"#utility.yul\":8558:8871   */\n      swap3\n      swap2\n      pop\n      pop\n      jump\t// out\n        /* \"#utility.yul\":8877:9057   */\n    tag_77:\n        /* \"#utility.yul\":8925:9002   */\n      0x4e487b7100000000000000000000000000000000000000000000000000000000\n        /* \"#utility.yul\":8922:8923   */\n      0x00\n        /* \"#utility.yul\":8915:9003   */\n      mstore\n        /* \"#utility.yul\":9022:9026   */\n      0x32\n        /* \"#utility.yul\":9019:9020   */\n      0x04\n        /* \"#utility.yul\":9012:9027   */\n      mstore\n        /* \"#utility.yul\":9046:9050   */\n      0x24\n        /* \"#utility.yul\":9043:9044   */\n      0x00\n        /* \"#utility.yul\":9036:9051   */\n      revert\n        /* \"#utility.yul\":9063:9243   */\n    tag_150:\n        /* \"#utility.yul\":9111:9188   */\n      0x4e487b7100000000000000000000000000000000000000000000000000000000\n        /* \"#utility.yul\":9108:9109   */\n      0x00\n        /* \"#utility.yul\":9101:9189   */\n      mstore\n        /* \"#utility.yul\":9208:9212   */\n      0x12\n        /* \"#utility.yul\":9205:9206   */\n      0x04\n        /* \"#utility.yul\":9198:9213   */\n      mstore\n        /* \"#utility.yul\":9232:9236   */\n      0x24\n        /* \"#utility.yul\":9229:9230   */\n      0x00\n        /* \"#utility.yul\":9222:9237   */\n      revert\n        /* \"#utility.yul\":9249:9429   */\n    tag_151:\n        /* \"#utility.yul\":9297:9374   */\n      0x4e487b7100000000000000000000000000000000000000000000000000000000\n        /* \"#utility.yul\":9294:9295   */\n      0x00\n        /* \"#utility.yul\":9287:9375   */\n      mstore\n        /* \"#utility.yul\":9394:9398   */\n      0x11\n        /* \"#utility.yul\":9391:9392   */\n      0x04\n        /* \"#utility.yul\":9384:9399   */\n      mstore\n        /* \"#utility.yul\":9418:9422   */\n      0x24\n        /* \"#utility.yul\":9415:9416   */\n      0x00\n        /* \"#utility.yul\":9408:9423   */\n      revert\n        /* \"#utility.yul\":9435:9620   */\n    tag_80:\n        /* \"#utility.yul\":9475:9476   */\n      0x00\n        /* \"#utility.yul\":9492:9512   */\n      tag_271\n        /* \"#utility.yul\":9510:9511   */\n      dup3\n        /* \"#utility.yul\":9492:9512   */\n      tag_125\n      jump\t// in\n    tag_271:\n        /* \"#utility.yul\":9487:9512   */\n      swap2\n      pop\n        /* \"#utility.yul\":9526:9546   */\n      tag_272\n        /* \"#utility.yul\":9544:9545   */\n      dup4\n        /* \"#utility.yul\":9526:9546   */\n      tag_125\n      jump\t// in\n    tag_272:\n        /* \"#utility.yul\":9521:9546   */\n      swap3\n      pop\n        /* \"#utility.yul\":9565:9566   */\n      dup3\n        /* \"#utility.yul\":9555:9590   */\n      tag_273\n      jumpi\n        /* \"#utility.yul\":9570:9588   */\n      tag_274\n      tag_150\n      jump\t// in\n    tag_274:\n        /* \"#utility.yul\":9555:9590   */\n    tag_273:\n        /* \"#utility.yul\":9612:9613   */\n      dup3\n        /* \"#utility.yul\":9609:9610   */\n      dup3\n        /* \"#utility.yul\":9605:9614   */\n      div\n        /* \"#utility.yul\":9600:9614   */\n      swap1\n      pop\n        /* \"#utility.yul\":9435:9620   */\n      swap3\n      swap2\n      pop\n      pop\n      jump\t// out\n        /* \"#utility.yul\":9626:9806   */\n    tag_152:\n        /* \"#utility.yul\":9674:9751   */\n      0x4e487b7100000000000000000000000000000000000000000000000000000000\n        /* \"#utility.yul\":9671:9672   */\n      0x00\n        /* \"#utility.yul\":9664:9752   */\n      mstore\n        /* \"#utility.yul\":9771:9775   */\n      0x22\n        /* \"#utility.yul\":9768:9769   */\n      0x04\n        /* \"#utility.yul\":9761:9776   */\n      mstore\n        /* \"#utility.yul\":9795:9799   */\n      0x24\n        /* \"#utility.yul\":9792:9793   */\n      0x00\n        /* \"#utility.yul\":9785:9800   */\n      revert\n        /* \"#utility.yul\":9812:10132   */\n    tag_88:\n        /* \"#utility.yul\":9856:9862   */\n      0x00\n        /* \"#utility.yul\":9893:9894   */\n      0x02\n        /* \"#utility.yul\":9887:9891   */\n      dup3\n        /* \"#utility.yul\":9883:9895   */\n      div\n        /* \"#utility.yul\":9873:9895   */\n      swap1\n      pop\n        /* \"#utility.yul\":9940:9941   */\n      0x01\n        /* \"#utility.yul\":9934:9938   */\n      dup3\n        /* \"#utility.yul\":9930:9942   */\n      and\n        /* \"#utility.yul\":9961:9979   */\n      dup1\n        /* \"#utility.yul\":9951:10032   */\n      tag_277\n      jumpi\n        /* \"#utility.yul\":10017:10021   */\n      0x7f\n        /* \"#utility.yul\":10009:10015   */\n      dup3\n        /* \"#utility.yul\":10005:10022   */\n      and\n        /* \"#utility.yul\":9995:10022   */\n      swap2\n      pop\n        /* \"#utility.yul\":9951:10032   */\n    tag_277:\n        /* \"#utility.yul\":10079:10081   */\n      0x20\n        /* \"#utility.yul\":10071:10077   */\n      dup3\n        /* \"#utility.yul\":10068:10082   */\n      lt\n        /* \"#utility.yul\":10048:10066   */\n      dup2\n        /* \"#utility.yul\":10045:10083   */\n      sub\n        /* \"#utility.yul\":10042:10126   */\n      tag_278\n      jumpi\n        /* \"#utility.yul\":10098:10116   */\n      tag_279\n      tag_152\n      jump\t// in\n    tag_279:\n        /* \"#utility.yul\":10042:10126   */\n    tag_278:\n        /* \"#utility.yul\":9863:10132   */\n      pop\n        /* \"#utility.yul\":9812:10132   */\n      swap2\n      swap1\n      pop\n      jump\t// out\n        /* \"#utility.yul\":10138:10279   */\n    tag_153:\n        /* \"#utility.yul\":10187:10191   */\n      0x00\n        /* \"#utility.yul\":10210:10213   */\n      dup2\n        /* \"#utility.yul\":10202:10213   */\n      swap1\n      pop\n        /* \"#utility.yul\":10233:10236   */\n      dup2\n        /* \"#utility.yul\":10230:10231   */\n      0x00\n        /* \"#utility.yul\":10223:10237   */\n      mstore\n        /* \"#utility.yul\":10267:10271   */\n      0x20\n        /* \"#utility.yul\":10264:10265   */\n      0x00\n        /* \"#utility.yul\":10254:10272   */\n      keccak256\n        /* \"#utility.yul\":10246:10272   */\n      swap1\n      pop\n        /* \"#utility.yul\":10138:10279   */\n      swap2\n      swap1\n      pop\n      jump\t// out\n        /* \"#utility.yul\":10285:10378   */\n    tag_154:\n        /* \"#utility.yul\":10322:10328   */\n      0x00\n        /* \"#utility.yul\":10369:10371   */\n      0x20\n        /* \"#utility.yul\":10364:10366   */\n      0x1f\n        /* \"#utility.yul\":10357:10362   */\n      dup4\n        /* \"#utility.yul\":10353:10367   */\n      add\n        /* \"#utility.yul\":10349:10372   */\n      div\n        /* \"#utility.yul\":10339:10372   */\n      swap1\n      pop\n        /* \"#utility.yul\":10285:10378   */\n      swap2\n      swap1\n      pop\n      jump\t// out\n        /* \"#utility.yul\":10384:10491   */\n    tag_155:\n        /* \"#utility.yul\":10428:10436   */\n      0x00\n        /* \"#utility.yul\":10478:10483   */\n      dup3\n        /* \"#utility.yul\":10472:10476   */\n      dup3\n        /* \"#utility.yul\":10468:10484   */\n      shl\n        /* \"#utility.yul\":10447:10484   */\n      swap1\n      pop\n        /* \"#utility.yul\":10384:10491   */\n      swap3\n      swap2\n      pop\n      pop\n      jump\t// out\n        /* \"#utility.yul\":10497:10890   */\n    tag_156:\n        /* \"#utility.yul\":10566:10572   */\n      0x00\n        /* \"#utility.yul\":10616:10617   */\n      0x08\n        /* \"#utility.yul\":10604:10614   */\n      dup4\n        /* \"#utility.yul\":10600:10618   */\n      mul\n        /* \"#utility.yul\":10639:10736   */\n      tag_284\n        /* \"#utility.yul\":10669:10735   */\n      0xffffffffffffffffffffffffffffffffffffffffffffffffffffffffffffffff\n        /* \"#utility.yul\":10658:10667   */\n      dup3\n        /* \"#utility.yul\":10639:10736   */\n      tag_155\n      jump\t// in\n    tag_284:\n        /* \"#utility.yul\":10757:10796   */\n      tag_285\n        /* \"#utility.yul\":10787:10795   */\n      dup7\n        /* \"#utility.yul\":10776:10785   */\n      dup4\n        /* \"#utility.yul\":10757:10796   */\n      tag_155\n      jump\t// in\n    tag_285:\n        /* \"#utility.yul\":10745:10796   */\n      swap6\n      pop\n        /* \"#utility.yul\":10829:10833   */\n      dup1\n        /* \"#utility.yul\":10825:10834   */\n      not\n        /* \"#utility.yul\":10818:10823   */\n      dup5\n        /* \"#utility.yul\":10814:10835   */\n      and\n        /* \"#utility.yul\":10805:10835   */\n      swap4\n      pop\n        /* \"#utility.yul\":10878:10882   */\n      dup1\n        /* \"#utility.yul\":10868:10876   */\n      dup7\n        /* \"#utility.yul\":10864:10883   */\n      and\n        /* \"#utility.yul\":10857:10862   */\n      dup5\n        /* \"#utility.yul\":10854:10884   */\n      or\n        /* \"#utility.yul\":10844:10884   */\n      swap3\n      pop\n        /* \"#utility.yul\":10573:10890   */\n      pop\n      pop\n        /* \"#utility.yul\":10497:10890   */\n      swap4\n      swap3\n      pop\n      pop\n      pop\n      jump\t// out\n        /* \"#utility.yul\":10896:10956   */\n    tag_157:\n        /* \"#utility.yul\":10924:10927   */\n      0x00\n        /* \"#utility.yul\":10945:10950   */\n      dup2\n        /* \"#utility.yul\":10938:10950   */\n      swap1\n      pop\n        /* \"#utility.yul\":10896:10956   */\n      swap2\n      swap1\n      pop\n      jump\t// out\n        /* \"#utility.yul\":10962:11104   */\n    tag_158:\n        /* \"#utility.yul\":11012:11021   */\n      0x00\n        /* \"#utility.yul\":11045:11098   */\n      tag_288\n        /* \"#utility.yul\":11063:11097   */\n      tag_289\n        /* \"#utility.yul\":11072:11096   */\n      tag_290\n        /* \"#utility.yul\":11090:11095   */\n      dup5\n        /* \"#utility.yul\":11072:11096   */\n      tag_125\n      jump\t// in\n    tag_290:\n        /* \"#utility.yul\":11063:11097   */\n      tag_157\n      jump\t// in\n    tag_289:\n        /* \"#utility.yul\":11045:11098   */\n      tag_125\n      jump\t// in\n    tag_288:\n        /* \"#utility.yul\":11032:11098   */\n      swap1\n      pop\n        /* \"#utility.yul\":10962:11104   */\n      swap2\n      swap1\n      pop\n      jump\t// out\n        /* \"#utility.yul\":11110:11185   */\n    tag_159:\n        /* \"#utility.yul\":11153:11156   */\n      0x00\n        /* \"#utility.yul\":11174:11179   */\n      dup2\n        /* \"#utility.yul\":11167:11179   */\n      swap1\n      pop\n        /* \"#utility.yul\":11110:11185   */\n      swap2\n      swap1\n      pop\n      jump\t// out\n        /* \"#utility.yul\":11191:11460   */\n    tag_160:\n        /* \"#utility.yul\":11301:11340   */\n      tag_293\n        /* \"#utility.yul\":11332:11339   */\n      dup4\n        /* \"#utility.yul\":11301:11340   */\n      tag_158\n      jump\t// in\n    tag_293:\n        /* \"#utility.yul\":11362:11453   */\n      tag_294\n        /* \"#utility.yul\":11411:11452   */\n      tag_295\n        /* \"#utility.yul\":11435:11451   */\n      dup3\n        /* \"#utility.yul\":11411:11452   */\n      tag_159\n      jump\t// in\n    tag_295:\n        /* \"#utility.yul\":11403:11409   */\n      dup5\n        /* \"#utility.yul\":11396:11400   */\n      dup5\n        /* \"#utility.yul\":11390:11401   */\n      sload\n        /* \"#utility.yul\":11362:11453   */\n      tag_156\n      jump\t// in\n    tag_294:\n        /* \"#utility.yul\":11356:11360   */\n      dup3\n        /* \"#utility.yul\":11349:11454   */\n      sstore\n        /* \"#utility.yul\":11267:11460   */\n      pop\n        /* \"#utility.yul\":11191:11460   */\n      pop\n      pop\n      pop\n      jump\t// out\n        /* \"#utility.yul\":11466:11539   */\n    tag_161:\n        /* \"#utility.yul\":11511:11514   */\n      0x00\n        /* \"#utility.yul\":11466:11539   */\n      swap1\n      jump\t// out\n        /* \"#utility.yul\":11545:11734   */\n    tag_162:\n        /* \"#utility.yul\":11622:11654   */\n      tag_298\n      tag_161\n      jump\t// in\n    tag_298:\n        /* \"#utility.yul\":11663:11728   */\n      tag_299\n        /* \"#utility.yul\":11721:11727   */\n      dup2\n        /* \"#utility.yul\":11713:11719   */\n      dup5\n        /* \"#utility.yul\":11707:11711   */\n      dup5\n        /* \"#utility.yul\":11663:11728   */\n      tag_160\n      jump\t// in\n    tag_299:\n        /* \"#utility.yul\":11598:11734   */\n      pop\n        /* \"#utility.yul\":11545:11734   */\n      pop\n      pop\n      jump\t// out\n        /* \"#utility.yul\":11740:11926   */\n    tag_163:\n        /* \"#utility.yul\":11800:11920   */\n    tag_301:\n        /* \"#utility.yul\":11817:11820   */\n      dup2\n        /* \"#utility.yul\":11810:11815   */\n      dup2\n        /* \"#utility.yul\":11807:11821   */\n      lt\n        /* \"#utility.yul\":11800:11920   */\n      iszero\n      tag_303\n      jumpi\n        /* \"#utility.yul\":11871:11910   */\n      tag_304\n        /* \"#utility.yul\":11908:11909   */\n      0x00\n        /* \"#utility.yul\":11901:11906   */\n      dup3\n        /* \"#utility.yul\":11871:11910   */\n      tag_162\n      jump\t// in\n    tag_304:\n        /* \"#utility.yul\":11844:11845   */\n      0x01\n        /* \"#utility.yul\":11837:11842   */\n      dup2\n        /* \"#utility.yul\":11833:11846   */\n      add\n        /* \"#utility.yul\":11824:11846   */\n      swap1\n      pop\n        /* \"#utility.yul\":11800:11920   */\n      jump(tag_301)\n    tag_303:\n        /* \"#utility.yul\":11740:11926   */\n      pop\n      pop\n      jump\t// out\n        /* \"#utility.yul\":11932:12475   */\n    tag_164:\n        /* \"#utility.yul\":12033:12035   */\n      0x1f\n        /* \"#utility.yul\":12028:12031   */\n      dup3\n        /* \"#utility.yul\":12025:12036   */\n      gt\n        /* \"#utility.yul\":12022:12468   */\n      iszero\n      tag_306\n      jumpi\n        /* \"#utility.yul\":12067:12105   */\n      tag_307\n        /* \"#utility.yul\":12099:12104   */\n      dup2\n        /* \"#utility.yul\":12067:12105   */\n      tag_153\n      jump\t// in\n    tag_307:\n        /* \"#utility.yul\":12151:12180   */\n      tag_308\n        /* \"#utility.yul\":12169:12179   */\n      dup5\n        /* \"#utility.yul\":12151:12180   */\n      tag_154\n      jump\t// in\n    tag_308:\n        /* \"#utility.yul\":12141:12149   */\n      dup2\n        /* \"#utility.yul\":12137:12181   */\n      add\n        /* \"#utility.yul\":12334:12336   */\n      0x20\n        /* \"#utility.yul\":12322:12332   */\n      dup6\n        /* \"#utility.yul\":12319:12337   */\n      lt\n        /* \"#utility.yul\":12316:12365   */\n      iszero\n      tag_309\n      jumpi\n        /* \"#utility.yul\":12355:12363   */\n      dup2\n        /* \"#utility.yul\":12340:12363   */\n      swap1\n      pop\n        /* \"#utility.yul\":12316:12365   */\n    tag_309:\n        /* \"#utility.yul\":12378:12458   */\n      tag_310\n        /* \"#utility.yul\":12434:12456   */\n      tag_311\n        /* \"#utility.yul\":12452:12455   */\n      dup6\n        /* \"#utility.yul\":12434:12456   */\n      tag_154\n      jump\t// in\n    tag_311:\n        /* \"#utility.yul\":12424:12432   */\n      dup4\n        /* \"#utility.yul\":12420:12457   */\n      add\n        /* \"#utility.yul\":12407:12418   */\n      dup3\n        /* \"#utility.yul\":12378:12458   */\n      tag_163\n      jump\t// in\n    tag_310:\n        /* \"#utility.yul\":12037:12468   */\n      pop\n      pop\n        /* \"#utility.yul\":12022:12468   */\n    tag_306:\n        /* \"#utility.yul\":11932:12475   */\n      pop\n      pop\n      pop\n      jump\t// out\n        /* \"#utility.yul\":12481:12598   */\n    tag_165:\n        /* \"#utility.yul\":12535:12543   */\n      0x00\n        /* \"#utility.yul\":12585:12590   */\n      dup3\n        /* \"#utility.yul\":12579:12583   */\n      dup3\n        /* \"#utility.yul\":12575:12591   */\n      shr\n        /* \"#utility.yul\":12554:12591   */\n      swap1\n      pop\n        /* \"#utility.yul\":12481:12598   */\n      swap3\n      swap2\n      pop\n      pop\n      jump\t// out\n        /* \"#utility.yul\":12604:12773   */\n    tag_166:\n        /* \"#utility.yul\":12648:12654   */\n      0x00\n        /* \"#utility.yul\":12681:12732   */\n      tag_314\n        /* \"#utility.yul\":12729:12730   */\n      0x00\n        /* \"#utility.yul\":12725:12731   */\n      not\n        /* \"#utility.yul\":12717:12722   */\n      dup5\n        /* \"#utility.yul\":12714:12715   */\n      0x08\n        /* \"#utility.yul\":12710:12723   */\n      mul\n        /* \"#utility.yul\":12681:12732   */\n      tag_165\n      jump\t// in\n    tag_314:\n        /* \"#utility.yul\":12677:12733   */\n      not\n        /* \"#utility.yul\":12762:12766   */\n      dup1\n        /* \"#utility.yul\":12756:12760   */\n      dup4\n        /* \"#utility.yul\":12752:12767   */\n      and\n        /* \"#utility.yul\":12742:12767   */\n      swap2\n      pop\n        /* \"#utility.yul\":12655:12773   */\n      pop\n        /* \"#utility.yul\":12604:12773   */\n      swap3\n      swap2\n      pop\n      pop\n      jump\t// out\n        /* \"#utility.yul\":12778:13073   */\n    tag_167:\n        /* \"#utility.yul\":12854:12858   */\n      0x00\n        /* \"#utility.yul\":13000:13029   */\n      tag_316\n        /* \"#utility.yul\":13025:13028   */\n      dup4\n        /* \"#utility.yul\":13019:13023   */\n      dup4\n        /* \"#utility.yul\":13000:13029   */\n      tag_166\n      jump\t// in\n    tag_316:\n        /* \"#utility.yul\":12992:13029   */\n      swap2\n      pop\n        /* \"#utility.yul\":13062:13065   */\n      dup3\n        /* \"#utility.yul\":13059:13060   */\n      0x02\n        /* \"#utility.yul\":13055:13066   */\n      mul\n        /* \"#utility.yul\":13049:13053   */\n      dup3\n        /* \"#utility.yul\":13046:13067   */\n      or\n        /* \"#utility.yul\":13038:13067   */\n      swap1\n      pop\n        /* \"#utility.yul\":12778:13073   */\n      swap3\n      swap2\n      pop\n      pop\n      jump\t// out\n        /* \"#utility.yul\":13078:14473   */\n    tag_105:\n        /* \"#utility.yul\":13195:13232   */\n      tag_318\n        /* \"#utility.yul\":13228:13231   */\n      dup3\n        /* \"#utility.yul\":13195:13232   */\n      tag_135\n      jump\t// in\n    tag_318:\n        /* \"#utility.yul\":13297:13315   */\n      0xffffffffffffffff\n        /* \"#utility.yul\":13289:13295   */\n      dup2\n        /* \"#utility.yul\":13286:13316   */\n      gt\n        /* \"#utility.yul\":13283:13339   */\n      iszero\n      tag_319\n      jumpi\n        /* \"#utility.yul\":13319:13337   */\n      tag_320\n      tag_143\n      jump\t// in\n    tag_320:\n        /* \"#utility.yul\":13283:13339   */\n    tag_319:\n        /* \"#utility.yul\":13363:13401   */\n      tag_321\n        /* \"#utility.yul\":13395:13399   */\n      dup3\n        /* \"#utility.yul\":13389:13400   */\n      sload\n        /* \"#utility.yul\":13363:13401   */\n      tag_88\n      jump\t// in\n    tag_321:\n        /* \"#utility.yul\":13448:13515   */\n      tag_322\n        /* \"#utility.yul\":13508:13514   */\n      dup3\n        /* \"#utility.yul\":13500:13506   */\n      dup3\n        /* \"#utility.yul\":13494:13498   */\n      dup6\n        /* \"#utility.yul\":13448:13515   */\n      tag_164\n      jump\t// in\n    tag_322:\n        /* \"#utility.yul\":13542:13543   */\n      0x00\n        /* \"#utility.yul\":13566:13570   */\n      0x20\n        /* \"#utility.yul\":13553:13570   */\n      swap1\n      pop\n        /* \"#utility.yul\":13598:13600   */\n      0x1f\n        /* \"#utility.yul\":13590:13596   */\n      dup4\n        /* \"#utility.yul\":13587:13601   */\n      gt\n        /* \"#utility.yul\":13615:13616   */\n      0x01\n        /* \"#utility.yul\":13610:14228   */\n      dup2\n      eq\n      tag_324\n      jumpi\n        /* \"#utility.yul\":14272:14273   */\n      0x00\n        /* \"#utility.yul\":14289:14295   */\n      dup5\n        /* \"#utility.yul\":14286:14363   */\n      iszero\n      tag_325\n      jumpi\n        /* \"#utility.yul\":14338:14347   */\n      dup3\n        /* \"#utility.yul\":14333:14336   */\n      dup8\n        /* \"#utility.yul\":14329:14348   */\n      add\n        /* \"#utility.yul\":14323:14349   */\n      mload\n        /* \"#utility.yul\":14314:14349   */\n      swap1\n      pop\n        /* \"#utility.yul\":14286:14363   */\n    tag_325:\n        /* \"#utility.yul\":14389:14456   */\n      tag_326\n        /* \"#utility.yul\":14449:14455   */\n      dup6\n        /* \"#utility.yul\":14442:14447   */\n      dup3\n        /* \"#utility.yul\":14389:14456   */\n      tag_167\n      jump\t// in\n    tag_326:\n        /* \"#utility.yul\":14383:14387   */\n      dup7\n        /* \"#utility.yul\":14376:14457   */\n      sstore\n        /* \"#utility.yul\":14245:14467   */\n      pop\n        /* \"#utility.yul\":13580:14467   */\n      jump(tag_323)\n        /* \"#utility.yul\":13610:14228   */\n    tag_324:\n        /* \"#utility.yul\":13662:13666   */\n      0x1f\n        /* \"#utility.yul\":13658:13667   */\n      not\n        /* \"#utility.yul\":13650:13656   */\n      dup5\n        /* \"#utility.yul\":13646:13668   */\n      and\n        /* \"#utility.yul\":13696:13733   */\n      tag_327\n        /* \"#utility.yul\":13728:13732   */\n      dup7\n        /* \"#utility.yul\":13696:13733   */\n      tag_153\n      jump\t// in\n    tag_327:\n        /* \"#utility.yul\":13755:13756   */\n      0x00\n        /* \"#utility.yul\":13769:13977   */\n    tag_328:\n        /* \"#utility.yul\":13783:13790   */\n      dup3\n        /* \"#utility.yul\":13780:13781   */\n      dup2\n        /* \"#utility.yul\":13777:13791   */\n      lt\n        /* \"#utility.yul\":13769:13977   */\n      iszero\n      tag_330\n      jumpi\n        /* \"#utility.yul\":13862:13871   */\n      dup5\n        /* \"#utility.yul\":13857:13860   */\n      dup10\n        /* \"#utility.yul\":13853:13872   */\n      add\n        /* \"#utility.yul\":13847:13873   */\n      mload\n        /* \"#utility.yul\":13839:13845   */\n      dup3\n        /* \"#utility.yul\":13832:13874   */\n      sstore\n        /* \"#utility.yul\":13913:13914   */\n      0x01\n        /* \"#utility.yul\":13905:13911   */\n      dup3\n        /* \"#utility.yul\":13901:13915   */\n      add\n        /* \"#utility.yul\":13891:13915   */\n      swap2\n      pop\n        /* \"#utility.yul\":13960:13962   */\n      0x20\n        /* \"#utility.yul\":13949:13958   */\n      dup6\n        /* \"#utility.yul\":13945:13963   */\n      add\n        /* \"#utility.yul\":13932:13963   */\n      swap5\n      pop\n        /* \"#utility.yul\":13806:13810   */\n      0x20\n        /* \"#utility.yul\":13803:13804   */\n      dup2\n        /* \"#utility.yul\":13799:13811   */\n      add\n        /* \"#utility.yul\":13794:13811   */\n      swap1\n      pop\n        /* \"#utility.yul\":13769:13977   */\n      jump(tag_328)\n    tag_330:\n        /* \"#utility.yul\":14005:14011   */\n      dup7\n        /* \"#utility.yul\":13996:14003   */\n      dup4\n        /* \"#utility.yul\":13993:14012   */\n      lt\n        /* \"#utility.yul\":13990:14169   */\n      iszero\n      tag_331\n      jumpi\n        /* \"#utility.yul\":14063:14072   */\n      dup5\n        /* \"#utility.yul\":14058:14061   */\n      dup10\n        /* \"#utility.yul\":14054:14073   */\n      add\n        /* \"#utility.yul\":14048:14074   */\n      mload\n        /* \"#utility.yul\":14106:14154   */\n      tag_332\n        /* \"#utility.yul\":14148:14152   */\n      0x1f\n        /* \"#utility.yul\":14140:14146   */\n      dup10\n        /* \"#utility.yul\":14136:14153   */\n      and\n        /* \"#utility.yul\":14125:14134   */\n      dup3\n        /* \"#utility.yul\":14106:14154   */\n      tag_166\n      jump\t// in\n    tag_332:\n        /* \"#utility.yul\":14098:14104   */\n      dup4\n        /* \"#utility.yul\":14091:14155   */\n      sstore\n        /* \"#utility.yul\":14013:14169   */\n      pop\n        /* \"#utility.yul\":13990:14169   */\n    tag_331:\n        /* \"#utility.yul\":14215:14216   */\n      0x01\n        /* \"#utility.yul\":14211:14212   */\n      0x02\n        /* \"#utility.yul\":14203:14209   */\n      dup9\n        /* \"#utility.yul\":14199:14213   */\n      mul\n        /* \"#utility.yul\":14195:14217   */\n      add\n        /* \"#utility.yul\":14189:14193   */\n      dup9\n        /* \"#utility.yul\":14182:14218   */\n      sstore\n        /* \"#utility.yul\":13617:14228   */\n      pop\n      pop\n      pop\n        /* \"#utility.yul\":13580:14467   */\n    tag_323:\n      pop\n        /* \"#utility.yul\":13170:14473   */\n      pop\n      pop\n      pop\n        /* \"#utility.yul\":13078:14473   */\n      pop\n      pop\n      jump\t// out\n        /* \"#utility.yul\":14479:14712   */\n    tag_109:\n        /* \"#utility.yul\":14518:14521   */\n      0x00\n        /* \"#utility.yul\":14541:14565   */\n      tag_334\n        /* \"#utility.yul\":14559:14564   */\n      dup3\n        /* \"#utility.yul\":14541:14565   */\n      tag_125\n      jump\t// in\n    tag_334:\n        /* \"#utility.yul\":14532:14565   */\n      swap2\n      pop\n        /* \"#utility.yul\":14587:14653   */\n      0xffffffffffffffffffffffffffffffffffffffffffffffffffffffffffffffff\n        /* \"#utility.yul\":14580:14585   */\n      dup3\n        /* \"#utility.yul\":14577:14654   */\n      sub\n        /* \"#utility.yul\":14574:14677   */\n      tag_335\n      jumpi\n        /* \"#utility.yul\":14657:14675   */\n      tag_336\n      tag_151\n      jump\t// in\n    tag_336:\n        /* \"#utility.yul\":14574:14677   */\n    tag_335:\n        /* \"#utility.yul\":14704:14705   */\n      0x01\n        /* \"#utility.yul\":14697:14702   */\n      dup3\n        /* \"#utility.yul\":14693:14706   */\n      add\n        /* \"#utility.yul\":14686:14706   */\n      swap1\n      pop\n        /* \"#utility.yul\":14479:14712   */\n      swap2\n      swap1\n      pop\n      jump\t// out\n\n    auxdata: 0xa2646970667358221220d74fc54084588dc351ffac44fd563ba6f1f03c8a8447cf22ddadb3d93be5ffef64736f6c63430008140033\n}\n","bytecode":{"linkReferences":{},"object":"608060405234801562000010575f80fd5b506040516200180c3803806200180c8339818101604052810190620000369190620002b6565b8160015f6101000a81548173ffffffffffffffffffffffffffffffffffffffff021916908373ffffffffffffffffffffffffffffffffffffffff1602179055508260038190555080600290816200008e91906200055c565b5050505062000640565b5f604051905090565b5f80fd5b5f80fd5b5f819050919050565b620000bd81620000a9565b8114620000c8575f80fd5b50565b5f81519050620000db81620000b2565b92915050565b5f73ffffffffffffffffffffffffffffffffffffffff82169050919050565b5f6200010c82620000e1565b9050919050565b6200011e8162000100565b811462000129575f80fd5b50565b5f815190506200013c8162000113565b92915050565b5f80fd5b5f80fd5b5f601f19601f8301169050919050565b7f4e487b71000000000000000000000000000000000000000000000000000000005f52604160045260245ffd5b62000192826200014a565b810181811067ffffffffffffffff82111715620001b457620001b36200015a565b5b80604052505050565b5f620001c862000098565b9050620001d6828262000187565b919050565b5f67ffffffffffffffff821115620001f857620001f76200015a565b5b62000203826200014a565b9050602081019050919050565b5f5b838110156200022f57808201518184015260208101905062000212565b5f8484015250505050565b5f620002506200024a84620001db565b620001bd565b9050828152602081018484840111156200026f576200026e62000146565b5b6200027c84828562000210565b509392505050565b5f82601f8301126200029b576200029a62000142565b5b8151620002ad8482602086016200023a565b91505092915050565b5f805f60608486031215620002d057620002cf620000a1565b5b5f620002df86828701620000cb565b9350506020620002f2868287016200012c565b925050604084015167ffffffffffffffff811115620003165762000315620000a5565b5b620003248682870162000284565b9150509250925092565b5f81519050919050565b7f4e487b71000000000000000000000000000000000000000000000000000000005f52602260045260245ffd5b5f60028204905060018216806200037d57607f821691505b60208210810362000393576200039262000338565b5b50919050565b5f819050815f5260205f209050919050565b5f6020601f8301049050919050565b5f82821b905092915050565b5f60088302620003f77fffffffffffffffffffffffffffffffffffffffffffffffffffffffffffffffff82620003ba565b620004038683620003ba565b95508019841693508086168417925050509392505050565b5f819050919050565b5f620004446200043e6200043884620000a9565b6200041b565b620000a9565b9050919050565b5f819050919050565b6200045f8362000424565b620004776200046e826200044b565b848454620003c6565b825550505050565b5f90565b6200048d6200047f565b6200049a81848462000454565b505050565b5b81811015620004c157620004b55f8262000483565b600181019050620004a0565b5050565b601f8211156200051057620004da8162000399565b620004e584620003ab565b81016020851015620004f5578190505b6200050d6200050485620003ab565b8301826200049f565b50505b505050565b5f82821c905092915050565b5f620005325f198460080262000515565b1980831691505092915050565b5f6200054c838362000521565b9150826002028217905092915050565b62000567826200032e565b67ffffffffffffffff8111156200058357620005826200015a565b5b6200058f825462000365565b6200059c828285620004c5565b5f60209050601f831160018114620005d2575f8415620005bd578287015190505b620005c985826200053f565b86555062000638565b601f198416620005e28662000399565b5f5b828110156200060b57848901518255600182019150602085019450602081019050620005e4565b868310156200062b578489015162000627601f89168262000521565b8355505b6001600288020188555050505b505050505050565b6111be806200064e5f395ff3fe6080604052600436106100a6575f3560e01c806382fde0931161006357806382fde093146101d15780638a9cfd55146101fb578063937e09b114610223578063d7bb99ba1461024d578063d7d1bbdb14610257578063fed4416a1461027f576100a6565b806303441006146100aa5780630a144391146100d25780633410452a1461010e5780634051ddac14610138578063481c6a751461016757806381d12c5814610191575b5f80fd5b3480156100b5575f80fd5b506100d060048036038101906100cb919061098e565b6102a9565b005b3480156100dd575f80fd5b506100f860048036038101906100f39190610a13565b6103e7565b6040516101059190610a58565b60405180910390f35b348015610119575f80fd5b50610122610404565b60405161012f9190610a80565b60405180910390f35b348015610143575f80fd5b5061014c61040f565b60405161015e96959493929190610b32565b60405180910390f35b348015610172575f80fd5b5061017b6104e4565b6040516101889190610b98565b60405180910390f35b34801561019c575f80fd5b506101b760048036038101906101b2919061098e565b610509565b6040516101c8959493929190610bb1565b60405180910390f35b3480156101dc575f80fd5b506101e56105fb565b6040516101f29190610a80565b60405180910390f35b348015610206575f80fd5b50610221600480360381019061021c9190610d35565b610601565b005b34801561022e575f80fd5b50610237610700565b6040516102449190610a80565b60405180910390f35b610255610706565b005b348015610262575f80fd5b5061027d6004803603810190610278919061098e565b610781565b005b34801561028a575f80fd5b506102936108be565b6040516102a09190610da1565b60405180910390f35b60015f9054906101000a900473ffffffffffffffffffffffffffffffffffffffff1673ffffffffffffffffffffffffffffffffffffffff163373ffffffffffffffffffffffffffffffffffffffff1614610301575f80fd5b5f80828154811061031557610314610dc1565b5b905f5260205f209060050201905060026005546103329190610e48565b816003015411610340575f80fd5b8060020160149054906101000a900460ff161561035b575f80fd5b806002015f9054906101000a900473ffffffffffffffffffffffffffffffffffffffff1673ffffffffffffffffffffffffffffffffffffffff166108fc826001015490811502906040515f60405180830381858888f193505050501580156103c5573d5f803e3d5ffd5b5060018160020160146101000a81548160ff0219169083151502179055505050565b6004602052805f5260405f205f915054906101000a900460ff1681565b5f8080549050905090565b60605f805f805f6002600354475f8054905060055460015f9054906101000a900473ffffffffffffffffffffffffffffffffffffffff1685805461045290610ea5565b80601f016020809104026020016040519081016040528092919081815260200182805461047e90610ea5565b80156104c95780601f106104a0576101008083540402835291602001916104c9565b820191905f5260205f20905b8154815290600101906020018083116104ac57829003601f168201915b50505050509550955095509550955095509550909192939495565b60015f9054906101000a900473ffffffffffffffffffffffffffffffffffffffff1681565b5f8181548110610517575f80fd5b905f5260205f2090600502015f91509050805f01805461053690610ea5565b80601f016020809104026020016040519081016040528092919081815260200182805461056290610ea5565b80156105ad5780601f10610584576101008083540402835291602001916105ad565b820191905f5260205f20905b81548152906001019060200180831161059057829003601f168201915b505050505090806001015490806002015f9054906101000a900473ffffffffffffffffffffffffffffffffffffffff16908060020160149054906101000a900460ff16908060030154905085565b60055481565b60015f9054906101000a900473ffffffffffffffffffffffffffffffffffffffff1673ffffffffffffffffffffffffffffffffffffffff163373ffffffffffffffffffffffffffffffffffffffff1614610659575f80fd5b5f8060018160018154018082558091505003905f5260205f209060050201905083815f0190816106899190611072565b5082816001018190555081816002015f6101000a81548173ffffffffffffffffffffffffffffffffffffffff021916908373ffffffffffffffffffffffffffffffffffffffff1602179055505f8160020160146101000a81548160ff0219169083151502179055505f816003018190555050505050565b60035481565b6003543411610713575f80fd5b600160045f3373ffffffffffffffffffffffffffffffffffffffff1673ffffffffffffffffffffffffffffffffffffffff1681526020019081526020015f205f6101000a81548160ff02191690831515021790555060055f81548092919061077a90611141565b9190505550565b5f80828154811061079557610794610dc1565b5b905f5260205f209060050201905060045f3373ffffffffffffffffffffffffffffffffffffffff1673ffffffffffffffffffffffffffffffffffffffff1681526020019081526020015f205f9054906101000a900460ff166107f5575f80fd5b806004015f3373ffffffffffffffffffffffffffffffffffffffff1673ffffffffffffffffffffffffffffffffffffffff1681526020019081526020015f205f9054906101000a900460ff161561084a575f80fd5b6001816004015f3373ffffffffffffffffffffffffffffffffffffffff1673ffffffffffffffffffffffffffffffffffffffff1681526020019081526020015f205f6101000a81548160ff021916908315150217905550806003015f8154809291906108b590611141565b91905055505050565b600280546108cb90610ea5565b80601f01602080910402602001604051908101604052809291908181526020018280546108f790610ea5565b80156109425780601f1061091957610100808354040283529160200191610942565b820191905f5260205f20905b81548152906001019060200180831161092557829003601f168201915b505050505081565b5f604051905090565b5f80fd5b5f80fd5b5f819050919050565b61096d8161095b565b8114610977575f80fd5b50565b5f8135905061098881610964565b92915050565b5f602082840312156109a3576109a2610953565b5b5f6109b08482850161097a565b91505092915050565b5f73ffffffffffffffffffffffffffffffffffffffff82169050919050565b5f6109e2826109b9565b9050919050565b6109f2816109d8565b81146109fc575f80fd5b50565b5f81359050610a0d816109e9565b92915050565b5f60208284031215610a2857610a27610953565b5b5f610a35848285016109ff565b91505092915050565b5f8115159050919050565b610a5281610a3e565b82525050565b5f602082019050610a6b5f830184610a49565b92915050565b610a7a8161095b565b82525050565b5f602082019050610a935f830184610a71565b92915050565b5f81519050919050565b5f82825260208201905092915050565b5f5b83811015610ad0578082015181840152602081019050610ab5565b5f8484015250505050565b5f601f19601f8301169050919050565b5f610af582610a99565b610aff8185610aa3565b9350610b0f818560208601610ab3565b610b1881610adb565b840191505092915050565b610b2c816109d8565b82525050565b5f60c0820190508181035f830152610b4a8189610aeb565b9050610b596020830188610a71565b610b666040830187610a71565b610b736060830186610a71565b610b806080830185610a71565b610b8d60a0830184610b23565b979650505050505050565b5f602082019050610bab5f830184610b23565b92915050565b5f60a0820190508181035f830152610bc98188610aeb565b9050610bd86020830187610a71565b610be56040830186610b23565b610bf26060830185610a49565b610bff6080830184610a71565b9695505050505050565b5f80fd5b5f80fd5b7f4e487b71000000000000000000000000000000000000000000000000000000005f52604160045260245ffd5b610c4782610adb565b810181811067ffffffffffffffff82111715610c6657610c65610c11565b5b80604052505050565b5f610c7861094a565b9050610c848282610c3e565b919050565b5f67ffffffffffffffff821115610ca357610ca2610c11565b5b610cac82610adb565b9050602081019050919050565b828183375f83830152505050565b5f610cd9610cd484610c89565b610c6f565b905082815260208101848484011115610cf557610cf4610c0d565b5b610d00848285610cb9565b509392505050565b5f82601f830112610d1c57610d1b610c09565b5b8135610d2c848260208601610cc7565b91505092915050565b5f805f60608486031215610d4c57610d4b610953565b5b5f84013567ffffffffffffffff811115610d6957610d68610957565b5b610d7586828701610d08565b9350506020610d868682870161097a565b9250506040610d97868287016109ff565b9150509250925092565b5f6020820190508181035f830152610db98184610aeb565b905092915050565b7f4e487b71000000000000000000000000000000000000000000000000000000005f52603260045260245ffd5b7f4e487b71000000000000000000000000000000000000000000000000000000005f52601260045260245ffd5b7f4e487b71000000000000000000000000000000000000000000000000000000005f52601160045260245ffd5b5f610e528261095b565b9150610e5d8361095b565b925082610e6d57610e6c610dee565b5b828204905092915050565b7f4e487b71000000000000000000000000000000000000000000000000000000005f52602260045260245ffd5b5f6002820490506001821680610ebc57607f821691505b602082108103610ecf57610ece610e78565b5b50919050565b5f819050815f5260205f209050919050565b5f6020601f8301049050919050565b5f82821b905092915050565b5f60088302610f317fffffffffffffffffffffffffffffffffffffffffffffffffffffffffffffffff82610ef6565b610f3b8683610ef6565b95508019841693508086168417925050509392505050565b5f819050919050565b5f610f76610f71610f6c8461095b565b610f53565b61095b565b9050919050565b5f819050919050565b610f8f83610f5c565b610fa3610f9b82610f7d565b848454610f02565b825550505050565b5f90565b610fb7610fab565b610fc2818484610f86565b505050565b5b81811015610fe557610fda5f82610faf565b600181019050610fc8565b5050565b601f82111561102a57610ffb81610ed5565b61100484610ee7565b81016020851015611013578190505b61102761101f85610ee7565b830182610fc7565b50505b505050565b5f82821c905092915050565b5f61104a5f198460080261102f565b1980831691505092915050565b5f611062838361103b565b9150826002028217905092915050565b61107b82610a99565b67ffffffffffffffff81111561109457611093610c11565b5b61109e8254610ea5565b6110a9828285610fe9565b5f60209050601f8311600181146110da575f84156110c8578287015190505b6110d28582611057565b865550611139565b601f1984166110e886610ed5565b5f5b8281101561110f578489015182556001820191506020850194506020810190506110ea565b8683101561112c5784890151611128601f89168261103b565b8355505b6001600288020188555050505b505050505050565b5f61114b8261095b565b91507fffffffffffffffffffffffffffffffffffffffffffffffffffffffffffffffff820361117d5761117c610e1b565b5b60018201905091905056fea2646970667358221220d74fc54084588dc351ffac44fd563ba6f1f03c8a8447cf22ddadb3d93be5ffef64736f6c63430008140033","opcodes":"PUSH1 0x80 PUSH1 0x40 MSTORE CALLVALUE DUP1 ISZERO PUSH3 0x10 JUMPI PUSH0 DUP1 REVERT JUMPDEST POP PUSH1 0x40 MLOAD PUSH3 0x180C CODESIZE SUB DUP1 PUSH3 0x180C DUP4 CODECOPY DUP2 DUP2 ADD PUSH1 0x40 MSTORE DUP2 ADD SWAP1 PUSH3 0x36 SWAP2 SWAP1 PUSH3 0x2B6 JUMP JUMPDEST DUP2 PUSH1 0x1 PUSH0 PUSH2 0x100 EXP DUP2 SLOAD DUP2 PUSH20 0xFFFFFFFFFFFFFFFFFFFFFFFFFFFFFFFFFFFFFFFF MUL NOT AND SWAP1 DUP4 PUSH20 0xFFFFFFFFFFFFFFFFFFFFFFFFFFFFFFFFFFFFFFFF AND MUL OR SWAP1 SSTORE POP DUP3 PUSH1 0x3 DUP2 SWAP1 SSTORE POP DUP1 PUSH1 0x2 SWAP1 DUP2 PUSH3 0x8E SWAP2 SWAP1 PUSH3 0x55C JUMP JUMPDEST POP POP POP POP PUSH3 0x640 JUMP JUMPDEST PUSH0 PUSH1 0x40 MLOAD SWAP1 POP SWAP1 JUMP JUMPDEST PUSH0 DUP1 REVERT JUMPDEST PUSH0 DUP1 REVERT JUMPDEST PUSH0 DUP2 SWAP1 POP SWAP2 SWAP1 POP JUMP JUMPDEST PUSH3 0xBD DUP2 PUSH3 0xA9 JUMP JUMPDEST DUP2 EQ PUSH3 0xC8 JUMPI PUSH0 DUP1 REVERT JUMPDEST POP JUMP JUMPDEST PUSH0 DUP2 MLOAD SWAP1 POP PUSH3 0xDB DUP2 PUSH3 0xB2 JUMP JUMPDEST SWAP3 SWAP2 POP POP JUMP JUMPDEST PUSH0 PUSH20 0xFFFFFFFFFFFFFFFFFFFFFFFFFFFFFFFFFFFFFFFF DUP3 AND SWAP1 POP SWAP2 SWAP1 POP JUMP JUMPDEST PUSH0 PUSH3 0x10C DUP3 PUSH3 0xE1 JUMP JUMPDEST SWAP1 POP SWAP2 SWAP1 POP JUMP JUMPDEST PUSH3 0x11E DUP2 PUSH3 0x100 JUMP JUMPDEST DUP2 EQ PUSH3 0x129 JUMPI PUSH0 DUP1 REVERT JUMPDEST POP JUMP JUMPDEST PUSH0 DUP2 MLOAD SWAP1 POP PUSH3 0x13C DUP2 PUSH3 0x113 JUMP JUMPDEST SWAP3 SWAP2 POP POP JUMP JUMPDEST PUSH0 DUP1 REVERT JUMPDEST PUSH0 DUP1 REVERT JUMPDEST PUSH0 PUSH1 0x1F NOT PUSH1 0x1F DUP4 ADD AND SWAP1 POP SWAP2 SWAP1 POP JUMP JUMPDEST PUSH32 0x4E487B7100000000000000000000000000000000000000000000000000000000 PUSH0 MSTORE PUSH1 0x41 PUSH1 0x4 MSTORE PUSH1 0x24 PUSH0 REVERT JUMPDEST PUSH3 0x192 DUP3 PUSH3 0x14A JUMP JUMPDEST DUP2 ADD DUP2 DUP2 LT PUSH8 0xFFFFFFFFFFFFFFFF DUP3 GT OR ISZERO PUSH3 0x1B4 JUMPI PUSH3 0x1B3 PUSH3 0x15A JUMP JUMPDEST JUMPDEST DUP1 PUSH1 0x40 MSTORE POP POP POP JUMP JUMPDEST PUSH0 PUSH3 0x1C8 PUSH3 0x98 JUMP JUMPDEST SWAP1 POP PUSH3 0x1D6 DUP3 DUP3 PUSH3 0x187 JUMP JUMPDEST SWAP2 SWAP1 POP JUMP JUMPDEST PUSH0 PUSH8 0xFFFFFFFFFFFFFFFF DUP3 GT ISZERO PUSH3 0x1F8 JUMPI PUSH3 0x1F7 PUSH3 0x15A JUMP JUMPDEST JUMPDEST PUSH3 0x203 DUP3 PUSH3 0x14A JUMP JUMPDEST SWAP1 POP PUSH1 0x20 DUP2 ADD SWAP1 POP SWAP2 SWAP1 POP JUMP JUMPDEST PUSH0 JUMPDEST DUP4 DUP2 LT ISZERO PUSH3 0x22F JUMPI DUP1 DUP3 ADD MLOAD DUP2 DUP5 ADD MSTORE PUSH1 0x20 DUP2 ADD SWAP1 POP PUSH3 0x212 JUMP JUMPDEST PUSH0 DUP5 DUP5 ADD MSTORE POP POP POP POP JUMP JUMPDEST PUSH0 PUSH3 0x250 PUSH3 0x24A DUP5 PUSH3 0x1DB JUMP JUMPDEST PUSH3 0x1BD JUMP JUMPDEST SWAP1 POP DUP3 DUP2 MSTORE PUSH1 0x20 DUP2 ADD DUP5 DUP5 DUP5 ADD GT ISZERO PUSH3 0x26F JUMPI PUSH3 0x26E PUSH3 0x146 JUMP JUMPDEST JUMPDEST PUSH3 0x27C DUP5 DUP3 DUP6 PUSH3 0x210 JUMP JUMPDEST POP SWAP4 SWAP3 POP POP POP JUMP JUMPDEST PUSH0 DUP3 PUSH1 0x1F DUP4 ADD SLT PUSH3 0x29B JUMPI PUSH3 0x29A PUSH3 0x142 JUMP JUMPDEST JUMPDEST DUP2 MLOAD PUSH3 0x2AD DUP5 DUP3 PUSH1 0x20 DUP7 ADD PUSH3 0x23A JUMP JUMPDEST SWAP2 POP POP SWAP3 SWAP2 POP POP JUMP JUMPDEST PUSH0 DUP1 PUSH0 PUSH1 0x60 DUP5 DUP7 SUB SLT ISZERO PUSH3 0x2D0 JUMPI PUSH3 0x2CF PUSH3 0xA1 JUMP JUMPDEST JUMPDEST PUSH0 PUSH3 0x2DF DUP7 DUP3 DUP8 ADD PUSH3 0xCB JUMP JUMPDEST SWAP4 POP POP PUSH1 0x20 PUSH3 0x2F2 DUP7 DUP3 DUP8 ADD PUSH3 0x12C JUMP JUMPDEST SWAP3 POP POP PUSH1 0x40 DUP5 ADD MLOAD PUSH8 0xFFFFFFFFFFFFFFFF DUP2 GT ISZERO PUSH3 0x316 JUMPI PUSH3 0x315 PUSH3 0xA5 JUMP JUMPDEST JUMPDEST PUSH3 0x324 DUP7 DUP3 DUP8 ADD PUSH3 0x284 JUMP JUMPDEST SWAP2 POP POP SWAP3 POP SWAP3 POP SWAP3 JUMP JUMPDEST PUSH0 DUP2 MLOAD SWAP1 POP SWAP2 SWAP1 POP JUMP JUMPDEST PUSH32 0x4E487B7100000000000000000000000000000000000000000000000000000000 PUSH0 MSTORE PUSH1 0x22 PUSH1 0x4 MSTORE PUSH1 0x24 PUSH0 REVERT JUMPDEST PUSH0 PUSH1 0x2 DUP3 DIV SWAP1 POP PUSH1 0x1 DUP3 AND DUP1 PUSH3 0x37D JUMPI PUSH1 0x7F DUP3 AND SWAP2 POP JUMPDEST PUSH1 0x20 DUP3 LT DUP2 SUB PUSH3 0x393 JUMPI PUSH3 0x392 PUSH3 0x338 JUMP JUMPDEST JUMPDEST POP SWAP2 SWAP1 POP JUMP JUMPDEST PUSH0 DUP2 SWAP1 POP DUP2 PUSH0 MSTORE PUSH1 0x20 PUSH0 KECCAK256 SWAP1 POP SWAP2 SWAP1 POP JUMP JUMPDEST PUSH0 PUSH1 0x20 PUSH1 0x1F DUP4 ADD DIV SWAP1 POP SWAP2 SWAP1 POP JUMP JUMPDEST PUSH0 DUP3 DUP3 SHL SWAP1 POP SWAP3 SWAP2 POP POP JUMP JUMPDEST PUSH0 PUSH1 0x8 DUP4 MUL PUSH3 0x3F7 PUSH32 0xFFFFFFFFFFFFFFFFFFFFFFFFFFFFFFFFFFFFFFFFFFFFFFFFFFFFFFFFFFFFFFFF DUP3 PUSH3 0x3BA JUMP JUMPDEST PUSH3 0x403 DUP7 DUP4 PUSH3 0x3BA JUMP JUMPDEST SWAP6 POP DUP1 NOT DUP5 AND SWAP4 POP DUP1 DUP7 AND DUP5 OR SWAP3 POP POP POP SWAP4 SWAP3 POP POP POP JUMP JUMPDEST PUSH0 DUP2 SWAP1 POP SWAP2 SWAP1 POP JUMP JUMPDEST PUSH0 PUSH3 0x444 PUSH3 0x43E PUSH3 0x438 DUP5 PUSH3 0xA9 JUMP JUMPDEST PUSH3 0x41B JUMP JUMPDEST PUSH3 0xA9 JUMP JUMPDEST SWAP1 POP SWAP2 SWAP1 POP JUMP JUMPDEST PUSH0 DUP2 SWAP1 POP SWAP2 SWAP1 POP JUMP JUMPDEST PUSH3 0x45F DUP4 PUSH3 0x424 JUMP JUMPDEST PUSH3 0x477 PUSH3 0x46E DUP3 PUSH3 0x44B JUMP JUMPDEST DUP5 DUP5 SLOAD PUSH3 0x3C6 JUMP JUMPDEST DUP3 SSTORE POP POP POP POP JUMP JUMPDEST PUSH0 SWAP1 JUMP JUMPDEST PUSH3 0x48D PUSH3 0x47F JUMP JUMPDEST PUSH3 0x49A DUP2 DUP5 DUP5 PUSH3 0x454 JUMP JUMPDEST POP POP POP JUMP JUMPDEST JUMPDEST DUP2 DUP2 LT ISZERO PUSH3 0x4C1 JUMPI PUSH3 0x4B5 PUSH0 DUP3 PUSH3 0x483 JUMP JUMPDEST PUSH1 0x1 DUP2 ADD SWAP1 POP PUSH3 0x4A0 JUMP JUMPDEST POP POP JUMP JUMPDEST PUSH1 0x1F DUP3 GT ISZERO PUSH3 0x510 JUMPI PUSH3 0x4DA DUP2 PUSH3 0x399 JUMP JUMPDEST PUSH3 0x4E5 DUP5 PUSH3 0x3AB JUMP JUMPDEST DUP2 ADD PUSH1 0x20 DUP6 LT ISZERO PUSH3 0x4F5 JUMPI DUP2 SWAP1 POP JUMPDEST PUSH3 0x50D PUSH3 0x504 DUP6 PUSH3 0x3AB JUMP JUMPDEST DUP4 ADD DUP3 PUSH3 0x49F JUMP JUMPDEST POP POP JUMPDEST POP POP POP JUMP JUMPDEST PUSH0 DUP3 DUP3 SHR SWAP1 POP SWAP3 SWAP2 POP POP JUMP JUMPDEST PUSH0 PUSH3 0x532 PUSH0 NOT DUP5 PUSH1 0x8 MUL PUSH3 0x515 JUMP JUMPDEST NOT DUP1 DUP4 AND SWAP2 POP POP SWAP3 SWAP2 POP POP JUMP JUMPDEST PUSH0 PUSH3 0x54C DUP4 DUP4 PUSH3 0x521 JUMP JUMPDEST SWAP2 POP DUP3 PUSH1 0x2 MUL DUP3 OR SWAP1 POP SWAP3 SWAP2 POP POP JUMP JUMPDEST PUSH3 0x567 DUP3 PUSH3 0x32E JUMP JUMPDEST PUSH8 0xFFFFFFFFFFFFFFFF DUP2 GT ISZERO PUSH3 0x583 JUMPI PUSH3 0x582 PUSH3 0x15A JUMP JUMPDEST JUMPDEST PUSH3 0x58F DUP3 SLOAD PUSH3 0x365 JUMP JUMPDEST PUSH3 0x59C DUP3 DUP3 DUP6 PUSH3 0x4C5 JUMP JUMPDEST PUSH0 PUSH1 0x20 SWAP1 POP PUSH1 0x1F DUP4 GT PUSH1 0x1 DUP2 EQ PUSH3 0x5D2 JUMPI PUSH0 DUP5 ISZERO PUSH3 0x5BD JUMPI DUP3 DUP8 ADD MLOAD SWAP1 POP JUMPDEST PUSH3 0x5C9 DUP6 DUP3 PUSH3 0x53F JUMP JUMPDEST DUP7 SSTORE POP PUSH3 0x638 JUMP JUMPDEST PUSH1 0x1F NOT DUP5 AND PUSH3 0x5E2 DUP7 PUSH3 0x399 JUMP JUMPDEST PUSH0 JUMPDEST DUP3 DUP2 LT ISZERO PUSH3 0x60B JUMPI DUP5 DUP10 ADD MLOAD DUP3 SSTORE PUSH1 0x1 DUP3 ADD SWAP2 POP PUSH1 0x20 DUP6 ADD SWAP5 POP PUSH1 0x20 DUP2 ADD SWAP1 POP PUSH3 0x5E4 JUMP JUMPDEST DUP7 DUP4 LT ISZERO PUSH3 0x62B JUMPI DUP5 DUP10 ADD MLOAD PUSH3 0x627 PUSH1 0x1F DUP10 AND DUP3 PUSH3 0x521 JUMP JUMPDEST DUP4 SSTORE POP JUMPDEST PUSH1 0x1 PUSH1 0x2 DUP9 MUL ADD DUP9 SSTORE POP POP POP JUMPDEST POP POP POP POP POP POP JUMP JUMPDEST PUSH2 0x11BE DUP1 PUSH3 0x64E PUSH0 CODECOPY PUSH0 RETURN INVALID PUSH1 0x80 PUSH1 0x40 MSTORE PUSH1 0x4 CALLDATASIZE LT PUSH2 0xA6 JUMPI PUSH0 CALLDATALOAD PUSH1 0xE0 SHR DUP1 PUSH4 0x82FDE093 GT PUSH2 0x63 JUMPI DUP1 PUSH4 0x82FDE093 EQ PUSH2 0x1D1 JUMPI DUP1 PUSH4 0x8A9CFD55 EQ PUSH2 0x1FB JUMPI DUP1 PUSH4 0x937E09B1 EQ PUSH2 0x223 JUMPI DUP1 PUSH4 0xD7BB99BA EQ PUSH2 0x24D JUMPI DUP1 PUSH4 0xD7D1BBDB EQ PUSH2 0x257 JUMPI DUP1 PUSH4 0xFED4416A EQ PUSH2 0x27F JUMPI PUSH2 0xA6 JUMP JUMPDEST DUP1 PUSH4 0x3441006 EQ PUSH2 0xAA JUMPI DUP1 PUSH4 0xA144391 EQ PUSH2 0xD2 JUMPI DUP1 PUSH4 0x3410452A EQ PUSH2 0x10E JUMPI DUP1 PUSH4 0x4051DDAC EQ PUSH2 0x138 JUMPI DUP1 PUSH4 0x481C6A75 EQ PUSH2 0x167 JUMPI DUP1 PUSH4 0x81D12C58 EQ PUSH2 0x191 JUMPI JUMPDEST PUSH0 DUP1 REVERT JUMPDEST CALLVALUE DUP1 ISZERO PUSH2 0xB5 JUMPI PUSH0 DUP1 REVERT JUMPDEST POP PUSH2 0xD0 PUSH1 0x4 DUP1 CALLDATASIZE SUB DUP2 ADD SWAP1 PUSH2 0xCB SWAP2 SWAP1 PUSH2 0x98E JUMP JUMPDEST PUSH2 0x2A9 JUMP JUMPDEST STOP JUMPDEST CALLVALUE DUP1 ISZERO PUSH2 0xDD JUMPI PUSH0 DUP1 REVERT JUMPDEST POP PUSH2 0xF8 PUSH1 0x4 DUP1 CALLDATASIZE SUB DUP2 ADD SWAP1 PUSH2 0xF3 SWAP2 SWAP1 PUSH2 0xA13 JUMP JUMPDEST PUSH2 0x3E7 JUMP JUMPDEST PUSH1 0x40 MLOAD PUSH2 0x105 SWAP2 SWAP1 PUSH2 0xA58 JUMP JUMPDEST PUSH1 0x40 MLOAD DUP1 SWAP2 SUB SWAP1 RETURN JUMPDEST CALLVALUE DUP1 ISZERO PUSH2 0x119 JUMPI PUSH0 DUP1 REVERT JUMPDEST POP PUSH2 0x122 PUSH2 0x404 JUMP JUMPDEST PUSH1 0x40 MLOAD PUSH2 0x12F SWAP2 SWAP1 PUSH2 0xA80 JUMP JUMPDEST PUSH1 0x40 MLOAD DUP1 SWAP2 SUB SWAP1 RETURN JUMPDEST CALLVALUE DUP1 ISZERO PUSH2 0x143 JUMPI PUSH0 DUP1 REVERT JUMPDEST POP PUSH2 0x14C PUSH2 0x40F JUMP JUMPDEST PUSH1 0x40 MLOAD PUSH2 0x15E SWAP7 SWAP6 SWAP5 SWAP4 SWAP3 SWAP2 SWAP1 PUSH2 0xB32 JUMP JUMPDEST PUSH1 0x40 MLOAD DUP1 SWAP2 SUB SWAP1 RETURN JUMPDEST CALLVALUE DUP1 ISZERO PUSH2 0x172 JUMPI PUSH0 DUP1 REVERT JUMPDEST POP PUSH2 0x17B PUSH2 0x4E4 JUMP JUMPDEST PUSH1 0x40 MLOAD PUSH2 0x188 SWAP2 SWAP1 PUSH2 0xB98 JUMP JUMPDEST PUSH1 0x40 MLOAD DUP1 SWAP2 SUB SWAP1 RETURN JUMPDEST CALLVALUE DUP1 ISZERO PUSH2 0x19C JUMPI PUSH0 DUP1 REVERT JUMPDEST POP PUSH2 0x1B7 PUSH1 0x4 DUP1 CALLDATASIZE SUB DUP2 ADD SWAP1 PUSH2 0x1B2 SWAP2 SWAP1 PUSH2 0x98E JUMP JUMPDEST PUSH2 0x509 JUMP JUMPDEST PUSH1 0x40 MLOAD PUSH2 0x1C8 SWAP6 SWAP5 SWAP4 SWAP3 SWAP2 SWAP1 PUSH2 0xBB1 JUMP JUMPDEST PUSH1 0x40 MLOAD DUP1 SWAP2 SUB SWAP1 RETURN JUMPDEST CALLVALUE DUP1 ISZERO PUSH2 0x1DC JUMPI PUSH0 DUP1 REVERT JUMPDEST POP PUSH2 0x1E5 PUSH2 0x5FB JUMP JUMPDEST PUSH1 0x40 MLOAD PUSH2 0x1F2 SWAP2 SWAP1 PUSH2 0xA80 JUMP JUMPDEST PUSH1 0x40 MLOAD DUP1 SWAP2 SUB SWAP1 RETURN JUMPDEST CALLVALUE DUP1 ISZERO PUSH2 0x206 JUMPI PUSH0 DUP1 REVERT JUMPDEST POP PUSH2 0x221 PUSH1 0x4 DUP1 CALLDATASIZE SUB DUP2 ADD SWAP1 PUSH2 0x21C SWAP2 SWAP1 PUSH2 0xD35 JUMP JUMPDEST PUSH2 0x601 JUMP JUMPDEST STOP JUMPDEST CALLVALUE DUP1 ISZERO PUSH2 0x22E JUMPI PUSH0 DUP1 REVERT JUMPDEST POP PUSH2 0x237 PUSH2 0x700 JUMP JUMPDEST PUSH1 0x40 MLOAD PUSH2 0x244 SWAP2 SWAP1 PUSH2 0xA80 JUMP JUMPDEST PUSH1 0x40 MLOAD DUP1 SWAP2 SUB SWAP1 RETURN JUMPDEST PUSH2 0x255 PUSH2 0x706 JUMP JUMPDEST STOP JUMPDEST CALLVALUE DUP1 ISZERO PUSH2 0x262 JUMPI PUSH0 DUP1 REVERT JUMPDEST POP PUSH2 0x27D PUSH1 0x4 DUP1 CALLDATASIZE SUB DUP2 ADD SWAP1 PUSH2 0x278 SWAP2 SWAP1 PUSH2 0x98E JUMP JUMPDEST PUSH2 0x781 JUMP JUMPDEST STOP JUMPDEST CALLVALUE DUP1 ISZERO PUSH2 0x28A JUMPI PUSH0 DUP1 REVERT JUMPDEST POP PUSH2 0x293 PUSH2 0x8BE JUMP JUMPDEST PUSH1 0x40 MLOAD PUSH2 0x2A0 SWAP2 SWAP1 PUSH2 0xDA1 JUMP JUMPDEST PUSH1 0x40 MLOAD DUP1 SWAP2 SUB SWAP1 RETURN JUMPDEST PUSH1 0x1 PUSH0 SWAP1 SLOAD SWAP1 PUSH2 0x100 EXP SWAP1 DIV PUSH20 0xFFFFFFFFFFFFFFFFFFFFFFFFFFFFFFFFFFFFFFFF AND PUSH20 0xFFFFFFFFFFFFFFFFFFFFFFFFFFFFFFFFFFFFFFFF AND CALLER PUSH20 0xFFFFFFFFFFFFFFFFFFFFFFFFFFFFFFFFFFFFFFFF AND EQ PUSH2 0x301 JUMPI PUSH0 DUP1 REVERT JUMPDEST PUSH0 DUP1 DUP3 DUP2 SLOAD DUP2 LT PUSH2 0x315 JUMPI PUSH2 0x314 PUSH2 0xDC1 JUMP JUMPDEST JUMPDEST SWAP1 PUSH0 MSTORE PUSH1 0x20 PUSH0 KECCAK256 SWAP1 PUSH1 0x5 MUL ADD SWAP1 POP PUSH1 0x2 PUSH1 0x5 SLOAD PUSH2 0x332 SWAP2 SWAP1 PUSH2 0xE48 JUMP JUMPDEST DUP2 PUSH1 0x3 ADD SLOAD GT PUSH2 0x340 JUMPI PUSH0 DUP1 REVERT JUMPDEST DUP1 PUSH1 0x2 ADD PUSH1 0x14 SWAP1 SLOAD SWAP1 PUSH2 0x100 EXP SWAP1 DIV PUSH1 0xFF AND ISZERO PUSH2 0x35B JUMPI PUSH0 DUP1 REVERT JUMPDEST DUP1 PUSH1 0x2 ADD PUSH0 SWAP1 SLOAD SWAP1 PUSH2 0x100 EXP SWAP1 DIV PUSH20 0xFFFFFFFFFFFFFFFFFFFFFFFFFFFFFFFFFFFFFFFF AND PUSH20 0xFFFFFFFFFFFFFFFFFFFFFFFFFFFFFFFFFFFFFFFF AND PUSH2 0x8FC DUP3 PUSH1 0x1 ADD SLOAD SWAP1 DUP2 ISZERO MUL SWAP1 PUSH1 0x40 MLOAD PUSH0 PUSH1 0x40 MLOAD DUP1 DUP4 SUB DUP2 DUP6 DUP9 DUP9 CALL SWAP4 POP POP POP POP ISZERO DUP1 ISZERO PUSH2 0x3C5 JUMPI RETURNDATASIZE PUSH0 DUP1 RETURNDATACOPY RETURNDATASIZE PUSH0 REVERT JUMPDEST POP PUSH1 0x1 DUP2 PUSH1 0x2 ADD PUSH1 0x14 PUSH2 0x100 EXP DUP2 SLOAD DUP2 PUSH1 0xFF MUL NOT AND SWAP1 DUP4 ISZERO ISZERO MUL OR SWAP1 SSTORE POP POP POP JUMP JUMPDEST PUSH1 0x4 PUSH1 0x20 MSTORE DUP1 PUSH0 MSTORE PUSH1 0x40 PUSH0 KECCAK256 PUSH0 SWAP2 POP SLOAD SWAP1 PUSH2 0x100 EXP SWAP1 DIV PUSH1 0xFF AND DUP2 JUMP JUMPDEST PUSH0 DUP1 DUP1 SLOAD SWAP1 POP SWAP1 POP SWAP1 JUMP JUMPDEST PUSH1 0x60 PUSH0 DUP1 PUSH0 DUP1 PUSH0 PUSH1 0x2 PUSH1 0x3 SLOAD SELFBALANCE PUSH0 DUP1 SLOAD SWAP1 POP PUSH1 0x5 SLOAD PUSH1 0x1 PUSH0 SWAP1 SLOAD SWAP1 PUSH2 0x100 EXP SWAP1 DIV PUSH20 0xFFFFFFFFFFFFFFFFFFFFFFFFFFFFFFFFFFFFFFFF AND DUP6 DUP1 SLOAD PUSH2 0x452 SWAP1 PUSH2 0xEA5 JUMP JUMPDEST DUP1 PUSH1 0x1F ADD PUSH1 0x20 DUP1 SWAP2 DIV MUL PUSH1 0x20 ADD PUSH1 0x40 MLOAD SWAP1 DUP2 ADD PUSH1 0x40 MSTORE DUP1 SWAP3 SWAP2 SWAP1 DUP2 DUP2 MSTORE PUSH1 0x20 ADD DUP3 DUP1 SLOAD PUSH2 0x47E SWAP1 PUSH2 0xEA5 JUMP JUMPDEST DUP1 ISZERO PUSH2 0x4C9 JUMPI DUP1 PUSH1 0x1F LT PUSH2 0x4A0 JUMPI PUSH2 0x100 DUP1 DUP4 SLOAD DIV MUL DUP4 MSTORE SWAP2 PUSH1 0x20 ADD SWAP2 PUSH2 0x4C9 JUMP JUMPDEST DUP3 ADD SWAP2 SWAP1 PUSH0 MSTORE PUSH1 0x20 PUSH0 KECCAK256 SWAP1 JUMPDEST DUP2 SLOAD DUP2 MSTORE SWAP1 PUSH1 0x1 ADD SWAP1 PUSH1 0x20 ADD DUP1 DUP4 GT PUSH2 0x4AC JUMPI DUP3 SWAP1 SUB PUSH1 0x1F AND DUP3 ADD SWAP2 JUMPDEST POP POP POP POP POP SWAP6 POP SWAP6 POP SWAP6 POP SWAP6 POP SWAP6 POP SWAP6 POP SWAP6 POP SWAP1 SWAP2 SWAP3 SWAP4 SWAP5 SWAP6 JUMP JUMPDEST PUSH1 0x1 PUSH0 SWAP1 SLOAD SWAP1 PUSH2 0x100 EXP SWAP1 DIV PUSH20 0xFFFFFFFFFFFFFFFFFFFFFFFFFFFFFFFFFFFFFFFF AND DUP2 JUMP JUMPDEST PUSH0 DUP2 DUP2 SLOAD DUP2 LT PUSH2 0x517 JUMPI PUSH0 DUP1 REVERT JUMPDEST SWAP1 PUSH0 MSTORE PUSH1 0x20 PUSH0 KECCAK256 SWAP1 PUSH1 0x5 MUL ADD PUSH0 SWAP2 POP SWAP1 POP DUP1 PUSH0 ADD DUP1 SLOAD PUSH2 0x536 SWAP1 PUSH2 0xEA5 JUMP JUMPDEST DUP1 PUSH1 0x1F ADD PUSH1 0x20 DUP1 SWAP2 DIV MUL PUSH1 0x20 ADD PUSH1 0x40 MLOAD SWAP1 DUP2 ADD PUSH1 0x40 MSTORE DUP1 SWAP3 SWAP2 SWAP1 DUP2 DUP2 MSTORE PUSH1 0x20 ADD DUP3 DUP1 SLOAD PUSH2 0x562 SWAP1 PUSH2 0xEA5 JUMP JUMPDEST DUP1 ISZERO PUSH2 0x5AD JUMPI DUP1 PUSH1 0x1F LT PUSH2 0x584 JUMPI PUSH2 0x100 DUP1 DUP4 SLOAD DIV MUL DUP4 MSTORE SWAP2 PUSH1 0x20 ADD SWAP2 PUSH2 0x5AD JUMP JUMPDEST DUP3 ADD SWAP2 SWAP1 PUSH0 MSTORE PUSH1 0x20 PUSH0 KECCAK256 SWAP1 JUMPDEST DUP2 SLOAD DUP2 MSTORE SWAP1 PUSH1 0x1 ADD SWAP1 PUSH1 0x20 ADD DUP1 DUP4 GT PUSH2 0x590 JUMPI DUP3 SWAP1 SUB PUSH1 0x1F AND DUP3 ADD SWAP2 JUMPDEST POP POP POP POP POP SWAP1 DUP1 PUSH1 0x1 ADD SLOAD SWAP1 DUP1 PUSH1 0x2 ADD PUSH0 SWAP1 SLOAD SWAP1 PUSH2 0x100 EXP SWAP1 DIV PUSH20 0xFFFFFFFFFFFFFFFFFFFFFFFFFFFFFFFFFFFFFFFF AND SWAP1 DUP1 PUSH1 0x2 ADD PUSH1 0x14 SWAP1 SLOAD SWAP1 PUSH2 0x100 EXP SWAP1 DIV PUSH1 0xFF AND SWAP1 DUP1 PUSH1 0x3 ADD SLOAD SWAP1 POP DUP6 JUMP JUMPDEST PUSH1 0x5 SLOAD DUP2 JUMP JUMPDEST PUSH1 0x1 PUSH0 SWAP1 SLOAD SWAP1 PUSH2 0x100 EXP SWAP1 DIV PUSH20 0xFFFFFFFFFFFFFFFFFFFFFFFFFFFFFFFFFFFFFFFF AND PUSH20 0xFFFFFFFFFFFFFFFFFFFFFFFFFFFFFFFFFFFFFFFF AND CALLER PUSH20 0xFFFFFFFFFFFFFFFFFFFFFFFFFFFFFFFFFFFFFFFF AND EQ PUSH2 0x659 JUMPI PUSH0 DUP1 REVERT JUMPDEST PUSH0 DUP1 PUSH1 0x1 DUP2 PUSH1 0x1 DUP2 SLOAD ADD DUP1 DUP3 SSTORE DUP1 SWAP2 POP POP SUB SWAP1 PUSH0 MSTORE PUSH1 0x20 PUSH0 KECCAK256 SWAP1 PUSH1 0x5 MUL ADD SWAP1 POP DUP4 DUP2 PUSH0 ADD SWAP1 DUP2 PUSH2 0x689 SWAP2 SWAP1 PUSH2 0x1072 JUMP JUMPDEST POP DUP3 DUP2 PUSH1 0x1 ADD DUP2 SWAP1 SSTORE POP DUP2 DUP2 PUSH1 0x2 ADD PUSH0 PUSH2 0x100 EXP DUP2 SLOAD DUP2 PUSH20 0xFFFFFFFFFFFFFFFFFFFFFFFFFFFFFFFFFFFFFFFF MUL NOT AND SWAP1 DUP4 PUSH20 0xFFFFFFFFFFFFFFFFFFFFFFFFFFFFFFFFFFFFFFFF AND MUL OR SWAP1 SSTORE POP PUSH0 DUP2 PUSH1 0x2 ADD PUSH1 0x14 PUSH2 0x100 EXP DUP2 SLOAD DUP2 PUSH1 0xFF MUL NOT AND SWAP1 DUP4 ISZERO ISZERO MUL OR SWAP1 SSTORE POP PUSH0 DUP2 PUSH1 0x3 ADD DUP2 SWAP1 SSTORE POP POP POP POP POP JUMP JUMPDEST PUSH1 0x3 SLOAD DUP2 JUMP JUMPDEST PUSH1 0x3 SLOAD CALLVALUE GT PUSH2 0x713 JUMPI PUSH0 DUP1 REVERT JUMPDEST PUSH1 0x1 PUSH1 0x4 PUSH0 CALLER PUSH20 0xFFFFFFFFFFFFFFFFFFFFFFFFFFFFFFFFFFFFFFFF AND PUSH20 0xFFFFFFFFFFFFFFFFFFFFFFFFFFFFFFFFFFFFFFFF AND DUP2 MSTORE PUSH1 0x20 ADD SWAP1 DUP2 MSTORE PUSH1 0x20 ADD PUSH0 KECCAK256 PUSH0 PUSH2 0x100 EXP DUP2 SLOAD DUP2 PUSH1 0xFF MUL NOT AND SWAP1 DUP4 ISZERO ISZERO MUL OR SWAP1 SSTORE POP PUSH1 0x5 PUSH0 DUP2 SLOAD DUP1 SWAP3 SWAP2 SWAP1 PUSH2 0x77A SWAP1 PUSH2 0x1141 JUMP JUMPDEST SWAP2 SWAP1 POP SSTORE POP JUMP JUMPDEST PUSH0 DUP1 DUP3 DUP2 SLOAD DUP2 LT PUSH2 0x795 JUMPI PUSH2 0x794 PUSH2 0xDC1 JUMP JUMPDEST JUMPDEST SWAP1 PUSH0 MSTORE PUSH1 0x20 PUSH0 KECCAK256 SWAP1 PUSH1 0x5 MUL ADD SWAP1 POP PUSH1 0x4 PUSH0 CALLER PUSH20 0xFFFFFFFFFFFFFFFFFFFFFFFFFFFFFFFFFFFFFFFF AND PUSH20 0xFFFFFFFFFFFFFFFFFFFFFFFFFFFFFFFFFFFFFFFF AND DUP2 MSTORE PUSH1 0x20 ADD SWAP1 DUP2 MSTORE PUSH1 0x20 ADD PUSH0 KECCAK256 PUSH0 SWAP1 SLOAD SWAP1 PUSH2 0x100 EXP SWAP1 DIV PUSH1 0xFF AND PUSH2 0x7F5 JUMPI PUSH0 DUP1 REVERT JUMPDEST DUP1 PUSH1 0x4 ADD PUSH0 CALLER PUSH20 0xFFFFFFFFFFFFFFFFFFFFFFFFFFFFFFFFFFFFFFFF AND PUSH20 0xFFFFFFFFFFFFFFFFFFFFFFFFFFFFFFFFFFFFFFFF AND DUP2 MSTORE PUSH1 0x20 ADD SWAP1 DUP2 MSTORE PUSH1 0x20 ADD PUSH0 KECCAK256 PUSH0 SWAP1 SLOAD SWAP1 PUSH2 0x100 EXP SWAP1 DIV PUSH1 0xFF AND ISZERO PUSH2 0x84A JUMPI PUSH0 DUP1 REVERT JUMPDEST PUSH1 0x1 DUP2 PUSH1 0x4 ADD PUSH0 CALLER PUSH20 0xFFFFFFFFFFFFFFFFFFFFFFFFFFFFFFFFFFFFFFFF AND PUSH20 0xFFFFFFFFFFFFFFFFFFFFFFFFFFFFFFFFFFFFFFFF AND DUP2 MSTORE PUSH1 0x20 ADD SWAP1 DUP2 MSTORE PUSH1 0x20 ADD PUSH0 KECCAK256 PUSH0 PUSH2 0x100 EXP DUP2 SLOAD DUP2 PUSH1 0xFF MUL NOT AND SWAP1 DUP4 ISZERO ISZERO MUL OR SWAP1 SSTORE POP DUP1 PUSH1 0x3 ADD PUSH0 DUP2 SLOAD DUP1 SWAP3 SWAP2 SWAP1 PUSH2 0x8B5 SWAP1 PUSH2 0x1141 JUMP JUMPDEST SWAP2 SWAP1 POP SSTORE POP POP POP JUMP JUMPDEST PUSH1 0x2 DUP1 SLOAD PUSH2 0x8CB SWAP1 PUSH2 0xEA5 JUMP JUMPDEST DUP1 PUSH1 0x1F ADD PUSH1 0x20 DUP1 SWAP2 DIV MUL PUSH1 0x20 ADD PUSH1 0x40 MLOAD SWAP1 DUP2 ADD PUSH1 0x40 MSTORE DUP1 SWAP3 SWAP2 SWAP1 DUP2 DUP2 MSTORE PUSH1 0x20 ADD DUP3 DUP1 SLOAD PUSH2 0x8F7 SWAP1 PUSH2 0xEA5 JUMP JUMPDEST DUP1 ISZERO PUSH2 0x942 JUMPI DUP1 PUSH1 0x1F LT PUSH2 0x919 JUMPI PUSH2 0x100 DUP1 DUP4 SLOAD DIV MUL DUP4 MSTORE SWAP2 PUSH1 0x20 ADD SWAP2 PUSH2 0x942 JUMP JUMPDEST DUP3 ADD SWAP2 SWAP1 PUSH0 MSTORE PUSH1 0x20 PUSH0 KECCAK256 SWAP1 JUMPDEST DUP2 SLOAD DUP2 MSTORE SWAP1 PUSH1 0x1 ADD SWAP1 PUSH1 0x20 ADD DUP1 DUP4 GT PUSH2 0x925 JUMPI DUP3 SWAP1 SUB PUSH1 0x1F AND DUP3 ADD SWAP2 JUMPDEST POP POP POP POP POP DUP2 JUMP JUMPDEST PUSH0 PUSH1 0x40 MLOAD SWAP1 POP SWAP1 JUMP JUMPDEST PUSH0 DUP1 REVERT JUMPDEST PUSH0 DUP1 REVERT JUMPDEST PUSH0 DUP2 SWAP1 POP SWAP2 SWAP1 POP JUMP JUMPDEST PUSH2 0x96D DUP2 PUSH2 0x95B JUMP JUMPDEST DUP2 EQ PUSH2 0x977 JUMPI PUSH0 DUP1 REVERT JUMPDEST POP JUMP JUMPDEST PUSH0 DUP2 CALLDATALOAD SWAP1 POP PUSH2 0x988 DUP2 PUSH2 0x964 JUMP JUMPDEST SWAP3 SWAP2 POP POP JUMP JUMPDEST PUSH0 PUSH1 0x20 DUP3 DUP5 SUB SLT ISZERO PUSH2 0x9A3 JUMPI PUSH2 0x9A2 PUSH2 0x953 JUMP JUMPDEST JUMPDEST PUSH0 PUSH2 0x9B0 DUP5 DUP3 DUP6 ADD PUSH2 0x97A JUMP JUMPDEST SWAP2 POP POP SWAP3 SWAP2 POP POP JUMP JUMPDEST PUSH0 PUSH20 0xFFFFFFFFFFFFFFFFFFFFFFFFFFFFFFFFFFFFFFFF DUP3 AND SWAP1 POP SWAP2 SWAP1 POP JUMP JUMPDEST PUSH0 PUSH2 0x9E2 DUP3 PUSH2 0x9B9 JUMP JUMPDEST SWAP1 POP SWAP2 SWAP1 POP JUMP JUMPDEST PUSH2 0x9F2 DUP2 PUSH2 0x9D8 JUMP JUMPDEST DUP2 EQ PUSH2 0x9FC JUMPI PUSH0 DUP1 REVERT JUMPDEST POP JUMP JUMPDEST PUSH0 DUP2 CALLDATALOAD SWAP1 POP PUSH2 0xA0D DUP2 PUSH2 0x9E9 JUMP JUMPDEST SWAP3 SWAP2 POP POP JUMP JUMPDEST PUSH0 PUSH1 0x20 DUP3 DUP5 SUB SLT ISZERO PUSH2 0xA28 JUMPI PUSH2 0xA27 PUSH2 0x953 JUMP JUMPDEST JUMPDEST PUSH0 PUSH2 0xA35 DUP5 DUP3 DUP6 ADD PUSH2 0x9FF JUMP JUMPDEST SWAP2 POP POP SWAP3 SWAP2 POP POP JUMP JUMPDEST PUSH0 DUP2 ISZERO ISZERO SWAP1 POP SWAP2 SWAP1 POP JUMP JUMPDEST PUSH2 0xA52 DUP2 PUSH2 0xA3E JUMP JUMPDEST DUP3 MSTORE POP POP JUMP JUMPDEST PUSH0 PUSH1 0x20 DUP3 ADD SWAP1 POP PUSH2 0xA6B PUSH0 DUP4 ADD DUP5 PUSH2 0xA49 JUMP JUMPDEST SWAP3 SWAP2 POP POP JUMP JUMPDEST PUSH2 0xA7A DUP2 PUSH2 0x95B JUMP JUMPDEST DUP3 MSTORE POP POP JUMP JUMPDEST PUSH0 PUSH1 0x20 DUP3 ADD SWAP1 POP PUSH2 0xA93 PUSH0 DUP4 ADD DUP5 PUSH2 0xA71 JUMP JUMPDEST SWAP3 SWAP2 POP POP JUMP JUMPDEST PUSH0 DUP2 MLOAD SWAP1 POP SWAP2 SWAP1 POP JUMP JUMPDEST PUSH0 DUP3 DUP3 MSTORE PUSH1 0x20 DUP3 ADD SWAP1 POP SWAP3 SWAP2 POP POP JUMP JUMPDEST PUSH0 JUMPDEST DUP4 DUP2 LT ISZERO PUSH2 0xAD0 JUMPI DUP1 DUP3 ADD MLOAD DUP2 DUP5 ADD MSTORE PUSH1 0x20 DUP2 ADD SWAP1 POP PUSH2 0xAB5 JUMP JUMPDEST PUSH0 DUP5 DUP5 ADD MSTORE POP POP POP POP JUMP JUMPDEST PUSH0 PUSH1 0x1F NOT PUSH1 0x1F DUP4 ADD AND SWAP1 POP SWAP2 SWAP1 POP JUMP JUMPDEST PUSH0 PUSH2 0xAF5 DUP3 PUSH2 0xA99 JUMP JUMPDEST PUSH2 0xAFF DUP2 DUP6 PUSH2 0xAA3 JUMP JUMPDEST SWAP4 POP PUSH2 0xB0F DUP2 DUP6 PUSH1 0x20 DUP7 ADD PUSH2 0xAB3 JUMP JUMPDEST PUSH2 0xB18 DUP2 PUSH2 0xADB JUMP JUMPDEST DUP5 ADD SWAP2 POP POP SWAP3 SWAP2 POP POP JUMP JUMPDEST PUSH2 0xB2C DUP2 PUSH2 0x9D8 JUMP JUMPDEST DUP3 MSTORE POP POP JUMP JUMPDEST PUSH0 PUSH1 0xC0 DUP3 ADD SWAP1 POP DUP2 DUP2 SUB PUSH0 DUP4 ADD MSTORE PUSH2 0xB4A DUP2 DUP10 PUSH2 0xAEB JUMP JUMPDEST SWAP1 POP PUSH2 0xB59 PUSH1 0x20 DUP4 ADD DUP9 PUSH2 0xA71 JUMP JUMPDEST PUSH2 0xB66 PUSH1 0x40 DUP4 ADD DUP8 PUSH2 0xA71 JUMP JUMPDEST PUSH2 0xB73 PUSH1 0x60 DUP4 ADD DUP7 PUSH2 0xA71 JUMP JUMPDEST PUSH2 0xB80 PUSH1 0x80 DUP4 ADD DUP6 PUSH2 0xA71 JUMP JUMPDEST PUSH2 0xB8D PUSH1 0xA0 DUP4 ADD DUP5 PUSH2 0xB23 JUMP JUMPDEST SWAP8 SWAP7 POP POP POP POP POP POP POP JUMP JUMPDEST PUSH0 PUSH1 0x20 DUP3 ADD SWAP1 POP PUSH2 0xBAB PUSH0 DUP4 ADD DUP5 PUSH2 0xB23 JUMP JUMPDEST SWAP3 SWAP2 POP POP JUMP JUMPDEST PUSH0 PUSH1 0xA0 DUP3 ADD SWAP1 POP DUP2 DUP2 SUB PUSH0 DUP4 ADD MSTORE PUSH2 0xBC9 DUP2 DUP9 PUSH2 0xAEB JUMP JUMPDEST SWAP1 POP PUSH2 0xBD8 PUSH1 0x20 DUP4 ADD DUP8 PUSH2 0xA71 JUMP JUMPDEST PUSH2 0xBE5 PUSH1 0x40 DUP4 ADD DUP7 PUSH2 0xB23 JUMP JUMPDEST PUSH2 0xBF2 PUSH1 0x60 DUP4 ADD DUP6 PUSH2 0xA49 JUMP JUMPDEST PUSH2 0xBFF PUSH1 0x80 DUP4 ADD DUP5 PUSH2 0xA71 JUMP JUMPDEST SWAP7 SWAP6 POP POP POP POP POP POP JUMP JUMPDEST PUSH0 DUP1 REVERT JUMPDEST PUSH0 DUP1 REVERT JUMPDEST PUSH32 0x4E487B7100000000000000000000000000000000000000000000000000000000 PUSH0 MSTORE PUSH1 0x41 PUSH1 0x4 MSTORE PUSH1 0x24 PUSH0 REVERT JUMPDEST PUSH2 0xC47 DUP3 PUSH2 0xADB JUMP JUMPDEST DUP2 ADD DUP2 DUP2 LT PUSH8 0xFFFFFFFFFFFFFFFF DUP3 GT OR ISZERO PUSH2 0xC66 JUMPI PUSH2 0xC65 PUSH2 0xC11 JUMP JUMPDEST JUMPDEST DUP1 PUSH1 0x40 MSTORE POP POP POP JUMP JUMPDEST PUSH0 PUSH2 0xC78 PUSH2 0x94A JUMP JUMPDEST SWAP1 POP PUSH2 0xC84 DUP3 DUP3 PUSH2 0xC3E JUMP JUMPDEST SWAP2 SWAP1 POP JUMP JUMPDEST PUSH0 PUSH8 0xFFFFFFFFFFFFFFFF DUP3 GT ISZERO PUSH2 0xCA3 JUMPI PUSH2 0xCA2 PUSH2 0xC11 JUMP JUMPDEST JUMPDEST PUSH2 0xCAC DUP3 PUSH2 0xADB JUMP JUMPDEST SWAP1 POP PUSH1 0x20 DUP2 ADD SWAP1 POP SWAP2 SWAP1 POP JUMP JUMPDEST DUP3 DUP2 DUP4 CALLDATACOPY PUSH0 DUP4 DUP4 ADD MSTORE POP POP POP JUMP JUMPDEST PUSH0 PUSH2 0xCD9 PUSH2 0xCD4 DUP5 PUSH2 0xC89 JUMP JUMPDEST PUSH2 0xC6F JUMP JUMPDEST SWAP1 POP DUP3 DUP2 MSTORE PUSH1 0x20 DUP2 ADD DUP5 DUP5 DUP5 ADD GT ISZERO PUSH2 0xCF5 JUMPI PUSH2 0xCF4 PUSH2 0xC0D JUMP JUMPDEST JUMPDEST PUSH2 0xD00 DUP5 DUP3 DUP6 PUSH2 0xCB9 JUMP JUMPDEST POP SWAP4 SWAP3 POP POP POP JUMP JUMPDEST PUSH0 DUP3 PUSH1 0x1F DUP4 ADD SLT PUSH2 0xD1C JUMPI PUSH2 0xD1B PUSH2 0xC09 JUMP JUMPDEST JUMPDEST DUP2 CALLDATALOAD PUSH2 0xD2C DUP5 DUP3 PUSH1 0x20 DUP7 ADD PUSH2 0xCC7 JUMP JUMPDEST SWAP2 POP POP SWAP3 SWAP2 POP POP JUMP JUMPDEST PUSH0 DUP1 PUSH0 PUSH1 0x60 DUP5 DUP7 SUB SLT ISZERO PUSH2 0xD4C JUMPI PUSH2 0xD4B PUSH2 0x953 JUMP JUMPDEST JUMPDEST PUSH0 DUP5 ADD CALLDATALOAD PUSH8 0xFFFFFFFFFFFFFFFF DUP2 GT ISZERO PUSH2 0xD69 JUMPI PUSH2 0xD68 PUSH2 0x957 JUMP JUMPDEST JUMPDEST PUSH2 0xD75 DUP7 DUP3 DUP8 ADD PUSH2 0xD08 JUMP JUMPDEST SWAP4 POP POP PUSH1 0x20 PUSH2 0xD86 DUP7 DUP3 DUP8 ADD PUSH2 0x97A JUMP JUMPDEST SWAP3 POP POP PUSH1 0x40 PUSH2 0xD97 DUP7 DUP3 DUP8 ADD PUSH2 0x9FF JUMP JUMPDEST SWAP2 POP POP SWAP3 POP SWAP3 POP SWAP3 JUMP JUMPDEST PUSH0 PUSH1 0x20 DUP3 ADD SWAP1 POP DUP2 DUP2 SUB PUSH0 DUP4 ADD MSTORE PUSH2 0xDB9 DUP2 DUP5 PUSH2 0xAEB JUMP JUMPDEST SWAP1 POP SWAP3 SWAP2 POP POP JUMP JUMPDEST PUSH32 0x4E487B7100000000000000000000000000000000000000000000000000000000 PUSH0 MSTORE PUSH1 0x32 PUSH1 0x4 MSTORE PUSH1 0x24 PUSH0 REVERT JUMPDEST PUSH32 0x4E487B7100000000000000000000000000000000000000000000000000000000 PUSH0 MSTORE PUSH1 0x12 PUSH1 0x4 MSTORE PUSH1 0x24 PUSH0 REVERT JUMPDEST PUSH32 0x4E487B7100000000000000000000000000000000000000000000000000000000 PUSH0 MSTORE PUSH1 0x11 PUSH1 0x4 MSTORE PUSH1 0x24 PUSH0 REVERT JUMPDEST PUSH0 PUSH2 0xE52 DUP3 PUSH2 0x95B JUMP JUMPDEST SWAP2 POP PUSH2 0xE5D DUP4 PUSH2 0x95B JUMP JUMPDEST SWAP3 POP DUP3 PUSH2 0xE6D JUMPI PUSH2 0xE6C PUSH2 0xDEE JUMP JUMPDEST JUMPDEST DUP3 DUP3 DIV SWAP1 POP SWAP3 SWAP2 POP POP JUMP JUMPDEST PUSH32 0x4E487B7100000000000000000000000000000000000000000000000000000000 PUSH0 MSTORE PUSH1 0x22 PUSH1 0x4 MSTORE PUSH1 0x24 PUSH0 REVERT JUMPDEST PUSH0 PUSH1 0x2 DUP3 DIV SWAP1 POP PUSH1 0x1 DUP3 AND DUP1 PUSH2 0xEBC JUMPI PUSH1 0x7F DUP3 AND SWAP2 POP JUMPDEST PUSH1 0x20 DUP3 LT DUP2 SUB PUSH2 0xECF JUMPI PUSH2 0xECE PUSH2 0xE78 JUMP JUMPDEST JUMPDEST POP SWAP2 SWAP1 POP JUMP JUMPDEST PUSH0 DUP2 SWAP1 POP DUP2 PUSH0 MSTORE PUSH1 0x20 PUSH0 KECCAK256 SWAP1 POP SWAP2 SWAP1 POP JUMP JUMPDEST PUSH0 PUSH1 0x20 PUSH1 0x1F DUP4 ADD DIV SWAP1 POP SWAP2 SWAP1 POP JUMP JUMPDEST PUSH0 DUP3 DUP3 SHL SWAP1 POP SWAP3 SWAP2 POP POP JUMP JUMPDEST PUSH0 PUSH1 0x8 DUP4 MUL PUSH2 0xF31 PUSH32 0xFFFFFFFFFFFFFFFFFFFFFFFFFFFFFFFFFFFFFFFFFFFFFFFFFFFFFFFFFFFFFFFF DUP3 PUSH2 0xEF6 JUMP JUMPDEST PUSH2 0xF3B DUP7 DUP4 PUSH2 0xEF6 JUMP JUMPDEST SWAP6 POP DUP1 NOT DUP5 AND SWAP4 POP DUP1 DUP7 AND DUP5 OR SWAP3 POP POP POP SWAP4 SWAP3 POP POP POP JUMP JUMPDEST PUSH0 DUP2 SWAP1 POP SWAP2 SWAP1 POP JUMP JUMPDEST PUSH0 PUSH2 0xF76 PUSH2 0xF71 PUSH2 0xF6C DUP5 PUSH2 0x95B JUMP JUMPDEST PUSH2 0xF53 JUMP JUMPDEST PUSH2 0x95B JUMP JUMPDEST SWAP1 POP SWAP2 SWAP1 POP JUMP JUMPDEST PUSH0 DUP2 SWAP1 POP SWAP2 SWAP1 POP JUMP JUMPDEST PUSH2 0xF8F DUP4 PUSH2 0xF5C JUMP JUMPDEST PUSH2 0xFA3 PUSH2 0xF9B DUP3 PUSH2 0xF7D JUMP JUMPDEST DUP5 DUP5 SLOAD PUSH2 0xF02 JUMP JUMPDEST DUP3 SSTORE POP POP POP POP JUMP JUMPDEST PUSH0 SWAP1 JUMP JUMPDEST PUSH2 0xFB7 PUSH2 0xFAB JUMP JUMPDEST PUSH2 0xFC2 DUP2 DUP5 DUP5 PUSH2 0xF86 JUMP JUMPDEST POP POP POP JUMP JUMPDEST JUMPDEST DUP2 DUP2 LT ISZERO PUSH2 0xFE5 JUMPI PUSH2 0xFDA PUSH0 DUP3 PUSH2 0xFAF JUMP JUMPDEST PUSH1 0x1 DUP2 ADD SWAP1 POP PUSH2 0xFC8 JUMP JUMPDEST POP POP JUMP JUMPDEST PUSH1 0x1F DUP3 GT ISZERO PUSH2 0x102A JUMPI PUSH2 0xFFB DUP2 PUSH2 0xED5 JUMP JUMPDEST PUSH2 0x1004 DUP5 PUSH2 0xEE7 JUMP JUMPDEST DUP2 ADD PUSH1 0x20 DUP6 LT ISZERO PUSH2 0x1013 JUMPI DUP2 SWAP1 POP JUMPDEST PUSH2 0x1027 PUSH2 0x101F DUP6 PUSH2 0xEE7 JUMP JUMPDEST DUP4 ADD DUP3 PUSH2 0xFC7 JUMP JUMPDEST POP POP JUMPDEST POP POP POP JUMP JUMPDEST PUSH0 DUP3 DUP3 SHR SWAP1 POP SWAP3 SWAP2 POP POP JUMP JUMPDEST PUSH0 PUSH2 0x104A PUSH0 NOT DUP5 PUSH1 0x8 MUL PUSH2 0x102F JUMP JUMPDEST NOT DUP1 DUP4 AND SWAP2 POP POP SWAP3 SWAP2 POP POP JUMP JUMPDEST PUSH0 PUSH2 0x1062 DUP4 DUP4 PUSH2 0x103B JUMP JUMPDEST SWAP2 POP DUP3 PUSH1 0x2 MUL DUP3 OR SWAP1 POP SWAP3 SWAP2 POP POP JUMP JUMPDEST PUSH2 0x107B DUP3 PUSH2 0xA99 JUMP JUMPDEST PUSH8 0xFFFFFFFFFFFFFFFF DUP2 GT ISZERO PUSH2 0x1094 JUMPI PUSH2 0x1093 PUSH2 0xC11 JUMP JUMPDEST JUMPDEST PUSH2 0x109E DUP3 SLOAD PUSH2 0xEA5 JUMP JUMPDEST PUSH2 0x10A9 DUP3 DUP3 DUP6 PUSH2 0xFE9 JUMP JUMPDEST PUSH0 PUSH1 0x20 SWAP1 POP PUSH1 0x1F DUP4 GT PUSH1 0x1 DUP2 EQ PUSH2 0x10DA JUMPI PUSH0 DUP5 ISZERO PUSH2 0x10C8 JUMPI DUP3 DUP8 ADD MLOAD SWAP1 POP JUMPDEST PUSH2 0x10D2 DUP6 DUP3 PUSH2 0x1057 JUMP JUMPDEST DUP7 SSTORE POP PUSH2 0x1139 JUMP JUMPDEST PUSH1 0x1F NOT DUP5 AND PUSH2 0x10E8 DUP7 PUSH2 0xED5 JUMP JUMPDEST PUSH0 JUMPDEST DUP3 DUP2 LT ISZERO PUSH2 0x110F JUMPI DUP5 DUP10 ADD MLOAD DUP3 SSTORE PUSH1 0x1 DUP3 ADD SWAP2 POP PUSH1 0x20 DUP6 ADD SWAP5 POP PUSH1 0x20 DUP2 ADD SWAP1 POP PUSH2 0x10EA JUMP JUMPDEST DUP7 DUP4 LT ISZERO PUSH2 0x112C JUMPI DUP5 DUP10 ADD MLOAD PUSH2 0x1128 PUSH1 0x1F DUP10 AND DUP3 PUSH2 0x103B JUMP JUMPDEST DUP4 SSTORE POP JUMPDEST PUSH1 0x1 PUSH1 0x2 DUP9 MUL ADD DUP9 SSTORE POP POP POP JUMPDEST POP POP POP POP POP POP JUMP JUMPDEST PUSH0 PUSH2 0x114B DUP3 PUSH2 0x95B JUMP JUMPDEST SWAP2 POP PUSH32 0xFFFFFFFFFFFFFFFFFFFFFFFFFFFFFFFFFFFFFFFFFFFFFFFFFFFFFFFFFFFFFFFF DUP3 SUB PUSH2 0x117D JUMPI PUSH2 0x117C PUSH2 0xE1B JUMP JUMPDEST JUMPDEST PUSH1 0x1 DUP3 ADD SWAP1 POP SWAP2 SWAP1 POP JUMP INVALID LOG2 PUSH5 0x6970667358 0x22 SLT KECCAK256 0xD7 0x4F 0xC5 BLOCKHASH DUP5 PC DUP14 0xC3 MLOAD SELFDESTRUCT 0xAC PREVRANDAO REVERT JUMP EXTCODESIZE 0xA6 CALL CREATE EXTCODECOPY DUP11 DUP5 SELFBALANCE 0xCF 0x22 0xDD 0xAD 0xB3 0xD9 EXTCODESIZE 0xE5 SELFDESTRUCT 0xEF PUSH5 0x736F6C6343 STOP ADDMOD EQ STOP CALLER "},"gasEstimates":{"creation":{"codeDepositCost":"908400","executionCost":"infinite","totalCost":"infinite"},"external":{"approveRequest(uint256)":"infinite","approvers(address)":"2856","approversCount()":"2425","contribute()":"51014","createRequest(string,uint256,address)":"infinite","finalizeRequest(uint256)":"infinite","getRequestsCount()":"2485","getSummary()":"infinite","manager()":"2597","managerName()":"infinite","minimumContribution()":"2469","requests(uint256)":"infinite"}},"methodIdentifiers":{"approveRequest(uint256)":"d7d1bbdb","approvers(address)":"0a144391","approversCount()":"82fde093","contribute()":"d7bb99ba","createRequest(string,uint256,address)":"8a9cfd55","finalizeRequest(uint256)":"03441006","getRequestsCount()":"3410452a","getSummary()":"4051ddac","manager()":"481c6a75","managerName()":"fed4416a","minimumContribution()":"937e09b1","requests(uint256)":"81d12c58"}},"storageLayout":{"storage":[{"astId":96,"contract":"Campaign.sol:Campaign","label":"requests","offset":0,"slot":"0","type":"t_array(t_struct(Request)92_storage)dyn_storage"},{"astId":98,"contract":"Campaign.sol:Campaign","label":"manager","offset":0,"slot":"1","type":"t_address"},{"astId":100,"contract":"Campaign.sol:Campaign","label":"managerName","offset":0,"slot":"2","type":"t_string_storage"},{"astId":102,"contract":"Campaign.sol:Campaign","label":"minimumContribution","offset":0,"slot":"3","type":"t_uint256"},{"astId":106,"contract":"Campaign.sol:Campaign","label":"approvers","offset":0,"slot":"4","type":"t_mapping(t_address,t_bool)"},{"astId":108,"contract":"Campaign.sol:Campaign","label":"approversCount","offset":0,"slot":"5","type":"t_uint256"}],"types":{"t_address":{"encoding":"inplace","label":"address","numberOfBytes":"20"},"t_array(t_struct(Request)92_storage)dyn_storage":{"base":"t_struct(Request)92_storage","encoding":"dynamic_array","label":"struct Campaign.Request[]","numberOfBytes":"32"},"t_bool":{"encoding":"inplace","label":"bool","numberOfBytes":"1"},"t_mapping(t_address,t_bool)":{"encoding":"mapping","key":"t_address","label":"mapping(address => bool)","numberOfBytes":"32","value":"t_bool"},"t_string_storage":{"encoding":"bytes","label":"string","numberOfBytes":"32"},"t_struct(Request)92_storage":{"encoding":"inplace","label":"struct Campaign.Request","members":[{"astId":79,"contract":"Campaign.sol:Campaign","label":"description","offset":0,"slot":"0","type":"t_string_storage"},{"astId":81,"contract":"Campaign.sol:Campaign","label":"value","offset":0,"slot":"1","type":"t_uint256"},{"astId":83,"contract":"Campaign.sol:Campaign","label":"recipient","offset":0,"slot":"2","type":"t_address"},{"astId":85,"contract":"Campaign.sol:Campaign","label":"complete","offset":20,"slot":"2","type":"t_bool"},{"astId":87,"contract":"Campaign.sol:Campaign","label":"approvalCount","offset":0,"slot":"3","type":"t_uint256"},{"astId":91,"contract":"Campaign.sol:Campaign","label":"approvals","offset":0,"slot":"4","type":"t_mapping(t_address,t_bool)"}],"numberOfBytes":"160"},"t_uint256":{"encoding":"inplace","label":"uint256","numberOfBytes":"32"}}},"userdoc":{"kind":"user","methods":{},"version":1}}